:020000040800F2
:10000000000400203F0200084D0200084F020008D3
:1000100051020008530200085502000800000000C9
:10002000000000000000000000000000570200086F
:1000300059020008000000001B8D0008950600080A
:10004000ED0F00085F0200085F020008053C000891
:100050005F0200085F020008F93C00085F02000828
:10006000250E00084B0E0008710E00085F02000804
:100070005F0200085F0200085F0200085F020008DC
:100080005F0200085F0200085F0200085F020008CC
:100090005F0200085F0200085F0200085F020008BC
:1000A0005F0200085F0200085F0200085F020008AC
:1000B000495A0008351000085F0200085F02000876
:1000C0005F0200085F0200085F0200085F0200088C
:1000D0005F020008B70A00089D4200085F0200089E
:1000E0005F0200085F0200085F0200085F0200086C
:1000F0005F0200085F0200085F0200085F0200085C
:100100005F0200085F0200081D1200085F0200087D
:100110005F0200085F0200085F0200085F0200083B
:100120005F0200085F0200085F0200085F0200082B
:1001300000F002F800F06DF80AA090E8000C82448C
:100140008344AAF10107DA4501D100F062F8AFF269
:10015000090EBAE80F0013F0010F18BFFB1A43F0A5
:1001600001031847F4AB000014AC00000A444FF040
:10017000000C10F8013B13F0070408BF10F8014B06
:100180001D1108BF10F8015B641E05D010F8016B4B
:10019000641E01F8016BF9D113F0080F1EBF10F8AF
:1001A000014BAD1C0C1B09D16D1E58BF01F801CBD2
:1001B000FAD505E014F8016B01F8016B6D1EF9D555
:1001C0009142D6D37047000000230024002500266A
:1001D000103A28BF78C1FBD8520728BF30C148BFAA
:1001E0000B607047642908F02B86752908F0288673
:1001F000782908F05F86632908F0CB87732908F017
:10020000D087002070471FB509F069FE1FBD10B5EB
:1002100010BD09F00BF81146FFF7F5FF00F0ADF93E
:1002200009F029F803B4FFF7F2FF03BC00F036FC35
:1002300030BF72B662B680F30888704770470B48CB
:1002400080470B4981F308880A480047FEE7FEE72C
:10025000FEE7FEE7FEE7FEE7FEE7FEE7FEE7FEE776
:1002600005480649044A064B704700003D02000855
:10027000E01C002031010008E0140020E01C0020F8
:10028000E01400201CB54FF6FF7001F064FB4FF442
:100290007840CF490880CFA31022CDE90023134630
:1002A000C8220A211E2003F06AFACEA31022CDE94B
:1002B00000231346C8221E21084603F060FACDA38E
:1002C0001022CDE900231346C82232211E2003F05C
:1002D00056FACCA31022CDE900231346C8224B21A5
:1002E0001E2003F04CFACDA31022CDE900231346C3
:1002F000C8225F211E2003F042FACEA31022CDE9CE
:1003000000231346C822D221502003F038FACC48EB
:10031000028878231946002003F001F8C8480288B3
:1003200046231946002002F0FAFF462396220021B8
:10033000104602F0F4FF1F20A5490880C1A3102237
:10034000CDE900231346C8221E21A02003F017FA8E
:10035000BFA31022CDE900231346C8223221A020DA
:1003600003F00DFA1CBD0CE0002000F0FEFC04467A
:1003700024B12146B848006807F030FA0A2000F09E
:10038000E4F9F1E70EB500250026002464E002AA96
:100390000A21B148006807F066F90546012D06D02C
:1003A000022D0DD0032D11D0042D25D119E0AB481D
:1003B000006808B9012000E00020A84908601BE09F
:1003C0000126A748006807F0D9FE15E04FF6FF7335
:1003D0009B480093438802887921002002F048FF5F
:1003E0000AE0062008F06FFA04F086FB062008F009
:1003F000D8F9FFF747FF00BF00BF1EB99848006853
:10040000008998B11F2072490880802310229448E7
:10041000CDE900230068028903233221C02003F0C4
:100420004DF98F480068008900B90026322C0ED1A2
:1004300000241F206649088000231022CDE90023F4
:100440000323884802781E21C02003F037F9601C7E
:10045000C4B20A2000F079F999E708B514E06A46B9
:1004600000217F48006807F0DAFD01207E4908601E
:100470004FF03C0000F069F900207C49C1F8A00170
:100480004FF46B7000F061F9E9E726E078484168C5
:10049000002088477648007D10F0800F1AD07448FD
:1004A000008A67490988884217DA7148408A644996
:1004B0004988884211DA6E48408A78280DDD6C4AF6
:1004C000518A108A4FF4784204F022F9022000F099
:1004D0003CF902E00A2000F038F9D7E70FE0601C91
:1004E000C4B20A2000F031F9082C02D10120614980
:1004F0000860642C03D1002400205E490860EEE708
:1005000070B50446002500BF002007F026F85249C8
:100510000860002007F0FDFC5149086006F0E2F990
:1005200008F0D4FB05460723534A0021AFF25300DD
:1005300007F042FF0623514A0021AFF2B10007F055
:100540003BFF05234E4A0021AFF2F10007F034FFD4
:1005500004234C4A0021AFF2D31007F02DFF0323F0
:10056000494A0021AFF2012007F026FF0A2008F0D7
:10057000AAF9284608F0AEFB70BD10B5092000F0BE
:1005800028FA4FF41651482000F0D4FA482000F021
:1005900089F800F057FB01F0F4F93C484168482025
:1005A000884700F08FFB00F0AFFB314908688047B7
:1005B000FFF768FE06F05DF80A23354A0021AFF226
:1005C000BF0007F0F9FE06F075F9002010BD00002D
:1005D0001A000020576172536869702053544D33DC
:1005E0003200000055434F5349492054455354327B
:1005F0000000000041544F4D40414C49454E544588
:100600004B0000004B4559303A445330204B45597C
:100610005F55503A41444A55535400004B455931B7
:100620003A4245455020204B4559323A434C4541CA
:1006300052000000546F75636820417265610000CC
:10064000A80900204350553A202020250000000032
:1006500053454D3A303030000000002094012342D1
:1006600004000020A4010020A0812142008021423A
:100670002400002094812142DC030020DC040020BF
:10068000DC050020DC070020DC080020AC00002096
:10069000DC02002010B506F002F806F042F906F080
:1006A00019F810BD10B54FF0E022126922F00402D3
:1006B0004FF0E0231A61C31700EB5373DB10324C89
:1006C0002370C31700EB5373D9104FF4FA625143F0
:1006D00002222E4B1A804FF0E022126942F00202F1
:1006E0004FF0E0231A611A465161126942F001028B
:1006F0001A6110BD2DE9F047074600264FF0E020B3
:10070000D0F814902048007807FB00F800BF06F0EE
:1007100019F84FF0E020856911E04FF0E02084697E
:10072000AC420CD0AC4202D2281B064403E0A9EB39
:100730000400284406442546464500D300E0ECE783
:1007400000BF06F044F8BDE8F08770B504461048D5
:100750000078012811D10D480088844206DB0B483F
:10076000008894FBF0F5284608F078F907480088DF
:1007700094FBF0F100FB114084B24FF47A7104FB5A
:1007800001F0FFF7B7FF70BD080000200A0000204D
:10079000BE010020AF4A0A400243AF4B1A607047C7
:1007A0000146072323EA01021202AC4B18684FF6F8
:1007B000FF0300EA0300AA4B40EA030040EA0200FC
:1007C0004FF0E023C3F80C0D70472DE9F047804649
:1007D000894614461D462046E11704EB91714FEA05
:1007E000A10AE11704EB91718910A4EB8101CFB24A
:1007F000042000EBC700C7B22846FFF7D1FFC5F1C0
:10080000040008FA00F60F20284100EA0900064318
:1008100006F00F06202C0CDA924800684FF0010118
:1008200001FA04F140EA01004FF0E021C1F80001B3
:100830000DE08D480068A4F120014FF0010202FA9A
:1008400001F240EA02004FF0E021C1F804018748BC
:1008500050F82A0006FA07F10843844941F82A00B3
:10086000BDE8F08770B504460B46CE1701EB9676CF
:10087000B010CE1701EB9676B610A1EB8606B60641
:10088000350E7B4B9B6943F00103794EB3614FEA10
:10089000B63353F820300F26AE40B343754E46F8BA
:1008A0002030334653F8203004FA05F63343714EB6
:1008B00046F82030704B1E684FF0010303FA01F335
:1008C00046EA03066D4BC3F8006412F0010F0AD02C
:1008D0006B4B1B684FF0010606FA01F643EA06036C
:1008E000664EC6F80C3412F0020F0AD0654B1B6836
:1008F0004FF0010606FA01F643EA06035F4EC6F81A
:10090000083470BD00B5002059490861C860142042
:10091000486100208861C8610846006840F0010015
:1009200008600846406858490840514948600846F0
:100930000068564908404E4908600846006820F49F
:10094000802008600846406820F4FE0048600020CF
:10095000886000214FF00060FFF71CFF00BD10B55C
:100960004B48006840F004004FF0E021C1F8100D42
:100970003F48C06940F080503D49C86145484068E3
:1009800040F48070434948600846006840F0040025
:1009900008600846006840F002000860FFF748FC65
:1009A00010BD2F48001D2D490860704701464906BB
:1009B0002F4A926942F001022D4B9A612F4A5268E8
:1009C00022F0E0622D4B5A601A4652680A435A6080
:1009D000704730B504460025FFF794FF24480068AF
:1009E00040F480302249086000BF21480068400C74
:1009F000FBD04FF480601E494860A01EC4B2084678
:100A0000406840EA844048600846406840F48030CE
:100A100048602148006840F032001F4908601448CF
:100A2000006840F080701249086000BF10480068FC
:100A3000400EFBD00E48406840F002000C49486070
:100A400005E00B484068C0F3870505F00305022D5B
:100A5000F7D130BD80FFFF1F08ED00E00CED00E096
:100A60000000FA0500E100E004E100E000E400E03D
:100A70000010024008000140000401400000014055
:100A80000C040140080401400000FFF8FFFFF6FEDF
:100A900010ED00E00070004000200240014600BF61
:100AA000704700BF5D4A128812F0400FFAD0C2B200
:100AB0005B4B1A80704710B505F0F1FD5748008870
:100AC00010F0200F33D056480088C4B25548008833
:100AD00010F4004F2BD15348008810F4804F0CD0F5
:100AE0000A2C03D000204F49088020E04D480088A0
:100AF00040F400404B49088019E00D2C06D14948CC
:100B0000008840F480404749088010E0454800884C
:100B1000C0F30D0044490C5442480088401C414930
:100B2000088008460088C72801DD0020088005F0FD
:100B3000D1FD10BD2DE9F05F05460E46300109F0EC
:100B4000F3F88146394905FB01F009F0EDF88246DA
:100B5000494608F0D3FF0746384609F0ADF884B29D
:100B6000204609F0E1F88346394609F0C4F9824687
:100B70004FF0834109F0ECF8814609F09DF880467A
:100B8000240104EB080084B22948806940F0040085
:100B9000274988610846806940F48040886125487B
:100BA000006820F47F602449C1F804080846D0F8A2
:100BB000040840F40B60C1F804081D48C06840F404
:100BC00080401B49C8600846C06820F48040C86067
:100BD0001A48A0F808481A48008842F20C0140EA76
:100BE00001001649A1F80C080846B0F80C0840F4BA
:100BF0008070A1F80C080846B0F80C0840F02000FE
:100C00000F4908804FF002034FF025024FF0030117
:100C10000846FFF7DAFDBDE8F09F0000003801400C
:100C2000043801400C000020E008002040420F0082
:100C30000010024004080140000001400030014063
:100C40000C3801401B48806940F008001949886150
:100C50000846806940F0400088611748006820F429
:100C600070001649C1F8000C0846D0F8000C40F49A
:100C70004010C1F8000C0846D0F80C0C40F02000E1
:100C8000C1F80C0C0E48D0F8000820F470000C4994
:100C9000C1F800080846D0F8000840F44010C1F838
:100CA00000080846D0F80C0840F02000C1F80C08F5
:100CB0007047000000100240000C0140000001409D
:100CC000001001400C48806940F008000A49886122
:100CD0000A48006820F00F000949C1F8040C0846D2
:100CE000D0F8040C40F00300044908604FF0000005
:100CF000044908607047000000100240040C0140E5
:100D000000000140A08121423A48806940F004007F
:100D1000384988610846806940F04000886136485B
:100D2000006820F00F003549C1F800080846D0F8E7
:100D3000000840F00800C1F8000831480068314957
:100D400000EA01003049C1F800082D4800682F4929
:100D500040EA01002C49C1F800080846D0F80C0808
:100D600040F01C00C1F80C08704710B5044614B1DF
:100D70000120274908702648007838B325480068C4
:100D800048B12548006830B12448006818B12448AB
:100D9000006801281AD10A20FFF7D7FC00201C495F
:100DA00008701C48006808B9012010BD1A48006886
:100DB00008B90220F9E71948006808B90320F4E7E8
:100DC00017480068012813D10420EEE71148006895
:100DD00001280DD110480068012809D10F4800688A
:100DE000012805D10E48006810B901200849087093
:100DF0000020DAE700100240000801400000014036
:100E000000180140FF00F0FF0010014000880800BA
:100E100014000020100123420C0123420801234248
:100E20000001214210B50A20FFF78FFC3648006808
:100E300038B93648006808B9012000E0002033497D
:100E4000086004203249086010BD10B50A20FFF781
:100E50007CFC3048006838B92F48006808B9012088
:100E600000E000202C49086008202949086010BDD6
:100E700010B50A20FFF769FC2848006880B92348AC
:100E8000006808B9012000E00020204908602448DB
:100E9000D0F8940108B9012000E000201E49086044
:100EA00010201B49086010BD10B5FFF72DFF02226E
:100EB00000210846FFF7D6FC012202210420FFF79B
:100EC000D1FC012203210420FFF7CCFC01220421E4
:100ED0000846FFF7C7FC0223062203211846FFF746
:100EE00074FC0223082219461846FFF76EFC022301
:100EF000092201211846FFF768FC02230A2200217B
:100F00001846FFF762FC10BD08012342948121427C
:100F1000140401400C012342940123421001234296
:100F20000000234245F25552394B1A601A46506070
:100F300091604AF6AA221A604CF6CC421A607047B9
:100F40004AF6AA2032490860704770B504460D463B
:100F500016463048C06940F400602E49C8612E49E9
:100F6000097804EA01002C4908702C48006840EA1E
:100F7000C6102B49C1F8040C284800684FF6807150
:100F800000EA01002649C1F8040C0846D0F8040C18
:100F900040EA0500C1F8040C224800681E4909789F
:100FA00040EA01001E49C1F8000C0846D0F8000CC8
:100FB00040F080001B4908604FF002034FF0000230
:100FC0004FF003011846FFF700FC00201449C1F858
:100FD000080C0846D0F8040C40F400700F49086073
:100FE00070BD00F07F010F4A1160704700B50A48DC
:100FF0000078FFF7F6FF00200B4908600B48D0F897
:10100000940108B9012000E000200949086000BDF2
:10101000003000400010024015000020042C004069
:1010200000200040002C0040082C0040000023421B
:1010300094012342CC48008810F0010F07D0CB4820
:10104000006808B9012000E00020C8490860C648CF
:10105000008820F001004FF08041A1F81004704793
:1010600070B504460D46C248C06940F00200C04950
:10107000C861C04804804FF08040A0F82854B0F800
:101080000C0440F001004FF08041A1F80C04084628
:10109000B0F8000440F00100A1F800044FF0020392
:1010A0004FF01D024FF003014FF00100FFF78DFBE1
:1010B00070BDAF4AD26942F00202AD4BDA611A4606
:1010C000926942F008029A61AB4A126822F47002F7
:1010D000AA4BC3F8002C1A46D2F8002C42F4300276
:1010E000C3F8002CA24A926942F00102A04B9A6117
:1010F000A24A526822F44062A04B5A601A465268D3
:1011000042F400625A604FF08042A2F82C04A2F828
:101110002814B2F8182442F4E0424FF08043A3F8B8
:1011200018241A46B2F8182442F40062A3F81824CE
:101130001A46B2F8202442F01002914B1A804FF464
:1011400000424FF08043A3F800244FF08042B2F8F1
:10115000002442F001028B4B1A80704770B50446A0
:101160000D468348C06940F008008149C8610846BF
:10117000806940F0040088618348006820F00F0017
:101180007E49C1F800080846D0F8000840F0080081
:10119000C1F800087D480068C1F80C084FF0804095
:1011A000A0F82C4CA0F8285CB0F8180C40F0010016
:1011B0004FF08041A1F8180C75480088A1F8180C70
:1011C00073480088A1F8180C72480088A1F8200C18
:1011D0000846B0F8200C40F00100A1F8200C0846A9
:1011E000B0F80C0C40F00200A1F80C0C0846B0F866
:1011F0000C0C40F00100A1F80C0C0846B0F8000CF3
:1012000040F00100A1F8000C4FF002034FF0320251
:101210004FF000011846FFF7D8FA70BD5E49088804
:101220005E49097811F0800F4ED110F0010F1AD0ED
:101230005A49097811F0400F15D05849097801F042
:101240003F013F290AD15549097841F08001534AAD
:1012500011704FF6FF71524A118004E04F4909782E
:10126000491C4E4A117010F0020F2DD04B490978DD
:1012700011F0400F12D04949097841F08001474AE6
:10128000117048490988464A11804FF08041B1F8F1
:10129000201C21F002013F4A118015E000213F4A45
:1012A00011703F4A11803D49097841F040013B4AA5
:1012B000117000213C4A11804FF08041B1F8201C90
:1012C00041F00201334A11800021334A11807047F6
:1012D000274AD26942F00402254BDA611A46926924
:1012E00042F008029A61244A126822F07F42234B9E
:1012F000C3F8002C1A46D2F8002C42F09642C3F8EC
:10130000002C4FF08042A2F82C08A2F82818B2F85E
:10131000182842F070024FF08043A3F818281A46AC
:10132000B2F8182842F00802A3F818281A46B2F8B2
:10133000202842F00202A3F820281A46B2F82028FA
:1013400042F00102194B1A804FF080024FF08043A7
:10135000A3F800284FF08042B2F8002842F00102C2
:10136000134B1A8070470000100400409401234280
:10137000001002402C040040000C0140000001401D
:101380002004004000040040000801400C08014017
:10139000180C0040200C0040100C004016000020EB
:1013A00018000020340C0040240C004020080040AD
:1013B00000080040FD4908807047FD4908807047DB
:1013C000FB4800887047F94A10804FF0D842A2F8D5
:1013D0000018704710B504462046FFF7EBFF0520C4
:1013E000FFF788F9FFF7ECFF10BDF248C079EF492D
:1013F00008807047EE490880704730B5014601F01B
:101400001F04C1F34513CA0AE50205EB4315154451
:10141000A8B230BD00BF0100A0F10102D0B2FAD1E4
:10142000704710B503460C46E2488088A0F513418A
:10143000413905D0DF488088A0F5D041043914D166
:10144000DC49087AFFF7B6FF1812FFF7B6FFD8B2EB
:10145000FFF7B3FFD749487AFFF7ACFF2012FFF739
:10146000ACFFE0B2FFF7A9FF12E0D2488079012873
:1014700004D1D0480088401EC01A83B2CD49087AF2
:101480001946FFF7A0FFCB49487A2146FFF79BFF9B
:1014900010BD2DE9F04105460E4600240027A04668
:1014A000C4480088A84203DDC2484088B04202DC3C
:1014B0000020BDE8F08131462846FFF7B2FFBD4865
:1014C0008088A0F51341413905D0BA488088A0F53D
:1014D000D041043903D12E20FFF76CFF02E0222017
:1014E000FFF768FFB3488088A0F51341203902D187
:1014F0000220FFF78FFFAE48008800B100240220D1
:10150000FFF788FFAA480488AA488088A0F51341FD
:10151000413909D10220FFF77DFFA548B0F80080CE
:10152000E7B24FEA072707E0A2488088A0F5D0413C
:10153000043901D19E4804889E488088A0F5134153
:10154000253917D09B488088A0F58A41353911D0BC
:1015500098488088A0F58A4131390BD09548808819
:10156000A0F50941893905D092488088A0F5354118
:10157000053901D120469CE78E488088A0F51341AB
:10158000413907D1E012C002B91240EA411040EAE5
:10159000E8208EE72046FFF730FF8AE700B5854850
:1015A0008088A0F51341413905D082488088A0F594
:1015B000D041043903D12920FFF7FCFE04E040F2BA
:1015C00073110720FFF7FFFE00BD00B57948808842
:1015D000A0F51341413905D076488088A0F5D04167
:1015E000043903D12820FFF7E5FE03E0002107209E
:1015F000FFF7E9FE00BD70B50446002300266D48E4
:10160000807901281ED16B488088A0F5D04104392B
:1016100018D0082C15D2DFE804F00406080A0C0ED6
:10162000101206240DE007240BE0042409E0052431
:1016300007E0012405E0002403E0032401E0022484
:1016400000BF00BF5B488088A0F51341413905D039
:1016500058488088A0F5D04104397CD1082C1CD290
:10166000DFE804F00406090C0F12151800BF14E09F
:1016700043F0800311E043F040030EE043F0C00369
:101680000BE043F0200308E043F0600305E043F083
:10169000A00302E043F0E00300BF00BF362643F0A2
:1016A000080344488088A0F5D041043901D143F0B3
:1016B000020319463046FFF786FE13F0200F0DD0C7
:1016C0003C4800883B494988884214DA39480588F3
:1016D000408838490880084645800CE03548008835
:1016E00034494988884206DD3248058840883149B6
:1016F0000880084645802F49087AFFF75BFE0020E6
:10170000FFF75BFE0020FFF758FE2A490988491EB3
:10171000C1F30F20FFF751FE26490988491EC8B2C0
:10172000FFF74BFE2349487AFFF744FE0020FFF7FE
:1017300044FE0020FFF741FE1E494988491EC1F3BF
:101740000F20FFF73AFE1B494988491EC8B2FFF730
:1017500034FE38E0FFE7082C1CD2DFE804F0040771
:101760000A0D0F12151843F0300313E043F0100375
:1017700010E043F020030DE000BF0BE043F038031E
:1017800008E043F0280305E043F0180302E043F0CB
:10179000080300BF00BF07488088A0F509418939C8
:1017A0000AD1112646F240010B4308E0FE07006C07
:1017B0000008006CA8090020032643F48053194652
:1017C0003046FFF700FE70BD30B504460D46294691
:1017D0002046FFF726FEFFF708FEFF480088FF4976
:1017E000088030BD30B503460C461546FC4880885D
:1017F000A0F51341413905D0F9488088A0F5D041C2
:10180000043914D1F649087AFFF7D4FD1812FFF70E
:10181000D4FDD8B2FFF7D1FDF149487AFFF7CAFDF0
:101820002012FFF7CAFDE0B2FFF7C7FD12E0EC4857
:101830008079012804D1EA480088401EC01A83B28A
:10184000E749087A1946FFF7BEFDE549487A21467F
:10185000FFF7B9FDE248C079E24908804FF0D8406F
:10186000A0F8005830BD10B50446B4BB0020DC49D8
:101870008871F02008804FF4A07048800846808866
:10188000A0F51341413905D0D5488088A0F5D04155
:10189000043914D12C20D249C8712A2008722B2077
:1018A000487208468088A0F5D04104394FD14FF4E2
:1018B000A070CB4908804FF4F070488047E0C848DA
:1018C0008088A0F50941893908D12220C449C8710E
:1018D0004E2008724F20487239E007E02220C049AC
:1018E000C871202008722120487230E0BC488088EE
:1018F000A0F5D04104392AD00120B94988714FF4AC
:10190000A0700880F020488008468088A0F5134128
:10191000413907D12C20B249C8712A2008722B20E6
:10192000487214E0AE488088A0F50941893907D192
:101930002220AB49C8714F2008724E20487206E041
:101940002220A749C8712120087220204872002057
:10195000FFF751FE10BD70B504460026A04805886B
:101960004088454300210846FFF75BFDFFF73DFD3A
:1019700000BF03E09948048006F10106AE42F9D3A6
:1019800070BD10B59848406940F480709649486130
:101990000846806940F0080088610846806940F088
:1019A000200088610846806940F040008861084650
:1019B000806940F4807088618C48006820F00F00D6
:1019C0008B49C1F8000C0846D0F8000C40F0030029
:1019D000C1F8000C87480068874900EA0100874980
:1019E000C1F8040483480068854940EA010083493E
:1019F000C1F804040846D0F8000400F0FF20C1F844
:101A000000040846D0F8000440F0BB10C1F8000400
:101A10000846D0F804084FF00000C1F80408084652
:101A2000D0F8040840F0BB30C1F804080846D0F8EC
:101A3000000820F07040C1F800080846D0F80008FF
:101A400040F03040C1F800086E48406820F4702033
:101A50006C4948600846406840F4302048600846B9
:101A6000006820F00F0008600846006840F00B0096
:101A700008604FF000004FF020418861C861C1F854
:101A80001C010846806940F48050886108468069DE
:101A900040F4804088610846806940F01000886109
:101AA0000846C069C8610846C06940F00100C861C5
:101AB0000846C06940F47060C86153480068C1F8C6
:101AC0001C0151480068C1F81C010846D0F81C01EF
:101AD00040F44070C1F81C010846806940F00100E4
:101AE00088614FF03200FEF730FE01210020FFF741
:101AF0006AFC3220FEF729FE0020FFF76BFC384914
:101B0000888008468088FF280ADB08468088A0F580
:101B10007F41FF3904D032488088B0F5134F45D15A
:101B2000D320FFF747FCFFF74BFCFFF749FCFFF71B
:101B300047FC2B498880084680880006000C888076
:101B4000FFF73EFC264989880843254988800846D6
:101B50008088A0F51341413918D0BF20FFF72AFC37
:101B6000FFF72EFCFFF72CFCFFF72AFCFFF728FC01
:101B70001B498880084680880006000C8880FFF793
:101B80001FFC1749898808431549888014488088B4
:101B9000A0F51341413909D011488088A0F5D04102
:101BA000043903D049F241300D4988800C488188BE
:101BB00016A007F0E7F80A488088A0F513414139DC
:101BC0007ED1CF20FFF7F6FB0020FFF7F6FBC12008
:101BD000FFF7F3FB302021E01A0000200008006C22
:101BE000A8090020FE07006C00100240000C014014
:101BF000000001400414014000F0FF00001001400B
:101C0000BB0B00BB002001401C0100A0204C434442
:101C10002049443A25780D0A00000000FFF7CDFB6B
:101C2000ED20FFF7C7FB6420FFF7C7FB0320FFF79A
:101C3000C4FB1220FFF7C1FB8120FFF7BEFBE820A9
:101C4000FFF7B8FB8520FFF7B8FB1020FFF7B5FBC7
:101C50007A20FFF7B2FBCB20FFF7ACFB3920FFF770
:101C6000ACFB2C20FFF7A9FB0020FFF7A6FB3420DC
:101C7000FFF7A3FB0220FFF7A0FBF720FFF79AFB7B
:101C80002020FFF79AFBEA20FFF794FB0020FFF7E4
:101C900094FB0020FFF791FBC020FFF78BFB1B207C
:101CA000FFF78BFBC120FFF785FB0120FFF785FBCA
:101CB000C520FFF77FFB3020FFF77FFB302000E0DF
:101CC000B9E0FFF77AFBC720FFF774FBB720FFF7F7
:101CD00074FB3620FFF76EFB4820FFF76EFB3A20BF
:101CE000FFF768FB5520FFF768FBB120FFF762FBA9
:101CF0000020FFF762FB1A20FFF75FFBB620FFF71B
:101D000059FB0A20FFF759FBA220FFF756FBF220F0
:101D1000FFF750FB0020FFF750FB2620FFF74AFBA0
:101D20000120FFF74AFBE020FFF744FB0F20FFF7FD
:101D300044FB2A20FFF741FB2820FFF73EFB082049
:101D4000FFF73BFB0E20FFF738FB0820FFF735FBC2
:101D50005420FFF732FBA920FFF72FFB4320FFF7AA
:101D60002CFB0A20FFF729FB0F20FFF726FB0020A2
:101D7000FFF723FB0020FFF720FB0020FFF71DFBF0
:101D80000020FFF71AFBE120FFF714FB0020FFF70C
:101D900014FB1520FFF711FB1720FFF70EFB0720A0
:101DA000FFF70BFB1120FFF708FB0620FFF705FBF1
:101DB0002B20FFF702FB5620FFF7FFFA3C20FFF72E
:101DC000FCFA0520FFF7F9FA1020FFF7F6FA0F20CA
:101DD000FFF7F3FA3F20FFF7F0FA3F20FFF7EDFAA5
:101DE0000F20FFF7EAFA2B20FFF7E4FA0020FFF7B5
:101DF000E4FA0020FFF7E1FA0120FFF7DEFA3F20C6
:101E0000FFF7DBFA2A20FFF7D5FA0020FFF7D5FA13
:101E10000020FFF7D2FA0020FFF7CFFAEF20FFF7FC
:101E2000CCFA1120FFF7C6FA7820FEF78EFC2920A5
:101E3000FFF7C0FA8AE2FF488088A0F5D041043954
:101E40007ED11120FFF7B6FA1420FEF77EFCD020D9
:101E5000FFF7B0FA0720FFF7B0FA4220FFF7ADFA1C
:101E60001D20FFF7AAFAD120FFF7A4FA0020FFF700
:101E7000A4FA1A20FFF7A1FA0920FFF79EFAD22050
:101E8000FFF798FA0120FFF798FA2220FFF795FA5A
:101E9000C020FFF78FFA1020FFF78FFA3B20FFF7E3
:101EA0008CFA0020FFF789FA0220FFF786FA11204A
:101EB000FFF783FAC520FFF77DFA0320FFF77DFACD
:101EC000C820FFF777FA0020FFF777FA2520FFF701
:101ED00074FA2120FFF771FA0520FFF76EFA00204F
:101EE000FFF76BFA0A20FFF768FA6520FFF765FA3B
:101EF0002520FFF762FA7720FFF75FFA5020FFF7FF
:101F00005CFA0F20FFF759FA0020FFF756FAF82085
:101F1000FFF750FA0120FFF750FAFE20FFF74AFAC8
:101F20000020FFF74AFA0220FFF747FA2020FFF7C8
:101F300041FA3620FFF73EFA0820FFF73EFA00E0AC
:101F40002AE03A20FFF736FA5520FFF736FA2B2021
:101F5000FFF730FA0020FFF730FA0020FFF72DFAE4
:101F60000120FFF72AFA3F20FFF727FA2A20FFF780
:101F700021FA0020FFF721FA0020FFF71EFA0120C6
:101F8000FFF71BFADF20FFF718FA7820FEF7DDFBDA
:101F90002920FFF70FFAD9E1A6488088A0F5134160
:101FA00025397ED147F6F001E520FFF70CFA4FF412
:101FB00080710120FFF707FA4FF4E0610220FFF77C
:101FC00002FA41F230010320FFF7FDF9002104205D
:101FD000FFF7F9F940F202210820FFF7F4F9002198
:101FE0000920FFF7F0F900210A20FFF7ECF90021A2
:101FF0000C20FFF7E8F900210D20FFF7E4F900219C
:102000000F20FFF7E0F900211020FFF7DCF907218E
:102010001120FFF7D8F900211220FFF7D4F9002191
:102020001320FFF7D0F900210720FFF7CCF941F288
:1020300090611020FFF7C7F940F227211120FFF728
:10204000C2F99D211220FFF7BEF94FF4C8511320A9
:10205000FFF7B9F925212920FFF7B5F90D212B202C
:10206000FFF7B1F907213020FFF7ADF940F2033156
:102070003120FFF7A8F903213220FFF7A4F940F23D
:1020800006213520FFF79FF908213620FFF79BF93D
:1020900040F206413720FFF796F94FF4417138209E
:1020A00000E057E0FFF78FF907213920FFF78BF9A0
:1020B00040F202613C20FFF786F908213D20FFF73E
:1020C00082F900215020FFF77EF9EF215120FFF720
:1020D0007AF900215220FFF776F940F23F115320A0
:1020E000FFF771F94FF427416020FFF76CF90121E8
:1020F0006120FFF768F900216A20FFF764F90021E9
:102100008020FFF760F900218120FFF75CF90021B2
:102110008220FFF758F900218320FFF754F90021AE
:102120008420FFF750F900218520FFF74CF910219A
:102130009020FFF748F94FF4C0619220FFF743F970
:1021400040F233110720FFF73EF922210020FFF76C
:102150003AF9FBE037488088A0F51341283968D167
:1021600041F28F01EC20FFF72EF941F23421EF20EC
:10217000FFF729F94FF480710120FFF724F94FF49C
:10218000E0610220FFF71FF941F230010320FFF761
:102190001AF900210420FFF716F940F20221082065
:1021A000FFF711F900210920FFF70DF900210A209E
:1021B000FFF709F901210C20FFF705F900210D2097
:1021C000FFF701F900210F20FFF7FDF80021102093
:1021D000FFF7F9F807211120FFF7F5F80021122089
:1021E000FFF7F1F800211320FFF7EDF80121072098
:1021F000FFF7E9F83220FEF7A8FA41F290411020EB
:10220000FFF7E1F840F227211120FFF7DCF8322038
:10221000FEF79BFA8A211220FFF7D5F83220FEF74D
:1022200094FA4FF4D0511320FFF7CDF8062129205E
:1022300002E08CE0A8090020FFF7C5F80D212B2053
:10224000FFF7C1F83220FEF780FA00212020FFF7C7
:10225000BAF800212120FFF7B6F83220FEF775FA10
:1022600000213020FFF7AFF840F204613120FFF782
:10227000AAF840F205313220FFF7A5F800213520F9
:10228000FFF7A1F840F609413620FFF79CF84FF41C
:1022900001713720FFF797F840F201313820FFF73E
:1022A00092F840F207713920FFF78DF800213C20A9
:1022B000FFF789F840F60A213D20FFF784F8322025
:1022C000FEF743FA00215020FFF77DF8EF2151205F
:1022D000FFF779F800215220FFF775F840F23F111F
:1022E0005320FFF770F84FF427416020FFF76BF899
:1022F00001216120FFF767F800216A20FFF763F8EA
:1023000000218020FFF75FF800218120FFF75BF8B4
:1023100000218220FFF757F800218320FFF753F8B0
:1023200000218420FFF74FF800218520FFF74BF8AC
:1023300010219020FFF747F84FF4C0619220FFF77B
:1023400042F840F233110720FFF73DF848E2FF481A
:102350008088A0F5134120397ED10846FFF733F875
:102360004FF480710120FFF72EF84FF4E061022056
:10237000FFF729F841F230010320FFF724F800218C
:102380000420FFF720F840F202210820FFF71BF895
:1023900000210920FFF717F800210A20FFF713F8A2
:1023A00001210C20FFF70FF800210D20FFF70BF89B
:1023B00000210F20FFF707F83220FEF7C6F940F2A0
:1023C00001110720FEF7FFFF3220FEF7BEF94FF4A0
:1023D00086511020FEF7F7FF07211120FEF7F3FFCB
:1023E0004FF488711220FEF7EEFF4FF43061132096
:1023F000FEF7E9FF00212920FEF7E5FF44F2100176
:102400002B20FEF7E0FF00215020FEF7DCFFEF213C
:102410005120FEF7D8FF00215220FEF7D4FF40F2F2
:102420003F115320FEF7CFFF4FF41C516020FEF701
:10243000CAFF01216120FEF7C6FF00216A20FEF7D6
:10244000C2FF00218020FEF7BEFF00218120FEF7A1
:10245000BAFF0021822000E02CE0FEF7B4FF00214B
:102460008320FEF7B0FF00218420FEF7ACFF00219F
:102470008520FEF7A8FF10219020FEF7A4FF002181
:102480009220FEF7A0FF01219320FEF79CFF4FF45E
:1024900088719520FEF797FF00219720FEF793FFA4
:1024A00000219820FEF78FFF40F273110720FEF7FE
:1024B0008AFF95E1A5488088A0F5134131397DD187
:1024C00041F21401E720FEF77EFF4FF480710120F6
:1024D000FEF779FF4FF400710220FEF774FF41F21E
:1024E00038010320FEF76FFF40F202210820FEF7BB
:1024F0006AFF00210920FEF766FF00210A20FEF78F
:1025000062FF00210C20FEF75EFF00210D20FEF788
:102510005AFF00210F20FEF756FF00211020FEF782
:1025200052FF07211120FEF74EFF00211220FEF777
:102530004AFF00211320FEF746FFC820FEF705F9E9
:1025400041F290611020FEF73EFF40F2272111205A
:10255000FEF739FF3220FEF7F8F80C211220FEF7C3
:1025600032FF3220FEF7F1F84FF400611320FEF73E
:102570002AFF11212920FEF726FF0B212B20FEF731
:1025800022FF3220FEF7E1F800212020FEF71BFF9A
:1025900040F23F112120FEF716FF00213020FEF708
:1025A00012FF4FF483713120FEF70DFF002132201E
:1025B000FEF709FF4FF40171352000E064E0FEF7FB
:1025C00002FF41F20A613620FEF7FDFE40F207717C
:1025D0003720FEF7F8FE4FF483713820FEF7F3FE44
:1025E00040F207713920FEF7EEFE40F202413C2036
:1025F000FEF7E9FE40F60F413D20FEF7E4FE002124
:102600005020FEF7E0FEEF215120FEF7DCFE002116
:102610005220FEF7D8FE40F23F115320FEF7D3FEC2
:102620004FF41C516020FEF7CEFE01216120FEF721
:10263000CAFE00216A20FEF7C6FE00218020FEF7B8
:10264000C2FE00218120FEF7BEFE00218220FEF79F
:10265000BAFE00218320FEF7B6FE00218420FEF79B
:10266000B2FE00218520FEF7AEFE10219020FEF77D
:10267000AAFE4FF4C0619220FEF7A5FE40F233118E
:102680000720FEF7A0FEABE030488088A0F5A84107
:1026900008397DD14FF480710120FEF794FE4FF48C
:1026A000E0610220FEF78FFE41F230010320FEF7C9
:1026B0008AFE00210420FEF786FE40F20721082052
:1026C000FEF781FE00210920FEF77DFE00210A2091
:1026D000FEF779FE00210C20FEF775FE00210D208B
:1026E000FEF771FE00210F20FEF76DFE1420FEF7AD
:1026F0002CF841F2B0611020FEF765FE0121112097
:10270000FEF761FE01211720FEF75DFE4FF49C717C
:102710001220FEF758FE4FF400611320FEF753FE1F
:1027200009212920FEF74FFE09212A20FEF74BFE42
:102730000021A420FEF747FE00215020FEF743FEB3
:10274000EF215120FEF73FFE002101E0A809002003
:102750005220FEF738FE40F23F115320FEF733FEC1
:102760004FF41C516020FEF72EFE01216120FEF780
:102770002AFE00216A20FEF726FE00218020FEF7B7
:1027800022FE00218120FEF71EFE0021822000E0B3
:1027900027E0FEF718FE00218320FEF714FE00213B
:1027A0008420FEF710FE00218520FEF70CFE132189
:1027B0009020FEF708FE00219220FEF704FE032180
:1027C0009320FEF700FE4FF488719520FEF7FBFD85
:1027D00040F273110720FEF7F6FD3220FDF7B5FF3A
:1027E00025E2FF488088A0F5A85105397ED1072051
:1027F000FEF7E9FD3220FDF7A8FF4FF48E7112209D
:10280000FEF7E1FD0121A420FEF7DDFD0F210820E8
:10281000FEF7D9FD08210A20FEF7D5FD08210D207D
:10282000FEF7D1FD40F207713020FEF7CCFD072105
:102830003120FEF7C8FD40F203613220FEF7C3FDF0
:102840004FF4E0613320FEF7BEFD40F20221342058
:10285000FEF7B9FD02213520FEF7B5FD41F60F71F7
:102860003620FEF7B0FD40F207713720FEF7ABFDD2
:1028700000213820FEF7A7FD00213920FEF7A3FD37
:1028800040F207713A20FEF79EFD00213B20FEF743
:102890009AFD07213C20FEF796FD00213D20FEF722
:1028A00092FD3220FDF751FF01210720FEF78BFD3D
:1028B00001211720FEF787FD3220FDF746FF4FF478
:1028C000BD511020FEF77FFD40F217211120FEF7C9
:1028D0007AFD4FF48F711220FEF775FD4FF4706191
:1028E0001320FEF770FD00212A2000E093E0FEF7A0
:1028F0006AFD0A212920FEF766FD4FF49F71122020
:10290000FEF761FD00215020FEF75DFDEF21512013
:10291000FEF759FD00215220FEF755FD40F23F1110
:102920005320FEF750FD4FF41C516020FEF74BFD85
:1029300001216120FEF747FD00216A20FEF743FDDB
:1029400000218020FEF73FFD00218120FEF73BFDA6
:1029500000218220FEF737FD00218320FEF733FDA2
:1029600000218420FEF72FFD00218520FEF72BFD9E
:1029700013219020FEF727FD4FF440719220FEF7BF
:1029800022FD05219320FEF71EFD00219520FEF774
:102990001AFD00219720FEF716FD00219820FEF772
:1029A00012FD4FF480710120FEF70DFD4FF4E06140
:1029B0000220FEF708FD41F238010320FEF703FD77
:1029C00000210420FEF7FFFC00210C20FEF7FBFC99
:1029D00000210F20FEF7F7FC00212020FEF7F3FC7A
:1029E00000212120FEF7EFFC21210720FEF7EBFC60
:1029F0001420FDF7AAFE61210720FEF7E4FC142055
:102A0000FDF7A3FE40F273110720FEF7DCFC142053
:102A1000FDF79BFE0BE172488088A0F53541053932
:102A20007DD10846FEF7CFFC00210846FEF7CBFC1F
:102A300000210846FEF7C7FC00210846FEF7C3FC4C
:102A40000121A420FEF7BFFC1420FDF77EFE4FF409
:102A50001C516020FEF7B7FC40F202210820FEF76F
:102A6000B2FC4FF405713020FEF7ADFC43F2157156
:102A70003120FEF7A8FC40F204613220FEF7A3FCEF
:102A800040F616613320FEF79EFC42F211213420FD
:102A9000FEF799FC4FF4A8513520FEF794FC48F25C
:102AA00007513620FEF78FFC41F207413720FEF731
:102AB0008AFC41F203413820FEF785FC20213920B1
:102AC000FEF781FC1A219020FEF77DFC00211020EA
:102AD000FEF779FC07211120FEF775FC002112207A
:102AE000FEF771FC00211320FEF76DFC1420FDF7AA
:102AF0002CFE4FF4E6611020FEF765FC40F2371122
:102B00001120FEF760FC1420FDF71FFE4FF4DC716E
:102B10001220FEF758FC1420FDF717FE00E087E0B6
:102B20004FF470611320FEF74EFC80212A20FEF73F
:102B30004AFC48212920FEF746FC1420FDF705FE3B
:102B40004FF480710120FEF73EFC4FF4E06102205B
:102B5000FEF739FC41F238010320FEF734FC40F265
:102B600002210820FEF72FFC00210A20FEF72BFC93
:102B700000210C20FEF727FC00210D20FEF723FC8E
:102B800030210E20FEF71FFC00215020FEF71BFC19
:102B9000EF215120FEF717FC00215220FEF713FC15
:102BA00040F23F115320FEF70EFC4FF41C51602001
:102BB000FEF709FC01216120FEF705FC00216A20D7
:102BC000FEF701FC11219020FEF7FDFB4FF4C061E0
:102BD0009220FEF7F8FB40F20241932002E0000051
:102BE000A8090020FEF7EFFB02219420FEF7EBFB83
:102BF0001420FDF7AAFD01210720FEF7E4FB1420B5
:102C0000FDF7A3FD61210720FEF7DDFB40F2731104
:102C10000720FEF7D8FB00212020FEF7D4FB00217F
:102C20002120FEF7D0FB22210020FEF7CCFB14E38D
:102C3000FF488088A0F5454105397DD10846FEF75B
:102C4000C2FB00210846FEF7BEFB1420FDF77DFD08
:102C500000210846FEF7B7FB00210846FEF7B3FB4C
:102C600000210846FEF7AFFB00210846FEF7ABFB4C
:102C70000121A420FEF7A7FB1420FDF766FD4FF409
:102C80001C516020FEF79FFB40F606010820FEF76E
:102C90009AFB40F203713020FEF795FB01213120B1
:102CA000FEF791FB04213220FEF78DFB4FF481717A
:102CB0003320FEF788FB4FF440713420FEF783FB8E
:102CC00040F203113520FEF77EFB1F213620FEF770
:102CD0007AFB40F203713720FEF775FB01213820A3
:102CE000FEF771FB04213920FEF76DFB15219020C2
:102CF000FEF769FB4FF482611020FEF764FB40F29F
:102D000047211120FEF75FFB4FF4DE711220FEF722
:102D10005AFB4FF460611320FEF755FB7820FDF756
:102D200014FD4FF480710120FEF74DFB4FF400714C
:102D30000220FEF748FB00E050E041F230010320A2
:102D4000FEF741FB08210A20FEF73DFB00210C2085
:102D5000FEF739FB20210E20FEF735FB00210F2066
:102D6000FEF731FB00212020FEF72DFB0021212062
:102D7000FEF729FB3D212A20FEF725FB1420FDF755
:102D8000E4FC2D212920FEF71EFB00215020FEF738
:102D90001AFB4DF2EF015120FEF715FB00215220E6
:102DA000FEF711FB40F23F115320FEF70CFB002110
:102DB0006120FEF708FB00216A20FEF704FB4FF4B8
:102DC00040719220FEF7FFFA05219320FEF7FBFAEF
:102DD0004FF480710720FEF7F6FA3EE294488088AF
:102DE000A0F5094189397DD101210020FEF7EBFAD8
:102DF0004AF6A4010320FEF7E6FA00210C20FEF7B4
:102E0000E2FA40F60C010D20FEF7DDFA4FF42C51EA
:102E10000E20FEF7D8FAB0211E20FEF7D4FA42F6B3
:102E20003F310120FEF7CFFA4FF4C0610220FEF7D8
:102E3000CAFA00211020FEF7C6FA46F278011120E6
:102E4000FEF7C1FA00210520FEF7BDFA0021062099
:102E5000FEF7B9FA4EF61C711620FEF7B4FA0321FC
:102E60001720FEF7B0FA40F233210720FEF7ABFA45
:102E700000210B20FEF7A7FA00210F20FEF7A3FA8E
:102E800000214120FEF79FFA00214220FEF79BFA25
:102E900000214820FEF797FA40F23F114920FEF743
:102EA00092FA00214A20FEF78EFA00214B20FEF70D
:102EB0008AFA4FF46F414420FEF785FA002145203D
:102EC000FEF781FA40F23F114620FEF77CFA40F20D
:102ED00007713020FEF777FA4FF401713120FEF7C9
:102EE00072FA00E03DE04FF401713220FEF76BFA18
:102EF00040F202513320FEF766FA40F207513420C7
:102F0000FEF761FA4FF401713520FEF75CFA4FF4D9
:102F100001713620FEF757FA40F202513720FEF7D2
:102F200052FA40F202313A20FEF74DFA40F20231F5
:102F30003B20FEF748FA00212320FEF744FA002147
:102F40002420FEF740FA4FF400412520FEF73BFA1B
:102F500000214F20FEF737FA00214E20FEF733FA0A
:102F60007BE133488088A0F58A4131397ED1012147
:102F70000020FEF728FA0A20FDF7E7FB41F228615E
:102F80001020FEF720FA0E211220FEF71CFA40F660
:102F900039211320FEF717FA0A20FDF7D6FB40214E
:102FA0001120FEF710FA50211520FEF70CFA0A2026
:102FB000FDF7CBFB1E211220FEF705FA0A20FDF7D4
:102FC000C4FB4FF4B1511020FEF7FDF942F6392150
:102FD0001320FEF7F8F90A20FDF7B7FB4FF48071D4
:102FE0000120FEF7F0F94FF440710220FEF7EBF9F3
:102FF00041F238010320FEF7E6F940F202210820F1
:10300000FEF7E1F908210A20FEF7DDF90021302062
:10301000FEF7D9F940F202413120FEF7D4F94FF41E
:1030200083713220FEF7CFF940F20351332001E0E3
:10303000A8090020FEF7C7F94FF482713420FEF78B
:10304000C2F940F201313520FEF7BDF940F20771B7
:103050003620FEF7B8F940F205313720FEF7B3F914
:103060004FF402713820FEF7AEF900E03EE040F682
:103070000B713920FEF7A7F902214120FEF7A3F9D1
:103080004FF41C516020FEF79EF901216120FEF7EC
:103090009AF94FF404719020FEF795F94FF4857179
:1030A0009220FEF790F904219320FEF78CF94FF45B
:1030B0008071A020FEF787F901210720FEF783F930
:1030C00021210720FEF77FF923210720FEF77BF956
:1030D00033210720FEF777F940F233110720FEF77E
:1030E00072F90021A020FEF76EF9B6E0FB48808857
:1030F000A0F58A4135397ED130211520FEF763F9DC
:1031000010219A20FEF75FF920211120FEF75BF9CC
:1031100043F228411020FEF756F902211220FEF753
:1031200052F941F238011320FEF74DF92820FDF73E
:103130000CFB12210846FEF746F92820FDF705FB97
:1031400043F220411020FEF73EF943F238011320EC
:10315000FEF739F94620FDF7F8FA00213020FEF796
:1031600032F940F202413120FEF72DF940F20731E9
:103170003220FEF728F94FF441713320FEF723F98E
:1031800004213420FEF71FF940F201413520FEF7FB
:103190001AF940F207713620FEF715F940F20531B1
:1031A0003720FEF710F94FF4C2613820FEF70BF913
:1031B0004FF4C2613920FEF706F94FF48071012007
:1031C000FEF701F94FF440710220FEF7FCF841F2DE
:1031D00030010320FEF7F7F840F608010820FEF75B
:1031E000F2F808210A20FEF7EEF84FF41C51602097
:1031F000FEF7E9F800E030E001216120FEF7E3F896
:103200004FF49F719020FEF7DEF84FF4807192200A
:10321000FEF7D9F84FF480719320FEF7D4F84FF4FD
:103220004051A020FEF7CFF81021A320FEF7CBF8E5
:1032300001210720FEF7C7F821210720FEF7C3F878
:1032400023210720FEF7BFF833210720FEF7BBF844
:1032500040F233110720FEF7B6F80020FEF703FB1B
:1032600001209F4908604FF6FF70FEF774FB10BD08
:103270002DE9F04F05460E4617469846DDF824A086
:103280004FF0000B781B401C1FFA80FB344613E004
:1032900021462846FEF7C5F8FEF7A7F84FF00009CB
:1032A00006E05046FEF789F809F101001FFA80F99F
:1032B000D945F6DB601C84B24445E9DDBDE8F08FFA
:1032C0002DE9F84F07460D4690469946DDF828B09F
:1032D000A8EB0700401C80B20090A9EB0500401C41
:1032E0001FFA80FA002416E0281981B23846FEF74A
:1032F00098F8FEF77AF8002608E004FB0A603BF82D
:1033000010007849088006F1010086B200988642D4
:10331000F3DB601C84B25445E6DBBDE8F88F2DE991
:10332000FF4F84B081468A460020039002900698A1
:10333000A0EB09050798A0EB0A06CDF80490CDF89C
:1033400000A0002D01DD012705E00DB9002702E0F6
:103350004FF0FF376D42002E02DD4FF0010806E00E
:1033600016B94FF0000802E04FF0FF387642B54240
:1033700001DD2C4600E034464FF0000B21E00098C0
:1033800081B2019880B2FEF71FFA03982844039097
:103390000298304402900398A04205DD0398001B78
:1033A00003900198384401900298A04205DD0298EC
:1033B000001B02900098404400900BF101001FFA9E
:1033C00080FB601C8345DADD08B0BDE8F08FF0B506
:1033D00004460D4616461F462B46324629462046D1
:1033E000FFF79DFF3B46224629462046FFF797FF01
:1033F0003B46324639462046FFF791FF3B46324670
:1034000029463046FFF78BFFF0BD2DE9F043064615
:103410000F469046002445460320A0EB48093CE0B7
:103420007A1B91B2321990B2FEF7CEF93A1B91B2E3
:10343000721990B2FEF7C8F93A1991B2721990B2A6
:10344000FEF7C2F97A1991B2321990B2FEF7BCF9BF
:103450007A1991B2321B90B2FEF7B6F93A1991B2CD
:10346000721B90B2FEF7B0F97A1B91B2321B90B288
:10347000FEF7AAF93A1B91B2721B90B2FEF7A4F9BB
:10348000641CB9F1000F03DAA000801D814404E040
:10349000601B80000A3081446D1EAC42C0DDBDE877
:1034A000F0832DE9FF4F81B005460F4690461E463A
:1034B00000970D48B0F80090A8F1200000F0FF0838
:1034C0000E98E0BB002455E00C2E11D108EB48000B
:1034D000064901EB800010F804A00EE0A8090020C6
:1034E000808121420008006C1A000020F69F00082D
:1034F000BC4800EB081010F804A04FF0000B33E0BC
:103500001AF0800F03D0B848A0F8009003E0B74845
:103510000088B549088039462846FEF755F94FEA34
:103520004A604FEA106A781C87B2B1480088A84206
:1035300006DCAD48A0F8009005B0BDE8F08F1CE0B7
:103540000098381AB0420BD1009F681C85B2A84879
:103550000088A84203DCA448A0F80090ECE706E04D
:103560000BF1010000F0FF0BBBF1080FC8DB00BF3F
:10357000601CC4B2B442A7DB44E0002440E00C2E3F
:1035800007D108EB48009B4901EB800010F804A02C
:1035900004E0944800EB081010F804A04FF0000B72
:1035A00028E01AF0800F03D039462846FEF70CF9C0
:1035B0004FEA4A604FEA106A781C87B28C4840880C
:1035C000A84203DC8848A0F80090B5E70098381AB4
:1035D000B0420BD1009F681C85B285480088A84284
:1035E00003DC8148A0F80090A6E706E00BF101009B
:1035F00000F0FF0BBBF1080FD3DB00BF601CC4B2AF
:10360000B442BCDB7848A0F8009000BF94E710B546
:103610000246012000E050430B00A1F10104E1B299
:10362000F9D110BD2DE9FF4F81B0074691461E46E6
:103630000E9D4FF0000A00243BE0301B401EC1B23B
:103640000A20FFF7E4FFB9FBF0F00A21B0FBF1F22A
:1036500001FB120000F0FF08BAF1000F16D1701E36
:10366000A04213DDB8F1000F0ED10023AB4605EBED
:10367000D571491001FB047188B200932B462022BA
:103680000299FFF70EFF12E04FF0010A0023AB464C
:1036900005EBD571491001FB047188B200932B46EC
:1036A00008F13001CAB20299FFF7FBFE00BF601CAF
:1036B000C4B2B442C1DB05B0BDE8F08F2DE9FF4FC5
:1036C00082B0064692461F46DDE90F480020019071
:1036D00000254FE0781B401EC1B20A20FFF797FF7C
:1036E000BAFBF0F00A21B0FBF1F201FB120000F08E
:1036F000FF09019850BB781EA84227DDB9F1000FE1
:1037000022D118F0800F0FD008F00103A34604EB7C
:10371000D471491001FB056188B200932346302221
:103720000399FFF7BEFE0EE008F00103A34604EB89
:10373000D471491001FB056188B200932346202211
:103740000399FFF7AEFE13E00120019008F001039A
:10375000A34604EBD471491001FB056188B20093C4
:10376000234609F13001CAB20399FFF79AFE00BF60
:10377000681CC5B2BD42ADDB06B0BDE8F08F2DE9D7
:10378000F84704460D4690469946DDE9096704F07E
:10379000FF0A08EB04001FFA80F809EB05001FFA86
:1037A00080F916E0444502DB5446A81985B24D4520
:1037B00000DB14E0002300933A7833462946204684
:1037C000FFF76FFE304606EBD67104EB61018CB259
:1037D0007F1C38787E2802DC38782028E2DA00BFA7
:1037E000BDE8F8876AA400081A0000201C00002029
:1037F000A8090020F69F0008F0B503460C461546C0
:10380000642093FBF0F0C6B2642093FBF0F700FB5A
:103810001730C1B2132E02DD01F16400C1B20846B7
:10382000CF1701EB977701EBA702072092FBF0F788
:1038300000FB172082B25719601EDFF810C41CF875
:103840000000384482B2CF1701EB9777BF10B1EB7D
:10385000870703D1032C01DA501E82B2072092FBA6
:10386000F0F700FB1720C0B2F0BD0146CA1701EB0C
:1038700092729210B1EB820212D1642091FBF0F2AD
:1038800000FB121050B94FF4C87091FBF0F200FB2E
:10389000121008B9012070470020FCE70120FAE768
:1038A0000020F8E770B5002600240025E8480688C7
:1038B0004FEA0646E748B0F81C080644E648B6FB5F
:1038C000F0F4E6480088A0423CD0E4490C8040F285
:1038D000B27510E02846FFF7C8FF40B1B4F5B77FD6
:1038E00002D3A4F5B77404E0681C85B206E0A4F224
:1038F0006D14681C85B2B4F5B67FEBD800BFD8480C
:103900008580002516E0D6498888FFF7AEFF30B1E4
:10391000012D04D11D2C01D31D3C09E00CE0D14840
:10392000405DA04203D8CF48405D241A00E003E088
:10393000681C85B21C2CE6D200BF681CC84988717F
:10394000601CC871C448B6FBF0F100FB11644FF471
:103950006160B4FBF0F0C24908704FF46160B4FBE1
:10396000F0F100FB11403C21B0FBF1F0BC49487084
:103970004FF46160B4FBF0F100FB11403C21B0FB5F
:10398000F1F201FB1200B64988700B46DA79997999
:103990009888FFF731FFB2490872002070BD2DE909
:1039A000F04F06460F4690469946DDE909AB0024E4
:1039B00040F2B270864203DB40F63300864202DDFD
:1039C0000120BDE8F08F40F2B2750AE02846FFF70B
:1039D0004CFF10B1A448044401E0A4480444681C0E
:1039E00085B2B542F2DB781EC7B2002510E09D48D3
:1039F000405D40F2A321484304EBC0143046FFF77A
:103A000034FF18B1012D01D193480444681C85B2DC
:103A1000BD42ECDBA8F1010040F2A321484304EBD6
:103A2000C014C9EB4910C0EB092004EB0014CAEB29
:103A30000A1004EB80045C448D48C06940F080505B
:103A40008B49C8610846C06940F00060C861894878
:103A5000006840F48070874908608748008840F01B
:103A600010007C49A1F8040884490C804FEA1440F6
:103A70007849A1F818080846B0F8040820F01000AA
:103A8000A1F8040800BF7C48008810F0200FFAD08D
:103A9000FFF708FF002094E71CB500247848008851
:103AA000A0F5A04150397ED07148C06940F08050E7
:103AB0006F49C8610846C06940F00060C8616D4840
:103AC000006840F480706B4908606948006A40F4FF
:103AD0008030674908620846006A20F48030086236
:103AE0000846006A40F00100086204E0601CC4B2AD
:103AF0000A20FCF72AFE5E48006A10F0020F01D18E
:103B0000FA2CF3DBFA2C01DB01201CBD5848006ABB
:103B100040F48070564908620846006A40F400404C
:103B2000086200BF5448008810F0200FFAD000BF90
:103B30005148008810F0080FFAD05248008840F031
:103B400001004449A1F8000800BF4B48008810F06C
:103B5000200FFAD04848008840F010003D49A1F8F5
:103B600004084FF000004849088047F6FF703949C3
:103B7000A1F80C084FF037034FF01002CDE90023F5
:103B80004FF00D034FF007024FF0090140F2DC70D7
:103B9000FFF705FF2F48B0F8040820F010002D496A
:103BA000A1F8040800E00DE000BF3348008810F0E1
:103BB000200FFAD045F250003149088033A005F0BB
:103BC000E1F815E000BF2C48008810F0080FFAD08B
:103BD0002C48008840F001001E49A1F8000800BFF1
:103BE0002548008810F0200FFAD02BA005F0CAF865
:103BF0000223032200210846FCF7E7FDFFF752FEEF
:103C0000002082E700B51C48008810F0010F01D0A9
:103C1000FFF748FE1848008810F0020F06D016483B
:103C2000008820F002000B49A1F80408124800881F
:103C300040F6FA7100EA01000649A1F8040800BF45
:103C40000D48008810F0200FFAD000BD5AAA0008D5
:103C50001828004000200040805101001E00002074
:103C6000B209002066AA00080085E2018033E10164
:103C70000010024000700040042800401C28004052
:103C8000046C004000280040082800404649525378
:103C9000542054494D450A004F4B0A0010B5324894
:103CA000C06840F4FE703049C860FCF758FE10BD93
:103CB00070B50025002400202C4908601BE02C482A
:103CC000006818B1681CC5B2002409E0601CC4B2C9
:103CD000032C05DD0120254908604FF0000070BD70
:103CE0001E20FCF732FD642D05DB00201F49086013
:103CF0004FF00100F3E7E2E710B501201D4908602D
:103D0000FFF7D6FF08B1FFF7C9FF10BD10B5164881
:103D1000806940F00400144988610846806940F0D9
:103D2000010088611448006820F00F001349C1F8B1
:103D300000080846D0F8000840F00800C1F8000864
:103D40004FF002024FF000010846FCF78BFDFFF731
:103D5000AFFF08B9FCF703FE0223062219461846F6
:103D6000FCF733FD10BD0000001002409481214299
:103D700000012142140401400008014000000140FC
:103D80003148806940F004002F4988610846C069C5
:103D900040F00050C8612D48006820F470202C4984
:103DA000C1F8000829480068C1F800082948D0F87F
:103DB000000440F001002749C1F800040846D0F88B
:103DC000000440F00200C1F8000423480068C1F874
:103DD000000421480068C1F800041F480068C1F8C9
:103DE00000041D480068C1F800041B4800681A4917
:103DF00008604FF000001949086070472DE9F0474E
:103E00008046404605F090FF81461549484605F03A
:103E100075FE81464FF08B41484605F099FF82467A
:103E200005F0DEFD06464FF066320E4B05F094FAC3
:103E3000044605F053FA8146484605F03DFF074920
:103E40000860BDE8F0870000001002400008014053
:103E50000000014000700040007400400874004001
:103E600000007A4466660A40A648806940F008006F
:103E7000A4498861A448006820F47F40A349C1F8A0
:103E8000040C0846D0F8040C40F44C50C1F8040C63
:103E90000846D0F80C0C40F44060C1F80C0C704798
:103EA00010B59948006820F470409849C1F8040C96
:103EB0000846D0F8040C40F44050934908604FF095
:103EC0000100934908609349C1F8A8014FF004002C
:103ED000FCF710FC00208F49C1F8AC010420FCF76E
:103EE00009FC00208B49C1F8A80110BD10B5864817
:103EF000006820F470408549C1F8040C0846D0F8E9
:103F0000040C40F44050804908604FF000008249A2
:103F100008608049C1F8AC014FF00400FCF7EAFBEF
:103F200001207D4908607B49C1F8AC014FF00400D5
:103F3000FCF7E0FB10BD10B500247348006820F4C6
:103F400070407249C1F8040C0846D0F8040C40F4E3
:103F500000406D4908604FF001006D490860FCF7B2
:103F6000C9FB01206B49C1F8A801FCF7C3FB07E0BE
:103F7000601CC4B2FA2C03DDFFF7B8FF012010BDAE
:103F8000664800680028F3D16349086000BFF6E77F
:103F900010B50020604908605C48D0F8040C20F49B
:103FA00070405A49C1F8040C0846D0F8040C40F49B
:103FB0004050554908604FF000005649C1F8AC0127
:103FC0004FF00200FCF796FB01205249C1F8A8010E
:103FD0000220FCF78FFB00204E49C1F8A80110BD5C
:103FE00010B500204C4908604848D0F8040C20F473
:103FF00070404649C1F8040C0846D0F8040C40F45F
:104000004050414908604FF001004249C1F8AC01FD
:104010004FF00200FCF76EFB01203E49C1F8A801F9
:104020000220FCF767FB00203A49C1F8A80110BD47
:1040300070B504463448006820F470403349C1F834
:10404000040C0846D0F8040C40F440502E49086097
:104050004FF000003049086005461AE0E0092C499D
:1040600008604FEA44604FEA10644FF00200FCF72A
:1040700041FB01202749C1F8A8010220FCF73AFBC7
:104080000020254908604FF00200FCF733FB681C54
:10409000C5B2082DE2DB70BD70B5054600241A4894
:1040A000006820F470401949C1F8040C0846D0F8A3
:1040B000040C40F40040C1F8040C4FF0000616E078
:1040C0000020154908604FF00200FCF713FB0120A7
:1040D0001049C1F8A8016006040E1048006808B134
:1040E000601CC4B20120FCF705FB701CC6B2082E90
:1040F000E6DB15B9FFF774FF01E0FFF749FF204643
:1041000070BD000000100240040C0140000001409E
:10411000AC81214200802142A88121422C81214290
:1041200010B5FFF7A1FE10BD70B504460026FFF7DD
:10413000B7FE2546E11704EB11610912A02202EB3C
:104140004101C8B2FFF774FFFFF7F5FEE11704EB7A
:1041500011610912A4EB0121C8B2FFF769FFFFF753
:10416000EAFEFFF79DFEA120FFF762FFFFF7E3FEE7
:104170000020FFF791FF0646FFF7B8FE304670BDFE
:1041800070B504460E46FFF78BFE2546E11704EB9B
:1041900011610912A02202EB4101C8B2FFF748FFEA
:1041A000FFF7C9FEE11704EB11610912A4EB01212D
:1041B000C8B2FFF73DFFFFF7BEFE3046FFF738FFFE
:1041C000FFF7B9FEFFF792FE0A20FCF7BEFA70BDBA
:1041D0002DE9F04105460E461746002409E0E200AD
:1041E00026FA02F2D1B22A1990B2FFF7C9FF601C79
:1041F000C4B2BC42F3DBBDE8F0812DE9F0410746D3
:104200000C460026002509E036023919491B491ED3
:1042100088B2FFF789FF0644681CC5B2A542F3DBEC
:104220003046BDE8F08110B5FF20FFF77DFF044662
:10423000552C01D1002010BD5521FF20FFF7A0FF14
:10424000FF20FFF771FF0446552C01D10020F2E753
:104250000120F0E770B506460C46154608E03046EA
:10426000721C96B2FFF760FF04F8010B681E85B25E
:10427000002DF4D170BD70B505460C46164606E01B
:1042800021782846FFF77CFF681C85B2641C30004B
:10429000A6F101018EB2F3D170BD00007149098809
:1042A00011F0200F0FD070490988C8B26F49097802
:1042B000402908DA6E496D4A127888546B490978AA
:1042C000491C6A4A117070472DE9F05F05460E4699
:1042D000300105F029FD8146664905FB01F005F036
:1042E00023FD8246494605F009FC0746384605F09D
:1042F000E3FC84B2204605F017FD8346394605F0FD
:10430000FAFD82464FF0834105F022FD814605F01B
:10431000D3FC8046240104EB080084B2564880692F
:1043200040F48070544988615448406820F0F0009F
:10433000524948600846406840F0300048604E48A6
:10434000806940F004004C4988614D48006820F4C1
:104350007F404C49C1F800080846D0F8000840F4F6
:104360000B40C1F800084448C06940F4003042499D
:10437000C8610846006940F40030086108460069D9
:1043800020F4003008614FF04020A0F808443E4877
:10439000008842F20C0140EA01004FF04021A1F8F0
:1043A0000C040846B0F80C0440F48070A1F80C042A
:1043B0000846B0F80C0440F02000334908804FF064
:1043C00002034FF026024FF003010846FCF7FDF907
:1043D00000202E49C1F8A401BDE8F09F10B50246A7
:1043E00001232B4C23604FF000000BE000BF1D4B5E
:1043F0001B8813F0400FFAD0135C1B4C238000F194
:104400000103D8B28842F1DB00BF164B1B8813F0C2
:10441000400FFAD00023154C23701D4C236010BDB3
:104420002DE9F04107460D4610480678002400208B
:1044300028700A20FCF789F90C48007886420FD1D1
:1044400076B100BF04E00A48005D3855601CC4B274
:10445000B442F8DB05480078287000200349087052
:10446000BDE8F081004400400444004020000020EA
:10447000BC09002040420F00001002400020014013
:1044800000080140000001400C44004000002442AC
:10449000A4012442002100BF16E010F0800F03D0D9
:1044A0000122FF4B1A6002E00022FD4B1A60420617
:1044B000100E0022FB4B1A604FF00102FA4BC3F8BA
:1044C000842101F10102D1B20829E6DB704770B501
:1044D0000646002500240020F2490860F349C1F88F
:1044E000A401F34908603046FFF7D4FF0620FCF72B
:1044F00001F90020EC49C1F884010120FCF7FAF829
:104500000120E84908604FF00000E749C1F8840144
:1045100000BF10E06004040C0020E24908604FF086
:104520000100E149C1F88401E248006808B1601C5B
:1045300084B2681CC5B2102DECDB24110120DC49CB
:104540000860204670BD2DE9FE4380460027002408
:1045500006E04046FFF7BBFF2DF81400601C84B254
:10456000052CF6DB002416E0601C85B20FE03DF858
:1045700014003DF81510884207DD3DF814603DF841
:1045800015002DF814002DF81560681C85B2052D56
:10459000EDDB601C84B2042CE6DB0027012405E07F
:1045A0003DF81400384487B2601C84B2042CF7DB59
:1045B000032097FBF0F086B23046BDE8FE832DE97C
:1045C000F04104460D46BC480078FFF7BCFF0646A4
:1045D000BA480078FFF7B7FF074626802F800120F2
:1045E000BDE8F0817FB504460D4602A903A8FFF798
:1045F000E6FF064616B9002004B070BD694601A862
:10460000FFF7DDFF06460EB90020F5E7BDF8040010
:10461000BDF80C10884206DCBDF80C10BDF8040093
:10462000323081420CDBBDF80C00BDF8041088422A
:1046300036DCBDF80410BDF80C00323081422FDAB0
:10464000BDF80000BDF80810884206DCBDF808106F
:10465000BDF80000323081420CDBBDF80800BDF827
:10466000001088421CDCBDF80010BDF80800323094
:10467000814215DABDF80C10BDF80420881800EB53
:10468000D071C1F34F012180BDF80810BDF80020A2
:10469000881800EBD071C1F34F0129800120ABE7EE
:1046A0000020A9E770B504460D46164684480680EA
:1046B000A4F10C0188B22B4619318AB22946FEF7C3
:1046C0002EFEA5F10C0081B2193083B2224620469D
:1046D000FEF725FE681C81B2601C80B2FDF774F8FD
:1046E000611E88B2691C89B2FDF76EF8681E81B23E
:1046F000601C80B2FDF768F86A1E91B2621E90B22B
:10470000FDF762F8062229462046FEF77EFE70BDC0
:1047100070B504460D46164669480680294620466F
:10472000FDF752F82946601C80B2FDF74DF8681C71
:1047300081B22046FDF748F8681C81B2601C80B247
:10474000FDF742F870BD2DE9F04104465D48006870
:10475000F0BB24B15C49881EFFF744FF3FE05A4993
:10476000881EFFF73FFFA0B357491239B1F9200067
:1047700005F0C2FA074654491239088A05F0D4FAFE
:104780008046514812388169404605F0E1FA0646F4
:10479000394605F051F9054605F08EFA4A491239B5
:1047A0000882B1F9220005F0A7FA074646491239F6
:1047B000488A05F0B9FA804643481238C169404634
:1047C00005F0C6FA0646394605F036F9054601E019
:1047D00016E004E005F070FA3B49123948823A4885
:1047E0001238007D10F0800F22D1C02036491239D6
:1047F00008750846008A88810846408AC88117E003
:1048000031481238007D10F0800F08D02E48123841
:10481000007D20F080002C491239087508E0002046
:10482000294912398881C8814FF6FF700882488271
:1048300025481238007D00F08000BDE8F08170B599
:10484000214912398869214905F082FA054605F0A7
:1048500017FA0446042221462820FFF7B9FC1A491A
:104860001239C869194905F073FA054605F008FAC6
:104870000446042221462C20FFF7AAFC12481238D5
:10488000B0F9201002223020FFF7A2FC0E481238A7
:10489000B0F9221002223220FFF79AFC0A4817E0F2
:1048A000A48123428481214200802142008023424E
:1048B00088812142208123424C0000204D000020AD
:1048C0001A000020288123423600002020BCBE4C64
:1048D000123890F824103420FFF752FC0A242146A5
:1048E0003520FFF74DFC70BD70B53520FFF71CFC7F
:1048F00004460A2C42D104212820FFF77EFC0446FE
:10490000204605F0F9F90546FF4905F0F7F8FF499B
:10491000886104212C20FFF770FC0446204605F036
:10492000EBF90546F84905F0E9F8F849C8610221B4
:104930003020FFF762FC00B2F449088402213220E3
:10494000FFF75BFC00B2F14948843420FFF7ECFB31
:10495000EE4981F82400084690F8240030B19020F8
:10496000EB490870D020EB49087005E0D020E849F9
:1049700008709020E7490870012070BD0020FCE716
:104980002DE9FC5F04460D4617461E46DDE90EABD9
:10499000DDE90C894FF47840DF490880DFA310225D
:1049A000DF48CDE9002343880288A0212820FEF7B4
:1049B000E6FEDCA31022DA48CDE900234388028812
:1049C000A0217820FEF7DBFED7A31022D448CDE942
:1049D000002343880288B4212820FEF7D0FED3A309
:1049E0001022CF48CDE9002343880288B4217820E3
:1049F000FEF7C5FECEA31022C948CDE900234388A7
:104A00000288C8212820FEF7BAFECAA31022C44893
:104A1000CDE9002343880288C8217820FEF7AFFE45
:104A2000C5A31022BE48CDE9002343880288DC21BB
:104A30002820FEF7A4FEC1A31022B948CDE9002327
:104A400043880288DC217820FEF799FEBCA310225F
:104A5000B348CDE9002343880288F0212820FEF7DF
:104A60008EFE1023009304232246A0214020FEF74F
:104A7000D9FD1023009304232A46A0219020FEF79D
:104A8000D1FD1023009304233A46B4214020FEF7C1
:104A9000C9FD1023009304233246B4219020FEF771
:104AA000C1FD1023009304234246C8214020FEF795
:104AB000B9FD1023009304234A46C8219020FEF735
:104AC000B1FD1023009304235246DC214020FEF761
:104AD000A9FD1023009304235A46DC219020FEF701
:104AE000A1FD10238E480093018803236020109AB3
:104AF000FEF798FDBDE8FC9F00B595B00020109032
:104B00000A9010901F20844908804FF6FF708E494C
:104B10000880FCF720FF4FF478407F4908804FF66B
:104B2000FF70FCF718FF00207B490880874810229F
:104B30000368CDE900236423A02228210846FEF75C
:104B40001EFE4FF4784214210846FFF7ABFD00200B
:104B50006E4908758861DBE36C4840680990012064
:104B6000099988476948007D00F0C000402878D145
:104B700000200A906548007D20F0400063490875D8
:104B80000846018A11AA109822F820105F48418A2D
:104B9000109802EB800041801098401CC0B2109029
:104BA0001098012806D0022815D0032829D00428FF
:104BB00010D141E04FF6FF7214210846FFF772FD55
:104BC00057480088143880B24FF478421421099075
:104BD000FFF768FD8CE352480088143880B24FF626
:104BE000FF7214210990FFF75DFD4D48408814388D
:104BF00080B24FF47842014609901420FFF752FD2D
:104C000076E347484088143880B24FF6FF72014679
:104C100009901420FFF746FD41484088143880B2BF
:104C200009903F480088143880B24FF478420890C9
:104C30000999FFF737FD5BE3BDF84400BDF8481064
:104C4000401A099001D4099801E0099840420D905A
:104C5000BDF8461011A8C088081A099002D4099816
:104C600002E046E3099840420C900D9840430D90B5
:104C70000C9840430C90DDE90C100844059004F0BA
:104C8000F0FCCDE9060104F003FBCDE9080104F0D6
:104C9000BBFC80B20F90BDF84C00BDF85010401A1C
:104CA000099001D4099801E0099840420D9011A89B
:104CB0004189C089081A099001D4099801E009982E
:104CC00040420C900D9840430D900C9840430C903E
:104CD000DDE90C100844059004F0C3FCCDE90601A1
:104CE00004F0D6FACDE9080104F08EFC80B20E90F3
:104CF0000E9805F019F809900F9805F015F808902E
:104D0000099904F0FBFE23E020BCBE4C24000020E7
:104D10004C0000204D0000201A00002078313A009D
:104D2000A809002079313A0078323A0079323A0005
:104D300078333A0079333A0078343A0079343A00DB
:104D40006661632069733A001C0000205000002057
:104D50000B900B9804F044FE4FF06632FF4BCDE908
:104D6000080104F091FC0DD30B9804F039FEFC4AC5
:104D7000FC4BCDE9080104F017FD03D30F9808B1EF
:104D80000E98E8BB00201090F7484088143880B295
:104D90000990F5480088143880B24FF6FF720890E9
:104DA0000999FFF77FFC4FF4784214210846FFF77A
:104DB00079FCEE490B9804F0CBFF089004F07CFFDF
:104DC00080B20346099011A8C289BDF850104089ED
:104DD000CDE90323CDE90101BDF84C3011A80093C2
:104DE000C0880890BDF848000790BDF846000690BE
:104DF000BDF84400059006A90EC9FFF7C1FD87E282
:104E0000FFE7BDF84400BDF84C10401A099001D4EA
:104E1000099801E0099840420D90BDF8461011A88C
:104E20004089081A099001D4099801E00998404284
:104E30000C900D9840430D900C9840430C90DDE988
:104E40000C100844059004F00CFCCDE9060104F0B8
:104E50001FFACDE9080104F0D7FB80B20F90BDF82E
:104E60004800BDF85010401A099001D4099801E09B
:104E7000099840420D9011A8C188C089081A09906C
:104E800001D4099801E0099840420C900D984043E4
:104E90000D900C9840430C90DDE90C1008440590EF
:104EA00004F0DFFBCDE9060104F0F2F9CDE90801D9
:104EB00004F0AAFB80B20E900E9804F035FF099022
:104EC0000F9804F031FF0890099904F017FE0B9039
:104ED0000B9804F085FD4FF06632A04BCDE9080138
:104EE00004F0D2FB09D30B9804F07AFD9C4A9D4B49
:104EF000CDE9080104F058FC3DD2002010909A48FA
:104F00004088143880B2099097480088143880B2DD
:104F10004FF6FF7208900999FFF7C4FB4FF47842EF
:104F200014210846FFF7BEFB90490B9804F010FFD0
:104F3000089004F0C1FE80B20346099011A8C2890E
:104F4000BDF850104089CDE90323CDE90101BDF83A
:104F50004C3011A80093C0880890BDF84800079015
:104F6000BDF846000690BDF84400059006A90EC99C
:104F7000FFF706FDCCE1BDF84800BDF84C10401A23
:104F8000099001D4099801E0099840420D9011A8B8
:104F9000C1884089081A099001D4099801E009984C
:104FA00040420C900D9840430D900C9840430C905B
:104FB000DDE90C100844059004F053FBCDE906012F
:104FC00004F066F9CDE9080104F01EFB80B20F90F1
:104FD000BDF84400BDF85010401A099001D409985A
:104FE00001E0099840420D90BDF8461011A8C08913
:104FF000081A099001D4099801E0099840420C90E0
:105000000D9840430D900C9840430C90DDE90C1036
:105010000844059004F025FBCDE9060104F038F9B9
:10502000CDE9080104F0F0FA80B20E900E9804F079
:105030007BFE09900F9804F077FE0890099904F020
:105040005DFD0B900B9804F0CBFC4FF06632434BA8
:10505000CDE9080104F018FB09D30B9804F0C0FC5B
:105060003F4A404BCDE9080104F09EFB3DD20020B1
:1050700010903D484088143880B209903A48008822
:10508000143880B24FF6FF7208900999FFF70AFBB7
:105090004FF4784214210846FFF704FB33490B987C
:1050A00004F056FE089004F007FE80B20346099013
:1050B00011A8C289BDF850104089CDE90323CDE97C
:1050C0000101BDF84C3011A80093C0880890BDF8CC
:1050D00048000790BDF846000690BDF844000590D2
:1050E00006A90EC9FFF74CFC12E1BDF84800BDF857
:1050F0004410401A079004F0FFFD09901A480088F8
:105100002838079004F0F8FD0890099904F0F6FC9F
:1051100017498861BDF84800BDF844100844049060
:1051200004F0EAFD05901248806901460490059854
:1051300004F00EFE07900C480088059004F0F4FD82
:105140000690079904F0E2FE4FF08041089004F0C9
:10515000D5FC099004F094FD00B20BE06666EE3FCA
:10516000CDCCCCCCCCCCF03FA80900200000C8426C
:10517000240000209249088411A84089BDF84610F7
:10518000401A079004F0B8FD09908E4840882838EE
:10519000079004F0B1FD0890099904F0AFFC88492C
:1051A000C86111A84089BDF846100844049004F075
:1051B000A3FD05908248C06901460490059804F05B
:1051C000C7FD07907F484088059004F0ADFD06902C
:1051D000079904F09BFE4FF08041089004F08EFC8C
:1051E000099004F04DFD00B2754948840846806975
:1051F000079004F045FD0890002801DB089801E0C5
:105200000898404202280DDC6D48C069079004F000
:1052100037FD0990002801DB099801E00998404218
:10522000022842DD0020109066484088143880B281
:10523000099064480088143880B24FF6FF720890D5
:105240000999FFF72FFA4FF4784214210846FFF727
:1052500029FA5DA310225B48CDE90023408809901C
:1052600058480088089002461A212820099BFEF71A
:1052700086FA534890F8240008B9012000E0002085
:105280004F4981F82400084690F8240030B190205E
:1052900052490870D0205249087005E0D0204F498B
:1052A000087090204E49087032E01F204D49088058
:1052B0004FF6FF70FCF74FFB4BA310224148CDE99E
:1052C0000023408809903F480088089002466E21DC
:1052D0002320099BFEF753FA4FF47A70FBF735FA57
:1052E000FFF7ADFA4FF6FF70FCF735FB15B000BDC8
:1052F00000BF0A20FBF729FA0A98401C80B20A90E6
:105300000A98B0F57A7F02DDFFF7EEFA01E000BF00
:1053100022E400BF00BFE9E710B53948806940F0DA
:105320000800374988610846806940F0800088613C
:105330003448006820F47F603349C1F8000C084607
:10534000D0F8000C40F44C70C1F8000C0846D0F8BE
:105350000C0C40F00600C1F80C0C2C48D0F8040CE2
:105360006FF30B002949C1F8040C2948006840F686
:10537000380140EA01002549C1F8040C0846D0F87C
:105380000C0C40F4E060C1F80C0C0D4901F1120165
:10539000A1F10200FFF713F9FEF7C2FEFFF7A4FA2E
:1053A00008B1002010BD4FF6FF70FCF7D4FAFFF7EC
:1053B000A3FBFFF744FAFFF797FA0120F2E700009A
:1053C00024000020A80900205450204E6565642068
:1053D000726561646A757374210000004C000020DE
:1053E0004D0000201A000020546F7563682053633D
:1053F0007265656E2041646A757374204F4B21009D
:1054000000100240000C014000000140001001406B
:10541000041C014010B58CB004461E230BAA03A93E
:10542000204600F003FE0090009810B101200CB05F
:1054300010BD9DF82C00044400200B900EE0604845
:105440009DF82C2050F8221003A800F057FD00B959
:1054500008E09DF82C00401CC0B20B909DF82C0079
:105460000828ECDB00BF9DF82C0007287ED2DFE87F
:1054700000F00405395B8BA6A50000BF51A003F026
:1054800081FC51A003F07EFC5FA003F07BFC6EA0CA
:1054900003F078FC7CA003F075FC8BA003F072FC99
:1054A00099A003F06FFCA6A003F06CFCABA003F086
:1054B00069FCB0A003F066FCB4A003F063FCB9A0E3
:1054C00003F060FCBDA003F05DFCC3A003F05AFC38
:1054D000CEA003F057FCDAA003F054FCE5A003F0E3
:1054E00051FCAEE237A003F04DFCF2A003F04AFC01
:1054F00000200B900EE0FF4800689DF82C2000EB88
:10550000C2004168FCA003F03DFC9DF82C00401C4B
:10551000C0B20B90F748007D9DF82C108842EADC61
:1055200028A003F02FFC8CE226A003F02BFCF4A0B3
:1055300003F028FC00200B901CE0EE4909689DF860
:105540002C2001EBC20101AB02AA486803A900F0BC
:1055500093FDE84800689DF82C1050F8312003A90D
:10556000F7A003F00FFC9DF82C0000E067E2401C60
:10557000C0B20B90DF48007D9DF82C108842DCDC27
:1055800010A003F0FFFB5CE20EA003F0FBFB0BAAF4
:1055900003A9204600F04CFE9DF82C0060B9694636
:1055A00003A800F0DEFC0B909DF82C0028B9E9A0C0
:1055B000009903F0E7FBE2E1DFE1D1E111E2E3E191
:1055C000540000200D0A00002D2D2D2D2D2D2D2DE8
:1055D0002D2D2D2D2D2D2D2D2D2D2D2D2D2D2D2DFB
:1055E00055534D4152542056322E382D2D2D2D2DF0
:1055F0002D2D2D2D2D2D2D2D2D2D2D2D2D2D2D2DDB
:105600002D2D2D200D0A00002020202055534D4126
:105610005254CAC7D3C9414C49454E54454BBFAA01
:10562000B7A2B5C4D2BBB8F6C1E9C7C9B5C4B4AE58
:10563000BFDAB5F7CAD4BBA5BDBBD7E9BCFE2CCD3C
:10564000A8B9FD200D0A0000CBFC2CC4E3BFC9D2D1
:10565000D4CDA8B9FDB4AEBFDAD6FACAD6B5F7D361
:10566000C3B3CCD0F2C0EFC3E6B5C4C8CEBACEBA8D
:10567000AFCAFD2CB2A2D6B4D0D02ED2F2B4CB2C6D
:10568000C4E3BFC90D0A0000D2D4CBE6D2E2B8FC15
:10569000B8C4BAAFCAFDB5C4CAE4C8EBB2CECAFD3D
:1056A00028D6A7B3D6CAFDD7D62831302F3136BD7C
:1056B000F8D6C629A1A2D7D6B7FBB4AEA1A2BAAF7D
:1056C000CAFDC8EB0D0A0000BFDAB5D8D6B7B5C819
:1056D000D7F7CEAAB2CECAFD292CB5A5B8F6BAAF77
:1056E000CAFDD7EEB6E0D6A7B3D63130B8F6CAE4D5
:1056F000C8EBB2CECAFD2CB2A2D6A7B3D6BAAFCAF7
:10570000FDB7B5200D0A0000BBD8D6B5CFD4CABEB0
:105710002ED0C2D4F6B2CECAFDCFD4CABEBDF8D602
:10572000C6C9E8D6C3B9A6C4DC2CD0C2D4F6BDF82D
:10573000D6C6D7AABBBBB9A6C4DC2E0D0A00000092
:10574000BCBCCAF5D6A7B3D63A7777772E6F70650B
:105750006E6564762E636F6D0D0A000055534D41E2
:105760005254D3D036B8F6CFB5CDB3C3FCC1EE3A60
:105770000D0A00003F3A20202020BBF1C8A1B0EF65
:10578000D6FAD0C5CFA20D0A0000000068656C7083
:105790003A20BBF1C8A1B0EFD6FAD0C5CFA20D0A0E
:1057A000000000006C6973743A20BFC9D3C3B5C44C
:1057B000BAAFCAFDC1D0B1ED0D0A0A0069643A2042
:1057C0002020BFC9D3C3BAAFCAFDB5C44944C1D0B4
:1057D000B1ED0D0A0A0000006865783A2020B2CECB
:1057E000CAFD3136BDF8D6C6CFD4CABE2CBAF3B87E
:1057F000FABFD5B8F12BCAFDD7D6BCB4D6B4D0D039
:10580000BDF8D6C6D7AABBBB0D0A0A006465633AC9
:105810002020B2CECAFD3130BDF8D6C6CFD4CABE24
:105820002CBAF3B8FABFD5B8F12BCAFDD7D6BCB4A1
:10583000D6B4D0D0BDF8D6C6D7AABBBB0D0A0A00D5
:10584000C7EBB0B4D5D5B3CCD0F2B1E0D0B4B8F199
:10585000CABDCAE4C8EBBAAFCAFDC3FBBCB0B2CE86
:10586000CAFDB2A2D2D4BBD8B3B5BCFCBDE1CAF864
:105870002E0D0A002D2D2D2D2D2D2D2D2D2D2D2DC7
:105880002D2D2D2D2D2D2D2D2D2D2D2D2D2D414C15
:1058900049454E54454B2D2D2D2D2D2D2D2D2D2D86
:1058A0002D2D2D2D2D2D2D2D2D2D2D2D2D2D2D2035
:1058B0000D0A00002D2D2D2D2D2D2D2D2D2D2D2DB5
:1058C0002D2D2D2D2D2D2D2D2D2D2D2D2DBAAFCA5C
:1058D000FDC7E5B5A52D2D2D2D2D2D2D2D2D2D2DD6
:1058E0002D2D2D2D2D2D2D2D2D2D2D2D2D2D2D2DE8
:1058F000200D0A00AC00002025730D0A00000000F6
:105900002D2D2D2D2D2D2D2D2D2D2D2D2D2D2D2DC7
:105910002D2D2D2D2D2D2D2D2DBAAFCAFD20494415
:10592000202D2D2D2D2D2D2D2D2D2D2D2D2D2D2DB4
:105930002D2D2D2D2D2D2D2D2D2D2D2D200D0A0014
:1059400025732069642069733A0D0A305825303870
:10595000580D0A004845583A305825580D0A00009D
:105960009DF82C00042801D0022060E5F8A003F087
:1059700009FA0120FB49C87501E0022057E5AFF2A2
:10598000BC3003F0FFF95CE0AFF2C83003F0FAF985
:105990000BAA03A9204600F04BFC9DF82C00C8B9C7
:1059A000694603A800F0DDFA0B909DF82C0020B9A1
:1059B000EDA0009903F0E6F90EE09DF82C00042814
:1059C00001D0022033E5EBA003F0DCF90020E5492B
:1059D000C87501E002202AE5AFF2184003F0D2F9C1
:1059E0002FE0AFF2204003F0CDF90BAA03A9204627
:1059F00000F01EFC9DF82C00D8B9694603A800F001
:105A0000B0FA0B909DF82C0088B9D648C07D0128CB
:105A100006D1009801460268DBA003F0B3F90AE062
:105A2000009801460268DCA003F0ACF903E0022014
:105A3000FDE40220FBE4D7A003F0A4F901E001207B
:105A4000F5E400BF0020F2E410B54FF08040008A7A
:105A500010F0010F02D0C349086980474FF0804021
:105A6000008A20F001004FF08041088210BD70B51F
:105A700004460D46CB48C06940F00100C949C861E1
:105A8000880484850585808940F001008904888127
:105A90000846808940F0400088810846008840F030
:105AA0000100088002231C2203210846FAF78DFE1C
:105AB00070BD10B5044604EBC40000EB04100122D5
:105AC000C2EB800081B24FF47A70FFF7D0FF012063
:105AD000A449C87510BD30B595B0054613AB12AAE0
