:020000040800F2
:1000000078370020812A0008750F0008770F000854
:100010007B0F00087F0F0008830F0008000000001E
:10002000000000000000000000000000870F000832
:10003000890F00080000000027B1000819280008F7
:10004000052800089B2A00089B2A00089B2A000814
:100050009B2A00089B2A00089B2A00089B2A00086C
:100060009B2A00089B2A00089B2A00089B2A00085C
:100070009B2A00089B2A00089B2A00089B2A00084C
:100080009B2A00089B2A00089B2A00089B2A00083C
:100090009B2A00089B2A00089B2A00089B2A00082C
:1000A0009B2A00089B2A00089B2A00089B2A00081C
:1000B0009B2A0008894C00088D4B00089B2A0008E9
:1000C0009B2A00089B2A00089B2A00089B2A0008FC
:1000D0009B2A0008ED290008254D00089B2A0008EE
:1000E000AD0D00089B2A00089B2A00089B2A0008E7
:1000F0009B2A00089B2A00089B2A00089B2A0008CC
:100100009B2A00089B2A00089B2A00089B2A0008BB
:100110009B2A00089B2A00089B2A00089B2A0008AB
:100120009B2A00089B2A00089B2A00089B2A00089B
:1001300000F002F800F05CF80AA090E8000C82449D
:100140008344AAF10107DA4501D100F051F8AFF27A
:10015000090EBAE80F0013F0010F18BFFB1A43F0A5
:1001600001031847A4D80000C4D800000A444FF087
:10017000000C10F8013B13F0070408BF10F8014B06
:100180001D1108BF10F8015B641E05D010F8016B4B
:10019000641E01F8016BF9D113F0080F1EBF10F8AF
:1001A000014BAD1C0C1B09D16D1E58BF01F801CBD2
:1001B000FAD505E014F8016B01F8016B6D1EF9D555
:1001C0009142D6D37047000000230024002500266A
:1001D000103A28BF78C1FBD8520728BF30C148BFAA
:1001E0000B6070471FB50DF0B4F91FBD10B510BD01
:1001F0000BF02CFB1146FFF7F5FF00F094FD0BF020
:100200004AFB03B4FFF7F2FF03BC02F095FB0000CA
:100210002DE9FF470027B846B946BA46002614E044
:100220000121072001F047FA81464F4500D24F4691
:100230000121082001F03FFA8246D04500D2D04685
:10024000242002F017FB701C86B2B6F5007FE7DBB6
:1002500038460CF0B3FB0446FD4AFE4B0CF0FEFBA7
:100260000022FD4BCDE900010CF01EFECDE902019C
:100270000CF060FBF949086040460CF09FFBF44A23
:10028000F44BCDE900010CF0E9FB04460022F24BEF
:100290000CF00AFECDE902010CF04CFBF0490860BD
:1002A000BDE8FF8707E0EF48C07908B9FFF7B0FF66
:1002B000C82002F002FBF6E708B50BE06A46002111
:1002C000E94800680AF007F9E648C079012801D139
:1002D00007F0D2F8F2E7002440E0E4480078012873
:1002E00003DBE2480078212815DD0220DD49C871D2
:1002F0000AF0F2FE044603200AF043FD02200AF051
:1003000040FD20460AF0ECFEE12001F0A4FF64204D
:1003100002F0D3FA22E0D548007820281EDCD3482A
:10032000007801281ADB0020CE49C871CF48007838
:100330004870EB2001F08FFF0AF0CEFE0446032048
:100340000AF08DFC05200AF08AFC02200AF087FCE6
:1003500001200AF016FD20460AF0C2FEBDE70EB5E8
:1003600006F04BFEC2480078322803DAC148007814
:10037000322829DBC048007830BBC048007801280B
:1003800022D10121BE4802F014FDBE48807900212F
:100390000222BC4BCDE9002102909A785978187856
:1003A000022304F065FC642002F087FA4FF48071A8
:1003B000B34802F0FEFCB34A1179D078002204F071
:1003C0007EFB0120AC490870A94800782C2822DC6B
:1003D000A84800782C281EDCA748007801281AD1EC
:1003E0000020A54908700120A74948700870A54859
:1003F000807900210322A34BCDE9002102909A7855
:1004000059781878032304F033FC9E4A1179D07888
:10041000002204F054FB0EBD06E0FFF7A0FF01F040
:1004200078FF642002F049FAF7E703B587B08D48FA
:10043000007910B9002009B000BD8D48007832283D
:100440007EDA8D48007800287AD186480079012824
:10045000FAD18A4800780128F6D18C480068002833
:10046000F2D1079801283ED1089801283BD1854850
:10047000C078C0BB84480078A8BB0121804802F046
:100480009AFC804880797F4949797E4A1279CDE982
:10049000002102907B48807806907A484078059049
:1004A0007848007801230490DDE9051204F0E0FBB0
:1004B00077480078002809DD724800790690714875
:1004C000C07801220590069904F0F9FA7048007886
:1004D00048B96C48007906906A48C07800220590B7
:1004E000069904F0ECFA0798012840D1089840BB1F
:1004F0006448C07801283AD10121614802F059FCD2
:100500006048807900225F490979CDE900120290A4
:100510005C48807806905B484078059059480078A0
:1005200003230490DDE9051204F0A2FB01205649E3
:1005300008705748007800280CDD5248007901E027
:10054000C2E014E006904F48C07801220590069959
:1005500004F0B5FA4E48007848B94A480079069048
:100560004848C07800220590069904F0A8FA079838
:10057000022840D1089801283DD142480079D0BBDB
:1005800041484078B8BB4FF480713D4802F013FCFD
:100590003C4880793B4949790122CDE9002102900C
:1005A0003848C078069037488078059035484078BC
:1005B000049034480078039004A90EC904F058FB55
:1005C00033480078002809DD2E48007906902D4830
:1005D000C07801220590069904F071FA2C48007841
:1005E00048B92848007906902648C078002205902E
:1005F000069904F064FA0798022863D1089828BB8A
:100600002048007901285DD101021D4802F0D1FB8C
:1006100000211C4840790322CDE9002002911948AD
:10062000C078069017488078059016484078049066
:1006300014480078039004A90EC904F019FB0120A6
:100640001149487012480078002823E03AE0000081
:100650005839B4C876BE9F3F00004940880000204A
:100660008C000020430B00200C01002078000020AB
:10067000A4000020A50000200300002002000020AC
:10068000000801401801002024010020040000207F
:100690009000002009DDFE4800790690FC48C078F3
:1006A00001220590069904F00AFAFA48007848B940
:1006B000F74800790690F648C07800220590069920
:1006C00004F0FDF90120B6E6F3480079022804D1D0
:1006D000EF4804F004FD0220ADE6EF48007903285E
:1006E00008D1EE480078012804D1E94804F035FD2E
:1006F0000220A0E6E848007904287DD1E748007888
:100700000128FAD10798012838D10898012835D155
:100710000121E34802F04FFBDD488079DC4949794B
:10072000DB4A1279CDE900210290D9488078069001
:10073000D74840780590D648007801230490DDE939
:10074000051204F095FAD3480078002809DDD04856
:1007500000790690CE48C07801220590069904F0F1
:10076000AEF9CC48007848B9C94800790690C84825
:10077000C07800220590069904F0A1F90798012895
:1007800036D10898A0BB0121C54802F012FBC04831
:1007900080790022BE490979CDE900120290BC4857
:1007A00080780690BA4840780590B948007813469A
:1007B0000490DDE9051204F05BFAB64800780028E1
:1007C00009DDB34800790690B148C0780122059050
:1007D000069904F074F9AF48007848B9AC4800793C
:1007E0000690AB48C07800220590069904F067F99E
:1007F000079802283BD100E078E00898012836D11C
:100800000102A74802F0D7FAA1488079A0494979A6
:100810000122CDE9002102909D48C07806909C48B5
:10082000807805909A484078049099480078039021
:1008300004A90EC904F01CFA96480078002809DDC6
:100840009348007906909248C07801220590069955
:1008500004F035F98F48007848B98D480079069042
:100860008B48C07800220590069904F028F9079873
:10087000022837D10898A8BB4FF48071884802F04D
:1008800098FA002182484079CDE900108048029111
:10089000C07806907E48807805907D484078049026
:1008A0007B480078039004A90EC904F0E1F9794867
:1008B0000078002809DD7648007906907448C078F1
:1008C00001220590069904F0FAF87248007848B9B8
:1008D0006F48007906906E48C0780022059006990E
:1008E00004F0EDF804F058FC0220A4E56A48007911
:1008F000052804D1664804F015FC05209BE56648F0
:10090000007906287ED1654800780128FAD1079839
:10091000012837D10898012834D10121604802F01C
:100920004AFA5B4881794079594A1279CDE9002029
:100930000291574880780690554840780590544871
:10094000007801230490DDE9051204F091F9514883
:100950000078002809DD4E48007906904C48C078A0
:1009600001220590069904F0AAF84A48007848B98F
:100970004748007906904648C078002205900699BD
:1009800004F09DF80798012836D10898A0BB0121F2
:10099000434802F00EFA3E48807900223C4909792A
:1009A000CDE9001202903A488078069038484078A5
:1009B00005903748007813460490DDE9051204F0ED
:1009C00057F934480078002809DD3148007906904D
:1009D0002F48C07801220590069904F070F82D4840
:1009E000007848B92A48007906902948C078002242
:1009F0000590069904F063F8079802283BD10898FF
:100A0000012800E083E036D10102254802F0D3F945
:100A10001F4880791E4949790122CDE900210290C1
:100A20001B48C07806901A4880780590184840788E
:100A3000049017480078039004A90EC904F018F92F
:100A400014480078002809DD114800790690104804
:100A5000C07801220590069904F031F80D4800781D
:100A600048B90B48007906900948C07800220590E3
:100A7000069904F024F80798022844D10898E8BBA6
:100A80004FF48071064802F094F90021004809E013
:100A90001801002090000020430B002002000020DD
:100AA000000801404079CDE90010FE480291C0786D
:100AB0000690FC4880780590FA4840780490F94800
:100AC0000078039004A90EC904F0D2F8F648007823
:100AD000002809DDF34800790690F248C078012229
:100AE0000590069903F0EBFFEF48007830B9ED4828
:100AF00000790690EB48C078002200E003E0059002
:100B0000069903F0DCFF04F05BFB062093E407206A
:100B100091E408B526E0E548C079012802D1022019
:100B20000AF02FF96A460021E148006808F0F7FF53
:100B30000546284604F018FA04461420DD490880CA
:100B4000DD480078D949487008464078D549087092
:100B5000012C07D11420D7490880D44A91795079C3
:100B6000FFF763FCD7E71CB5002453E0CF48C079FA
:100B7000012843D16F20D1490870CF480078CB4974
:100B8000487008464078C7490870CD48006809F0A9
:100B900051FDCC480078D0B1CA480078401EC94900
:100BA00008702F200021CDE90010C04948780123AA
:100BB0001A46002104F00FFA2F200021CDE9001081
:100BC000BA49487802230122002104F004FABD4802
:100BD0000078012805D10420BB4908700020B949DC
:100BE0000870BA49BA4806F0BEFEFFF711FB0120B3
:100BF00005F047F84FF4487001F05FFEAB48C0794C
:100C000040B90AF069FA044603200AF0BAF820460F
:100C10000AF066FAAAE770B50446002500BF002076
:100C200009F0D3FBAB490860002008F0F2FEA049B0
:100C30000860002008F0EDFEA7490860002009F0D8
:100C4000C4FB9F490860002008F0E3FEA349086048
:100C500008F0A4F80AF040FA05460323A04A002150
:100C6000AFF2FD0009F005FE02239E4A0021AFF21B
:100C70005D1009F0FEFD05239B4A0021AFF66700D9
:100C800009F0F7FD0123994A0021AFF6B51009F0EC
:100C9000F0FD0423964A0021AFF6E31009F0E9FDC8
:100CA0000723944A0021AFF6032009F0E2FD0C204F
:100CB0000AF067F828460AF013FA70BD1FB5012143
:100CC000042002F07FFA4FF48050ADF80C000420AD
:100CD0008DF80F0003A9884801F0C0FF0C21002007
:100CE00002F0D0F84FF48050019000208DF80800F9
:100CF00010208DF8090001208DF80A0001A802F0EB
:100D0000FBFE28208DF8000001208DF801008DF8F1
:100D100002008DF80300684601F0D7FE4FF48050C2
:100D200002F039FF1FBD1CB501F07EFD01F0FEFD94
:100D3000724801F09FFD00F0DDFD01F0CBFA00F0FC
:100D400053FB00F00BFC4FF4165000F027FD41F66A
:100D50001F4144F61E6003F085FE04F0D5F8002024
:100D600000900346024614210190084604F0A8F9B9
:100D7000FFF7A4FF41F61F4142F20F7003F04BFF53
:100D8000002404E0002051490855601CC4B21E2C08
:100D9000F8DB07F0C6FE0C23594A0021AFF2891098
:100DA00009F067FD07F0E2FF00201CBD10B507F059
:100DB000CEFE4FF4805002F005FF002870D04FF4B3
:100DC0007A7001F057FD4F480068012834D14E4831
:100DD0000078002830D101204B4908703148C07894
:100DE000012812D10121444801F0E3FF01204749C5
:100DF000087003202B49C87010202B490870294A1D
:100E00001179D078012203F05AFE26480079012892
:100E100012D10102384801F0CCFF01203B49487053
:100E200003212048017110201F4908701D4A1179C3
:100E3000D078012203F043FE3248006818BB3248E4
:100E4000007801281FD13248007801281BD10220E8
:100E50002F49087000202C4908701248C07890B9BA
:100E60002A48007878B90121234801F0A4FF012025
:100E70000C49C87010200C4908700A4A1179D078C2
:100E8000012203F01CFE1F48006848B91E48007884
:100E900001285BD11E480078022857D1012039E093
:100EA00054E000001801002090000020430B0020B7
:100EB000F8000020CC000020780000207D000020F9
:100EC0000C01002001000020E8000020400E00205E
:100ED000590D002004010020FC000020000100202A
:100EE0006C0300206C0400206C0700206C020020C2
:100EF0006C0500206C0A00200008014020A10700BA
:100F00006C08002030012142020000202401002052
:100F1000080000201149087000201149087011488C
:100F2000007998B91048407880B94FF480710F4823
:100F300001F041FF01210B48017110200C4908709C
:100F4000084A1179D078012203F0B9FD4FF480509E
:100F500002F049FE07F016FE10BD00000800002058
:100F60000200002018010020240100200008014098
:100F700090000020704700BFFEE700BFFEE700BF03
:100F8000FEE700BFFEE77047704700000021002029
:100F9000674A126842F48032654B1A6000BF644AA7
:100FA000126802F40030491C10B9B1F5A06FF6D1F7
:100FB0005F4A126812F4003F01D0012000E00020D7
:100FC000012842D15B4A126842F01002594B1A6064
:100FD0001A46126822F003021A601A46126842F09A
:100FE00002021A60524A5268514B5A601A465268BD
:100FF0005A601A46526842F480625A601A46526831
:1010000022F47C125A601A46526842F4E8125A607E
:101010001A46126842F080721A6000BF444A126891
:1010200012F0007FFAD0424A526822F00302404B8D
:101030005A601A46526842F002025A6000BF3C4AA7
:10104000526802F00C02082AF9D1704710B5FFF778
:101050009DFF10BD10B53648006840F001003449CE
:1010600008600846406834490840314948600846ED
:101070000068324908402E4908600846006820F49C
:10108000802008600846406820F4FE0048604FF465
:101090001F008860FFF7DAFF4FF000602849086002
:1010A00010BD10B5002100200022214B5B6803F029
:1010B0000C0121B1042906D0082928D107E0214BD1
:1010C000214C236027E01F4B1F4C236023E0184B6B
:1010D0005B6803F47010164B5B6803F480320223E4
:1010E00003EB904022B9194B4343174C23600DE0AA
:1010F0000F4B5B6813F4003F04D0144B4343124C76
:10110000236003E00F4B43430F4C236003E00D4B80
:101110000D4C236000BF00BF054B5B68C3F3031396
:101120000B4CE15C084B1B68CB40074C236010BDA7
:1011300000100240002002400000FFF8FFFFF6FE12
:1011400008ED00E000127A000C00002000093D00CC
:10115000100000209C48806940F008009A4988618E
:101160009A4800689A49084098490860084600680B
:10117000984908439549086094480830006820F46D
:1011800080509249083108600846006840F40050D9
:1011900008600846006840F480400860704710B559
:1011A0008A48006820F07060884908600846006836
:1011B00040F0407008600120874908608749C1F805
:1011C000B4014FF0040001F055FB00208249086093
:1011D0004FF0040001F04EFB00208049C1F8B4013B
:1011E00010BD10B57948006820F07060774908603C
:1011F0000846006840F040700860002078490860A8
:101200007649C1F8B8014FF0040001F033FB01202A
:10121000734908607149C1F8B8014FF0040001F04A
:1012200029FB10BD10B500246848006820F07060EC
:10123000664908600846006840F0006008600120C8
:101240006549086001F016FB01206449C1F8B4014A
:1012500001F010FB07E0601CC4B2FA2C03DDFFF7BD
:10126000C0FF012010BD5F4800680028F3D15C4931
:10127000086000BFF6E710B50020594908605348E0
:10128000006820F07060514908600846006840F02E
:10129000407008604FF000005049C1F8B8014FF0AD
:1012A000020001F0E7FA01204D4908604FF002000A
:1012B00001F0E0FA00204949C1F8B40110BD10B5B1
:1012C0000020474908604148006820F070603F49AD
:1012D00008600846006840F0407008604FF0010068
:1012E0003E49C1F8B8014FF0020001F0C3FA0120F5
:1012F0003B4908604FF0020001F0BCFA002037497A
:10130000C1F8B40110BD70B504463048006820F043
:1013100070602E4908600846006840F04070086020
:1013200000202F49086005461AE0E0092A490860B4
:101330004FEA44604FEA10644FF0020001F09AFA5D
:1013400001202649C1F8B401022001F093FA0020DF
:10135000234908604FF0020001F08CFA681CC5B206
:10136000082DE2DB70BD70B5054600241748006803
:1013700020F07060154908600846006840F0006081
:101380000860002616E00020154908604FF00200B2
:1013900001F070FA01201149C1F8B4016006040E91
:1013A0001048006808B1601CC4B2012001F062FA64
:1013B000701CC6B2082EE6DB15B9FFF780FF01E00E
:1013C000FFF759FF204670BD00100240040C014099
:1013D000FFFF00F000003303B8812142008021426A
:1013E000B48121423881214210B5FFF7B3FE10BD10
:1013F00070B504460026FFF7D2FEA020FFF783FF5A
:10140000FFF710FF2012FFF77EFFFFF70BFF2546C7
:10141000E11704EB11610912A4EB0121C8B2FFF737
:1014200072FFFFF7FFFEFFF7BAFEA120FFF76BFF89
:10143000FFF7F8FE0020FFF796FF0646FFF7D1FE04
:10144000304670BD70B504460E46FFF7A8FEA020DA
:10145000FFF759FFFFF7E6FE2012FFF754FFFFF7F3
:10146000E1FE2546E11704EB11610912A4EB01210D
:10147000C8B2FFF748FFFFF7D5FE3046FFF743FF3E
:10148000FFF7D0FEFFF7ADFE0A2001F016FA70BD9F
:101490002DE9F04105460E461746002409E0E2001A
:1014A00026FA02F2D1B22A1990B2FFF7CBFF601CE4
:1014B000C4B2BC42F3DBBDE8F0812DE9F041074640
:1014C0000C460026002509E036023919491B491E41
:1014D00088B2FFF78DFF0644681CC5B2A542F3DB56
:1014E0003046BDE8F08110B5FF20FFF781FF0446CC
:1014F000552C01D1002010BD5521FF20FFF7A2FF80
:10150000FF20FFF775FF0446552C01D10020F2E7BC
:101510000120F0E770B506460C46154608E0304657
:10152000721C96B2FFF764FF04F8010B681E85B2C7
:10153000002DF4D170BD70B505460C46164606E088
:1015400021782846FFF77EFF681C85B2641C3000B6
:10155000A6F101018EB2F3D170BD000000B587B0D5
:10156000012140F2046001F02DFE0121082001F06C
:1015700029FE4FF4004001F08CFD7220ADF804000C
:1015800000208DF8070001A9804801F067FB804822
:1015900002F086F8002002908DF80C008DF80D0006
:1015A0004FF4602004900020059001208DF8180071
:1015B00002A9774802F09BF80121754802F0C3F8B0
:1015C000734802F0E2F800BF714802F0E3F8002827
:1015D000FAD16F4802F0E8F800BF6D4802F0E9F870
:1015E0000028FAD16B4802F05BF8002002908DF8D9
:1015F0000C008DF80D004FF4602004900020059041
:1016000001208DF8180002A9624802F070F801214B
:10161000604802F098F85F4802F0B7F800BF5D48F4
:1016200002F0B8F80028FAD15A4802F0BDF800BF1D
:10163000584802F0BEF80028FAD140F20110ADF887
:10164000040010208DF8070003208DF8060001A982
:101650004E4801F003FB01214C4801F0AAFB4FF476
:1016600080714A4801F0A5FB4FF44060ADF80400DA
:1016700010208DF8070003208DF8060001A94648C8
:1016800001F0ECFA07B000BD10B5044607230122B3
:1016900021463F4802F0C3F801213D4802F093F88B
:1016A00000BF02213A4802F0E9F90028F9D0384891
:1016B00002F01CF910BD2DE9F04107460C4600254B
:1016C000002605E03846FFF7DFFF0544701CC6B270
:1016D000A642F7DBB5FBF4F080B2BDE8F08110B5AF
:1016E0000446022301222146294802F098F80121EC
:1016F000274802F068F800BF0221254802F0BEF931
:101700000028F9D0224802F0F1F810BD2DE9F0418F
:1017100007460C460025002605E03846FFF7DFFFA8
:101720000544701CC6B2A642F7DBB5FBF4F080B2EC
:10173000BDE8F08110B50446062301222146154874
:1017400002F06DF80121134802F03DF800BF0221BC
:10175000104802F093F90028F9D00E4802F0C6F8BC
:1017600010BD2DE9F04107460C460025002605E096
:101770003846FFF7DFFF0544701CC6B2A642F7DB10
:10178000B5FBF4F080B2BDE8F08100000008014034
:101790000024014000280140000C014010B586B033
:1017A000044601210C2001F00DFD0121480401F047
:1017B00016FD4FF40040ADF8140010208DF817000E
:1017C00003208DF8160005A9264801F047FA0420E9
:1017D000ADF8140018208DF8170005A9224801F073
:1017E0003DFA0820ADF8140004208DF8170005A973
:1017F0001D4801F033FA0121480401F00AFD0021DF
:101800004FF4003001F005FD01940020ADF8080010
:10181000ADF80A00ADF80C00ADF810000C20ADF8E2
:101820000E0001A9114801F078FD26208DF8000076
:1018300003208DF801008DF8020001208DF80300CF
:10184000684601F042F9012240F22551074801F0B3
:10185000FCFD0121054801F0ECFD00200449086071
:1018600006B010BD000C01400008014000440040DB
:10187000BC81214270B504460E46FE48007801281E
:1018800023D10020FB490870002519E014F0800FD7
:1018900003D10020F849086002E00120F649086001
:1018A0004FF00000F54908604FF0010000F0E2FF42
:1018B0000120F349C1F89C016006040E681CC5B202
:1018C000B542E3DB0120EB49087070BD10B504465A
:1018D0000020EC4908604FF003014FF08000FFF753
:1018E000C9FF09212046FFF7C5FF0120E449C1F8DF
:1018F000940110BD10B5E448806940F00800E24949
:101900008861E248006820F0F000E049086008467D
:10191000006840F030000860081F0068C0F3130042
:10192000091F086008460068D9490843D749091FBC
:101930000860D6480830006840F40070D349083188
:1019400008600846006840F020000860084600680B
:1019500040F0400008600846006840F080000860E1
:101960000220FFF7B3FF2920FFF7B0FF0120FFF7A8
:10197000ADFF0320FFF7AAFF10BD70B504460E4669
:10198000BC480078012822D10020BA4908700025FF
:1019900018E014F0010F03D10020B749086002E0FD
:1019A0000120B54908604FF00000B44908604FF0CD
:1019B000010000F05FFF0120B149C1F89C016410F3
:1019C000681CC5B2B542E4DB0120AA49087070BDAD
:1019D00070B504460D462920FFF778FF0120FFF778
:1019E00075FF0320FFF772FF0020A64908604FF043
:1019F00003014FF0A000FFF73DFFA106080E0621EE
:101A0000FFF738FF04212846FFF7B7FF01209C4964
:101A1000C1F8940170BD2DE9F04105460C4616460B
:101A20002920FFF753FF0120FFF750FF0320FFF7A6
:101A30004DFF0020934908604FF003014FF0A000D4
:101A4000FFF718FFA906080E0621FFF713FF00276E
:101A500006E020780421FFF790FF781CC7B2641CD1
:101A6000B742F6DB012087490860BDE8F08170B518
:101A70002920FFF72BFF0120FFF728FF0320FFF7A6
:101A800025FF00240DE0002507E00020A840C1B29A
:101A90002046FFF79DFF681CC5B2042DF5DB601CD6
:101AA000C4B2162CEFDB70BD2DE9F35F0C460421A8
:101AB0000C20FFF78DFF01210E20FFF789FF012188
:101AC0001120FFF785FF01210F20FFF781FF7148EB
:101AD0000078012803D101210620FFF779FF6D4826
:101AE000007818B901210520FFF772FF009D6A48B0
:101AF000007801280AD1642095FBF0F0C6B267484F
:101B0000022202FB06011020FFF785FF62480078E1
:101B100018B905211120FFF75BFF642095FBF0F158
:101B200000FB11500A2190FBF1F0C7B25C48022281
:101B300002FB07011220FFF76EFF0A2095FBF0F170
:101B400000FB11500A2190FBF1F201FB120000F0A2
:101B5000FF085348022202FB08011420FFF75BFF35
:101B6000642094FBF0F01FFA80F94D48022202FB3A
:101B700009011046FFF74FFF642094FBF0F100FBD2
:101B800011400A2190FBF1F01FFA80FA4548022229
:101B900002FB0A010A20FFF73EFF0A2094FBF0F146
:101BA00000FB11401FFA80FB3E48022202FB0B01A2
:101BB0000820FFF730FFBDE8FC9F2DE9F047044601
:101BC00001210C20FFF704FF32480078012803D1DF
:101BD00001210620FFF7FCFE2E48007818B90121EC
:101BE0000520FFF7F5FE01210F20FFF7F1FE254646
:101BF0002C4642F21070B5FBF0F086B22848022263
:101C000002FB06011020FFF706FF42F21070B5FB41
:101C1000F0F100FB11404FF47A71B0FBF1F720486E
:101C2000022202FB07011220FFF7F5FE4FF47A7043
:101C3000B5FBF0F100FB11406421B0FBF1F818484E
:101C4000022202FB08011420FFF7E5FE6420B5FB29
:101C5000F0F100FB11400A21B0FBF1F9104802221B
:101C600002FB09010020FFF7D6FE0A20B5FBF0F1C8
:101C70001AE0000070000020988121429C812142DE
:101C8000008021429481214200100240040C014056
:101C90000000303302000020EF0000204800002048
:101CA000200000203400002000FB114AFE480222E0
:101CB00002FB0A011046FFF7AEFEBDE8F0872DE9F2
:101CC000F05F04460E4601210C20FFF781FEF74825
:101CD0000078012803D101210620FFF779FEF3489F
:101CE000007818B901210520FFF772FE01210F20AD
:101CF000FFF76EFE04210720FFF76AFE012E03D1D5
:101D000004210846FFF764FE022E03D102210420BD
:101D1000FFF75EFE032E03D101210420FFF758FEDA
:101D200025462C4642F21070B5FBF0F087B2DE4833
:101D3000022202FB07011020FFF76DFE42F2107035
:101D4000B5FBF0F100FB11404FF47A71B0FBF1F8F4
:101D5000D548022202FB08011220FFF75CFE4FF477
:101D60007A70B5FBF0F100FB11406421B0FBF1F992
:101D7000CD48022202FB09011420FFF74CFE64202B
:101D8000B5FBF0F100FB11400A21B0FBF1FAC648A7
:101D9000022202FB0A010020FFF73DFE0A20B5FBEC
:101DA000F0F100FB114BC048022202FB0B01104670
:101DB000FFF731FEBDE8F09F2DE9F047044605210D
:101DC0000F20FFF705FEB9480078012803D1012153
:101DD0000620FFF7FDFDB548007818B90121052060
:101DE000FFF7F6FD25462C4642F21070B5FBF0F0E9
:101DF00086B2AD48022202FB06011420FFF70BFE5B
:101E000042F21070B5FBF0F100FB11404FF47A7113
:101E1000B0FBF1F7A448022202FB07010020FFF704
:101E2000FAFD4FF47A70B5FBF0F100FB114064212C
:101E3000B0FBF1F89C48022202FB08011046FFF7B4
:101E4000EAFD6420B5FBF0F100FB11400A21B0FB74
:101E5000F1F99748022202FB09010A20FFF7DBFD96
:101E60000A20B5FBF0F100FB114A9148022202FB67
:101E70000A010820FFF7CFFDBDE8F0872DE9F05FEC
:101E800004460D4604210E20FFF7A2FD08210C2078
:101E9000FFF79EFD85480078012803D10121062027
:101EA000FFF796FD8148007818B901210520FFF75A
:101EB0008FFD01210F20FFF78BFD642094FBF0F0D4
:101EC000C6B27948022202FB06011020FFF7A3FDEB
:101ED000642094FBF0F100FB11400A2190FBF1F02B
:101EE000C7B27148022202FB07011220FFF793FDDF
:101EF0000A2094FBF0F100FB114000F0FF086A4853
:101F0000022202FB08011420FFF785FD642095FBE7
:101F1000F0F000F0FF096448022202FB09011046BC
:101F2000FFF779FD642095FBF0F100FB11500A21C9
:101F300090FBF1F000F0FF0A5D48022202FB0A016B
:101F40000A20FFF768FD0A2095FBF0F100FB115015
:101F500000F0FF0B5648022202FB0B010820FFF79E
:101F60005AFDBDE8F09F2DE9F05F04460D460821BB
:101F70000720FFF72DFD4D480078012803D10121EE
:101F80000620FFF725FD4948007818B901210520F2
:101F9000FFF71EFD01210F20FFF71AFD642094FBBF
:101FA000F0F0C6B24048022202FB06011020FFF703
:101FB00032FD642094FBF0F100FB11400A2190FBFC
:101FC000F1F0C7B23848022202FB07011220FFF7E6
:101FD00022FD0A2094FBF0F100FB114000F0FF0805
:101FE0003148022202FB08011420FFF714FD64208F
:101FF00095FBF0F000F0FF092B48022202FB0901DB
:102000001046FFF708FD642095FBF0F100FB11502E
:102010000A2190FBF1F000F0FF0A2548022202FBA2
:102020000A010A20FFF7F7FC0A2095FBF0F100FBFC
:10203000115000F0FF0B1E48022202FB0B0108208A
:10204000FFF7E9FCBDE8F09F2DE9F04104460821C7
:102050000D20FFF7BDFC15480078012803D10121B0
:102060000620FFF7B5FC1148007818B901210520BA
:10207000FFF7AEFC01210F20FFF7AAFC642094FBC0
:10208000F0F0C5B20848022202FB05011046FFF736
:10209000C2FC642094FBF0F100FB11400A2190FB8C
:1020A000F1F0C6B2024805E0200000200200002046
:1020B00034000020022202FB06010A20FFF7ABFCDD
:1020C0000A2094FBF0F100FB1140C7B27B480222CA
:1020D00002FB07010820FFF79EFCBDE8F0812DE917
:1020E000F041044608210620FFF772FC0821072072
:1020F000FFF76EFC01210F20FFF76AFC642094FBC0
:10210000F0F0C5B26E48022202FB05011046FFF74F
:1021100082FC642094FBF0F100FB11400A2190FB4B
:10212000F1F0C6B26548022202FB06010A20FFF761
:1021300072FC0A2094FBF0F100FB1140C7B25F482B
:10214000022202FB07010820FFF765FCBDE8F081D1
:102150002DE9F041044601210F20FFF739FC04214D
:102160000A20FFF735FC022254490A310820FFF704
:1021700052FC4FF47A7094FBF0F0C5B25048022242
:1021800002FB05011220FFF746FC4FF47A7094FB26
:10219000F0F100FB1140642190FBF1F0C6B2484819
:1021A000022202FB06011420FFF735FC642094FB99
:1021B000F0F100FB11400A2190FBF1F0C7B240485A
:1021C000022202FB07010020FFF725FC0A2094FBF6
:1021D000F0F100FB114000F0FF083948022202FB39
:1021E00008011046FFF717FCBDE8F0812DE9F0412A
:1021F000044604210C20FFF7EBFB01210F20FFF721
:10220000E7FB642094FBF0F0C5B22D48022202FBEC
:1022100005011046FFF7FFFB642094FBF0F100FB83
:1022200011400A2190FBF1F0C6B22448022202FBC1
:1022300006010A20FFF7EFFB0A2094FBF0F100FBF8
:102240001140C7B21D48022202FB07010820FFF718
:10225000E2FBBDE8F08170B504461A480078012819
:102260002BD10020174908701749086005461AE06D
:1022700000201649086014F0800F03D101F1040119
:10228000086002E00120124908604FF0030000F0EE
:10229000F1FA01200D4908604FEA44604FEA1064EA
:1022A00005F10100C5B2082DE2DB0A2000F0E2FAD8
:1022B0000120054908600349087070BD3400002002
:1022C0002000002070000020A4812142988121423A
:1022D0009C812142F848806940F00400F6498861F9
:1022E000F648006820F47F20F4490860084600683A
:1022F00040F408200860F1480830006840F0010010
:10230000EE49083108600846006840F001000860A6
:10231000704710B50024EA48006800287ED1E948DB
:10232000007800287AD00020E6490870E648007856
:1023300001281BD108E040F6B83000F09BFA601C81
:10234000C4B2C82C00DB03E0DD4800680028F2D0EE
:1023500000BFC82C0ADB0020DC490870FFF787FBB0
:10236000DB48007800F5C870FFF740FFD6480078DA
:1023700002281ED108E040F6B83000F07BFA601C5D
:10238000C4B2C82C00DB03E0CD4800680028F2D0BE
:1023900000BFC82C0DDB0020CE490870FFF767FB9B
:1023A000CD49CE4A1278895C322201FB02F0FFF758
:1023B000CFFEC5480078072819D108E040F6B830AC
:1023C00000F058FA601CC4B2C82C00DB03E0BC4823
:1023D00000680028F2D000BFC82C08DB0020C049EC
:1023E0000870FFF744FBBF480078FFF778FEC82C61
:1023F0007EDABB480078012864D1B648007801280D
:1024000060D1B248007801285CD1B7480078002834
:1024100058DDAD480078401CAB4900E0C8E00870CA
:1024200008460078082801DD01200870A6480078D9
:10243000092846D2DFE800F045050E151C242C358E
:102440003E00FFF714FBA9480188A9480078FFF770
:102450002BFB36E0FFF70BFBA6480068FFF7ADFB50
:102460002FE0FFF704FBA4480088FFF7A5FC28E055
:10247000FFF7FDFA0121A1480068FFF720FC20E0EA
:10248000FFF7F5FA03219E480068FFF718FC18E0F3
:10249000FFF7EDFA9B4801789B480078FFF7EEFCC8
:1024A0000FE0FFF7E4FA8F48017898480078FFF7CB
:1024B0005AFD06E0FFF7DBFA95480078FFF7C4FD08
:1024C00000BF00BF80480078012820D17F480078F5
:1024D000E8B91020844908707D480078401D7C4987
:1024E000087008460078322801DD0020087000E0FE
:1024F00054E0FFF7BCFA7648007800F5C870FFF7A3
:1025000075FE734801784FF48050FEF79BFF6E48CC
:102510000078022821D16F480078F0B91020724964
:1025200008706E480078401C6C49087008460078B6
:10253000122801DD00200870FFF799FA6649674A02
:102540001278895C322201FB02F0FFF701FE63483A
:1025500001784FF48070FEF775FF5B48007807281C
:102560001CD15F480078C8B910205F4908705D48E9
:102570000078401C5B49087008460078202801DD7F
:1025800001200870FFF773FA56480078FFF7A7FD9F
:10259000544801784FF42040FEF754FF5D4A11790A
:1025A000D078012202F08BFA10204F490870D6E053
:1025B000434800680128FAD142490870424800782F
:1025C000012813D108E040F6B83000F053F9601C40
:1025D000C4B2FA2C00DB03E0394800680128F2D0CD
:1025E00000BFFA2C02DB0120384908703648007819
:1025F000022813D108E040F6B83000F03BF9601C27
:10260000C4B2FA2C00DB03E02D4800680128F2D0A8
:1026100000BFFA2C02DB01202E4908702A480078FE
:10262000072813D108E040F6B83000F023F9601C09
:10263000C4B2FA2C00DB03E0214800680128F2D084
:1026400000BFFA2C02DB01202549087024480078DD
:10265000012872D11F48007801286ED11B480078EC
:1026600001287CD118480078092877D2DFE800F0EB
:1026700076050E151C545C666F00FFF7F8F91B48D1
:1026800001881B480078FFF70FFA67E0FFF7EFF9C2
:1026900018480068FFF791FA60E0FFF7E8F916487C
:1026A0000088FFF789FB59E0FFF7E1F901211348A2
:1026B0000068FFF704FB51E00010024004080140ED
:1026C0002C012142740000207B00002077000020B4
:1026D0007A00002076000020910000207900002080
:1026E000750000207800002090000020800000206D
:1026F0007E0000208400002082000020880000204E
:102700008C000020A5000020A40000207D000020F7
:102710007C00002018010020FFF7A9F903211048D0
:102720000068FFF7CCFA19E0FFF7A1F90D4801782E
:102730000D480078FFF7A2FB10E010E0FFF797F9D3
:102740000A4801780A480078FFF70DFC06E0FFF719
:102750008EF908480078FFF777FC00BF00BF10BD76
:102760008C000020A5000020A4000020780000209C
:102770007D0000207C00002070B505460C4645F227
:10278000555001F039FA284601F039FA204601F097
:1027900039FA01F03AFA01F03DFA70BD10B501F0D6
:1027A00034FA10BD08B500208DF800008DF8010046
:1027B0008DF80200684600F088F908BD70B506463D
:1027C0000C4615460121C80200F009FD11480078A9
:1027D000304010490870284602F011F9204602F0F6
:1027E00017F90C48007802F028F902F031F9FFF7E8
:1027F000D9FF02F018F970BD10B50446204602F06A
:102800001CF910BD10B50348007802F010F902F071
:102810001FF910BDA600002010B506F098F906F0CB
:10282000DCFA06F0AFF910BD10B56FF0040000F04F
:1028300097F9394800683949B0FBF1F03849087018
:10284000354800683549B0FBF1F441F28830444323
:102850000520344908804FF0E020006940F0020074
:102860004FF0E021086108464461006940F0010032
:10287000086110BD70B5034600224FF0E02675696F
:10288000274E367803FB06F400BF4FF0E026B1690F
:1028900010E04FF0E026B06988420BD0884202D2A7
:1028A0000E1A324402E02E1A0E4432440146A2426D
:1028B00000D300E0EDE700BF70BD70B504461A48D4
:1028C0000078012811D117480088844206DB15489A
:1028D000008894FBF0F5284608F01EFB114800889C
:1028E00094FBF0F100FB114084B24FF47A7104FBC9
:1028F00001F0FFF7BFFF70BD10B50446094800881E
:1029000094FBF0F100FB114084B24FF47A7104FBA8
:1029100001F0FFF7AFFF10BD0C00002000127A009D
:10292000A8000020AA0000204E01002010B54FF49E
:10293000A06000F0C5F810BD014600BF704700BFA1
:102940004B4A128812F0400FFAD0C2B2484B1B1DFE
:102950001A80704710B586B00446012144F2050084
:1029600000F030FC4FF40070ADF8140003208DF837
:10297000160018208DF8170005A93E4800F06EF9E2
:102980004FF48060ADF8140004208DF8170005A9FD
:10299000384800F063F925208DF8000003208DF8F9
:1029A00001008DF8020001208DF80300684600F058
:1029B0008CF801940020ADF80800ADF80A00ADF8DD
:1029C0000C00ADF810000C20ADF80E0001A928484D
:1029D00000F0A3FC012240F22551254800F035FD0E
:1029E0000121234800F025FD06B010BD10B506F00A
:1029F000AEF840F225511E4800F00FFE10B31C48FF
:102A000000F08BFDC4B21C48008810F4004F2BD19D
:102A10001948008810F4804F0CD00A2C03D00020F5
:102A20001549088020E01448008840F4004012490D
:102A3000088019E00D2C06D10F48008840F4804032
:102A40000D49088010E00C480088C0F30D000B49C8
:102A50000C5409480088401C074908800846008833
:102A6000C72801DD0020088006F08CF810BD0000AA
:102A70000038014000080140AC000020700A00202E
:102A80000948804709480047FEE7FEE7FEE7FEE702
:102A9000FEE7FEE7FEE7FEE7FEE7FEE7044805493E
:102AA000054A064B70470000551000083101000828
:102AB00078310020783700207833002078330020E8
:102AC00031490143314A1160704770B5002100233C
:102AD0000F22C4780CB32D4C246804F4E064C4F5D0
:102AE000E064210AC1F10403CA40447804FA03F106
:102AF0008478144021430901254C0678A1550478B7
:102B000004F01F050124AC4005786D114FF0E0265C
:102B100006EB8505C5F8004109E0047804F01F05BF
:102B20000124AC401B4D0678761145F8264070BD57
:102B3000194A0A400243154B1B1F1A60704739B1EE
:102B4000124A121D12680243104B1B1D1A6006E048
:102B50000E4A121D126882430C4B1B1D1A607047EF
:102B6000042808D14FF0E021096941F004014FF039
:102B7000E022116107E04FF0E021096921F0040132
:102B80004FF0E022116170470000FA050CED00E003
:102B900000E400E080E100E080FFFF1F10B5044684
:102BA000CA48844208D10121042000F025FB0021FD
:102BB000042000F021FB46E0C548844208D10121F1
:102BC000082000F019FB0021082000F015FB3AE076
:102BD000C048844208D10121102000F00DFB0021E3
:102BE000102000F009FB2EE0BB48844208D10121EF
:102BF000202000F001FB0021202000F0FDFA22E05F
:102C0000B648844208D10121402000F0F5FA0021A5
:102C1000402000F0F1FA16E0B148844208D10121C9
:102C2000802000F0E9FA0021802000F0E5FA0AE0B7
:102C3000AC48844207D10121801500F0DDFA002163
:102C4000A01500F0D9FA10BD10B50121084600F01A
:102C5000D3FA0021012000F0CFFA10BD2DE9F04198
:102C6000024600250026002000230024002791F8BA
:102C700003C00CF00F0591F803C01CF0100F03D037
:102C800091F802C04CEA0505B1F800C01CF0FF0F36
:102C900031D0146800202BE04FF0010C0CFA00F347
:102CA000B1F800C00CEA03069E4220D183004FF029
:102CB0000F0C0CFA03F7BC4305FA03FC4CEA0404BE
:102CC00091F803C0BCF1280F06D14FF0010C0CFAAB
:102CD00000FCC2F814C00AE091F803C0BCF1480F30
:102CE00005D14FF0010C0CFA00FCC2F810C0401CDA
:102CF0000828D1D31460B1F800C0BCF1FF0F34DD57
:102D0000546800202EE000F1080C4FF0010808FA8A
:102D10000CF3B1F800C00CEA03069E4221D18300F7
:102D20004FF00F0C0CFA03F7BC4305FA03FC4CEA16
:102D3000040491F803C0BCF1280F05D100F1080C80
:102D400008FA0CF8C2F8148091F803C0BCF1480FDF
:102D500007D100F1080C4FF0010808FA0CF8C2F88E
:102D60001080401C0828CED35460BDE8F0814FF697
:102D7000FF710180022181700421C17070470246F9
:102D8000002093680B4201D0012000E00020704732
:102D90000146886880B2704702460020D3680B4223
:102DA00001D0012000E0002070470146C86880B2D1
:102DB000704701617047416170470AB1016100E0ED
:102DC00041617047C16070474FF480320A438261AD
:102DD0008161826182698269704702460020424BAC
:102DE00018684FF68073184040EA021008433E4BC3
:102DF000186070473D49C8617047F0B50A46002326
:102E000000240021002500F00046B6F1004F02D159
:102E1000354EF16901E0344E7168C0F3034583B269
:102E200000F44016B6F5401F08D121F070612E4E17
:102E3000766826F070662C4F7E6012E000F48016F3
:102E4000B6F5801F06D1032606FA05F4A14341F02A
:102E5000706106E0460D360103FA06F6B14341F013
:102E6000706122B1460D360103FA06F6314300F0D7
:102E70000046B6F1004F02D11B4EF16101E01A4E3F
:102E80007160F0BD30B500228B071C0F0F2303FAD1
:102E900004F2154B08338C1053F824309343124C32
:102EA00008348D1044F8253023468C1053F8243014
:102EB0008C07240F00FA04F423430B4C08348D10C4
:102EC00044F8253030BD0A490860704700080140C9
:102ED000000C0140001001400014014000180140A6
:102EE000001C014000200140000001400000204281
:102EF000DC002042DC48006840F00100DA4908604C
:102F000008464068D9490840D749486008460068E3
:102F1000D7490840D44908600846006820F480205A
:102F200008600846406820F4FE0048604FF41F0027
:102F300088607047CC49096821F48031CA4A116021
:102F40001146096821F480211160B0F5803F03D05B
:102F5000B0F5802F0ED106E0C349096841F48031F5
:102F6000C14A116007E0C049096841F4A021BE4A86
:102F7000116000E000BF00BF704710B5014600229D
:102F8000002300204A11012A02D1B74C236806E031
:102F9000022A02D1B44C236A01E0B34C636A01F007
:102FA0001F02012494401C4201D0012000E00020B7
:102FB00010BD70B500240025002600BF3120FFF7AA
:102FC000DCFF0646641CB4F5A06F01D0002EF5D0DE
:102FD0003120FFF7D2FF08B1012500E00025284687
:102FE00070BD01460020A04A106820F0F80040EAB9
:102FF000C100106070479F4908607047024600207A
:10300000994B586820F47C1042EA01031843964B10
:103010005860704797490866704701460020924AF9
:10302000506820F003000843506070478E484068A5
:1030300000F00C007047014600208B4A506820F0D9
:10304000F00008435060704701460020864A5068EF
:1030500020F4E06008435060704701460020824A37
:10306000506820F4605040EAC1005060704729B1B8
:103070007D4A527A02437C4B5A7206E07A4A527A6F
:10308000C343DBB21A40784B5A7270477A490860E2
:10309000704701460020744A506820F440400843BD
:1030A000506070470021754A11706F4A82F82010F5
:1030B000012802D0042808D103E001216F4A1170D1
:1030C00004E005216D4A117000E000BF00BF7047A9
:1030D0006B49086070476449096A0143624A11629A
:1030E0007047674944390860704730B500210022B5
:1030F000002400235C4D6D6805F00C0121B104290A
:1031000005D0082923D105E05E4D056022E05D4D24
:1031100005601FE0544D6D6805F47012524D6D68E6
:1031200005F48034022505EB92421CB9564D5543F7
:1031300005600BE04C4D6D6815F4003F03D0524D17
:103140005543056002E04F4D5543056002E04D4D8B
:10315000056000BF00BF444D6D6805F0F00109092E
:103160004A4D6B5C0568DD4045603F4D6D6805F478
:10317000E061090A454D6B5C4568DD4085603A4D6C
:103180006D6805F46051C90A404D6B5C4568DD40CF
:10319000C560354D6D6805F44041890B3C4D6B5C55
:1031A000C568B5FBF3F5056130BD29B12E4A5269FA
:1031B00002432D4B5A6104E02B4A526982432A4B49
:1031C0005A61704729B1284A92690243264B9A6195
:1031D00004E0254A92698243234B9A61704729B1E2
:1031E000214AD2690243204BDA6104E01E4AD269C7
:1031F00082431D4BDA61704729B11B4AD2680243F2
:10320000194BDA6004E0184AD2688243164BDA6040
:10321000704729B1144A12690243134B1A6104E042
:10322000114A12698243104B1A61704714494039A0
:10323000086070470F49C86470470B49C8717047F0
:103240000948406A40F0807007494862704701466B
:103250000020054A92680A4201D0012000E00020C7
:103260007047014988727047001002400000FFF863
:10327000FFFFF6FE00004242D8004242201002400A
:103280008004424200127A0000093D00B400002090
:10329000C400002010B50446FC48844209D1012135
:1032A0008803FFF7A9FF00214FF48040FFF7A4FF38
:1032B00032E0F748844209D101214804FFF7A9FF11
:1032C00000214FF40030FFF7A4FF25E0F1488442CD
:1032D00009D101218804FFF79CFF00214FF48020D1
:1032E000FFF797FF18E0EC48844209D10121C80498
:1032F000FFF78FFF00214FF40020FFF78AFF0BE05C
:10330000E648844208D101210805FFF782FF002129
:103310004FF48010FFF77DFF10BD2DE9F04786B018
:1033200005460E460024A24600BFA1460027B089EC
:1033300000B100BF2F462C8A4CF6FF700440F08885
:1033400004432C82AC894EF6F3100440B0883189D6
:103350000843718908430443AC81AC8A4FF6FF40AF
:103360000440B0890443AC8201A8FFF7BEFEC74801
:10337000874202D1DDF810A001E0DDF80CA0A88999
:1033800010F4004F08D00AEBCA0000EB0A103168B5
:103390004900B0FBF1F807E00AEBCA0000EB0A10A5
:1033A00031688900B0FBF1F86420B8FBF0F004014B
:1033B0002009642101FB1089A88910F4004F08D06E
:1033C000322000EBC900B0FBF1F000F0070004432D
:1033D00008E0322000EB09106421B0FBF1F000F0AE
:1033E0000F0004432C8106B0BDE8F0874FF416515E
:1033F000016000218180C18001810C214181002177
:103400008181704710B502460020108A4FF2FF03F9
:1034100018400B884C8823438C882343CC88234353
:103420001843108210BD0021018041808180C1803D
:10343000704721B1828942F40052828104E082897E
:103440004DF6FF731A4082817047F0B503460024A1
:10345000002600250020A1F510676A3F00D100BFBB
:103460001846C1F3421401F01F06012707FA06F5BA
:10347000012C01D10C3004E0022C01D1103000E00D
:1034800014301AB107682F43076002E00768AF43A2
:103490000760F0BD10B51AB1838A0B43838204E044
:1034A000838ACC43A4B22340838210BD028A4FF6A4
:1034B000F0731A400282028A0A43028270478289AC
:1034C0004FF2FF731A40828182890A4382817047DA
:1034D00021B1828942F00202828104E082894FF6A2
:1034E000FD731A4082817047028A4FF6DF731A40DB
:1034F0000282028A0A430282704721B1028A42F4A0
:103500008042028204E0028A4BF6FF731A40028274
:103510007047C1F308028280704701468888C0F373
:1035200008007047818941F0010181817047028B59
:10353000D2B20283028B42EA012202837047028BDD
:1035400002F47F420283028B0A430283704721B157
:10355000828A42F02002828204E0828A4FF6DF7380
:103560001A408282704721B1828A42F01002828220
:1035700004E0828A4FF6EF731A408282704721B1CD
:10358000828A42F00802828204E0828A4FF6F77350
:103590001A408282704721B1828942F400428281BE
:1035A00003E08289C2F30E028281704721B1828AD0
:1035B00042F40062828204E0828A4FF2FF731A4072
:1035C00082827047828A4FF6FB731A408282828A17
:1035D0000A438282704721B1828A42F002028282CB
:1035E00004E0828A4FF6FD731A40828270470246D9
:1035F0000020B1F5007F00D100BF13880B4201D03D
:10360000012000E00020704701F40072B2F5007F55
:1036100000D100BFCA430280704770B50246002443
:10362000002300250020A1F510666A3E00D100BFEE
:10363000C1F3421501F01F03012606FA03F3012D21
:1036400002D19689334006E0022D02D1168A33401A
:1036500001E0968A33400C12012606FA04F416881B
:10366000344013B10CB1012000E0002070BD10B552
:1036700000220023A1F510646A3C00D100BF0A12A9
:1036800001249440A3B2DC43048010BD0038014003
:103690000044004000480040004C00400050004002
:1036A00010B50446F948844208D101214015FFF7BE
:1036B000A3FD00216015FFF79FFD17E0F448844249
:1036C00008D101210015FFF797FD00212015FFF714
:1036D00093FD0BE0EF48844208D10121C803FFF7B6
:1036E0008BFD00214FF40040FFF786FD10BD30B583
:1036F0000246002000235068E74C20400D790C68FA
:1037000044EA0524204350609068E44C2040D1E90D
:1037100002542C434D7944EA450420439060D06A1A
:1037200020F470000C7C641EE4B2234340EA035092
:10373000D06230BD00210160017141718160C160C2
:1037400001210174704721B1826842F00102826058
:1037500003E0826822F001028260704721B1826832
:1037600042F48072826003E0826822F48072826098
:10377000704710B50023CBB21AB144681C434460B3
:1037800002E044689C43446010BD816841F0080138
:1037900081607047014600208A6812F0080F01D04E
:1037A000012000E000207047816841F00401816041
:1037B0007047014600208A6812F0040F01D00120F2
:1037C00000E00020704721B1826842F4A0028260CC
:1037D00003E0826822F4A002826070470146002064
:1037E0008A6812F4800F01D0012000E000207047A9
:1037F00010B50A4600210023416821F46041531EA0
:1038000041EA4331416010BD21B1426842F4006297
:10381000426003E0426822F4006242607047F0B503
:1038200004460D4600200021092D11DDE068A5F1B8
:103830000A0606EB4607072606FA07F18843A5F1B4
:103840000A0606EB460603FA06F10843E0600CE0C0
:10385000206905EB4507072606FA07F1884305EBC3
:10386000450603FA06F108432061072A0FDA606B68
:10387000561E06EB86071F2606FA07F18843561EDA
:1038800006EB860605FA06F10843606322E00D2A7E
:103890000FDA206BD61F06EB86071F2606FA07F104
:1038A0008843D61F06EB860605FA06F10843206317
:1038B00010E0E06AA2F10D0606EB86071F2606FA65
:1038C00007F18843A2F10D0606EB860605FA06F11C
:1038D0000843E062F0BD21B1826842F48012826048
:1038E00003E0826822F48012826070470146C86C4F
:1038F00080B2704765484C300068704721B142681B
:1039000042F48062426003E0426822F480624260D6
:10391000704721B1426842F48052426003E042683D
:1039200022F48052426070470A460021816821F4E7
:10393000E04111438160704721B1826842F4004246
:10394000826003E0826822F400428260704721B105
:10395000826842F40212826003E0826822F402125A
:1039600082607047014600208A6812F4001F01D06F
:10397000012000E000207047F0B504461546002005
:1039800000220026092911DDE068A1F10A0707EBF2
:10399000470C072707FA0CF29043A1F10A0707EB3F
:1039A000470703FA07F21043E0600CE0206901EBDF
:1039B000410C072707FA0CF2904301EB410703FA89
:1039C00007F210432061A06BC0F30156EF1C06F113
:1039D000010CA7EB0C0707EB870C1F2707FA0CF26B
:1039E0009043EF1C06F1010CA7EB0C0707EB8707D0
:1039F00001FA07F21043A063F0BD10B50A4600219A
:103A00000023816B21F44011531E41EA035181636D
:103A100010BD10B5002303460B441A6010BD0246CA
:103A20000023134601F128000344186880B2704750
:103A30000A46002141681A4B194011434160704702
:103A40004162826270470A460021416821F01F01ED
:103A500011434160704740B10C490831096841F495
:103A600000010A4A0832116007E008490831096874
:103A700021F40001054A0832116070470246002017
:103A800013680B420ED001200DE00000002401401D
:103A900000280140003C0140FFFEF0FFFDF7F1FF70
:103AA000FFFD3FFF00207047CA430260704770B5BA
:103AB00002460020002300240B125568CEB205EA0E
:103AC000060415681D4202D00CB1012000E0002060
:103AD00070BD00220A12D34303607047002044499E
:103AE0000860091D0860091D0860091D086041483B
:103AF0003F4914310860704700213D498279002A0E
:103B00003AD00A46126803689A430B461A600A1DA7
:103B1000126803689A430B1D1A60027911440A68FF
:103B200003681A430A60324A0832126803689A43EB
:103B30002F4B08331A601A1D126803689A432C4BE6
:103B40000C331A604279102A0ED11A1F12680368CA
:103B50001A43274B08331A601A1D126803681A4368
:103B6000234B0C331A600DE02149427911440A6855
:103B700003681A430A6005E0027911440A68036881
:103B80009A430A6070470021016001710C21417164
:103B90000021817170471649103109680143144AA8
:103BA00010321160704701460020114A1432126829
:103BB0000A4201D0012000E0002070470C49143176
:103BC00008607047014600200022094B1B6803EA89
:103BD0000102074B14331B680B4202D00AB10120CB
:103BE00000E000207047024914310860704700006F
:103BF00000040140FFFF0F000E49086070470D49A7
:103C0000486070470B49886070474AF6AA20094906
:103C1000086070474CF6CC40064908607047014682
:103C20000020044AD2680A4201D0012000E00020AE
:103C3000704700000030004010B50446FE48844242
:103C400008D10121C014FFF7D7FA0021E014FFF7D3
:103C5000D3FAC4E0B4F1804F08D101210846FFF740
:103C6000D8FA00210120FFF7D4FAB8E0F3488442E3
:103C700008D101210220FFF7CCFA00210220FFF732
:103C8000C8FAACE0EE48844208D101210420FFF7D5
:103C9000C0FA00210420FFF7BCFAA0E0E948844202
:103CA00008D101210820FFF7B4FA00210820FFF70E
:103CB000B0FA94E0E448844208D101211020FFF7D3
:103CC000A8FA00211020FFF7A4FA88E0DF48844218
:103CD00008D101212020FFF79CFA00212020FFF7C6
:103CE00098FA7CE0DA48844208D101214014FFF7B9
:103CF00083FA00216014FFF77FFA70E0D548844210
:103D000009D10121C804FFF777FA00214FF4002000
:103D1000FFF772FA63E0D048844209D10121080517
:103D2000FFF76AFA00214FF48010FFF765FA56E0BA
:103D3000CA48844209D101214805FFF75DFA0021F4
:103D40004FF40010FFF758FA49E0C548844208D103
:103D500001214020FFF75DFA00214020FFF759FACA
:103D60003DE0C048844208D101218020FFF751FA8C
:103D700000218020FFF74DFA31E0BB48844208D192
:103D800001218015FFF745FA0021A015FFF741FA40
:103D900025E0B648844209D101210804FFF72CFA36
:103DA00000214FF48030FFF727FA18E0B048844232
:103DB00009D101214804FFF71FFA00214FF4003018
:103DC000FFF71AFA0BE0AB48844208D101218804BE
:103DD000FFF712FA00214FF48020FFF70DFA10BD13
:103DE00000220288944B98420ED0994B98420BD0F7
:103DF000B0F1804F08D0914B984205D0904B98423B
:103E000002D0904B984204D14FF68F731A404B88E2
:103E10001A438D4B984207D08C4B984204D04FF6F2
:103E2000FF431A40CB881A4302808B8883850B8816
:103E30000385814B98420BD0854B984208D08B4B21
:103E4000984205D08A4B984202D08A4B984201D1C1
:103E50000B7A038601238382704770B50024002209
:103E60000023058C4FF6FE7635400584028C83884E
:103E7000048B4FF68F752C40B51E2C400D882C43BB
:103E8000751E2A400D892A434D882A436A4DA8424F
:103E90000BD06F4DA84208D0744DA84205D0744D88
:103EA000A84202D0734DA84213D14FF6F7752A40AD
:103EB0004D892A434FF6FB752A408D882A434FF6D9
:103EC000FF652B404FF6FF552B408D892B43CD8945
:103ED0002B4383800483CD888586028470BD70B5B2
:103EE000002400220023058C4FF6EF763540058430
:103EF000028C8388048B48F6FF752C404FF6FF45F3
:103F00002C400D882D0644EA15444FF6DF752A40F3
:103F10000D892D0542EA15424D882D0542EA1542CC
:103F2000454DA84202D04A4DA8421BD14FF67F759D
:103F30002A404D892D0542EA15424FF6BF752A40A9
:103F40008D882D0542EA15424FF6FF352B404FF282
:103F5000FF752B408D89AD0443EA1543CD89AD042F
:103F600043EA154383800483CD880587028470BDAE
:103F700070B5002400220023058C4FF6FF66354003
:103F80000584028C8388848B4FF68F752C404FF606
:103F9000FC752C400D882C434FF6FF552A400D89A7
:103FA0002D0642EA15424D882D0642EA1542224D61
:103FB000A84202D0264DA8421BD14FF2FF752A40DD
:103FC0004D892D0642EA15424FF6FF352A408D886D
:103FD0002D0642EA15424EF6FF752B404DF6FF7551
:103FE0002B408D892D0543EA1543CD892D0543EAE4
:103FF000154383808483CD888587028470BD70B526
:10400000002200230024058C4EF6FF7635400584FF
:10401000038C8488828B48F6FF752A404FF6FF4553
:104020002A400D882D0642EA15424DF6FF752B40B9
:104030000D892D0720E00000002C01400004004005
:1040400000080040000C0040001000400014004038
:1040500000340140004C0140005001400054014038
:1040600000180040001C00400020004000400140BB
:10407000004401400048014043EA15434D882D07A4
:1040800043EA1543F84DA84202D0F84DA84206D1A4
:104090004BF6FF752C408D89AD0544EA15448480AC
:1040A0008283CD88A0F84050038470BD828B4FF28C
:1040B000FF331A408283828B0B0642EA13428283CB
:1040C0007047F0B50C461546002200210026078CEB
:1040D0004EF6FF7C07EA0C070784828B018C2707CA
:1040E0003E0C40F6FF473A402F0642EA17421F07B0
:1040F00042EA1742DC4FB8420ED0DC4FB8420BD038
:10410000B0F1804F08D0DA4FB84205D0D94FB8424D
:1041100002D0D94FB84206D14DF6FF77394046F468
:104120008057394305E047F6FF57394044F480573C
:10413000394382830184F0BD828B4FF6F3731A40BA
:104140008283828B0A4382837047F0B50C46154602
:10415000002200210026078C4FF6FF6C07EA0C07AF
:104160000784828B018C27063E0C4FF60C773A4071
:104170001F0545EA17473A43BB4FB8420ED0BB4F25
:10418000B8420BD0B0F1804F08D0B94FB84205D03B
:10419000B84FB84202D0B84FB84206D14FF6FF57D9
:1041A000394046F48077394305E04FF2FF573940F4
:1041B00044F48077394382830184F0BD028B4FF24F
:1041C000FF331A400283028B0B0642EA134202833A
:1041D0007047F0B50C461546002200210026078CDA
:1041E0004FF6EF7C07EA0C070784028B018C27054A
:1041F0003E0C40F6FF473A401F0742EA17422F069F
:1042000042EA1742984FB8420ED0984FB8420BD0AE
:10421000B0F1804F08D0964FB84205D0954FB842C4
:1042200002D0954FB84206D14FF6DF77394046F0BD
:104230001007394305E04FF65F77394044F0100727
:10424000394302830184F0BD028B4FF6F3731A40A9
:104250000283028B0A4302837047F0B50C46154671
:1042600000220021068C4FF6FE773E400684028B2A
:10427000018C4FF60C7632401E0545EA1646324355
:10428000794EB0420ED0794EB0420BD0B0F1804F93
:1042900008D0774EB04205D0764EB04202D0764E6E
:1042A000B04206D14FF6FD76314044F0010631436D
:1042B00005E04FF6F576314044F0010631430283C4
:1042C0000184F0BD70B505460C46674885420ED0A6
:1042D000664885420BD0B5F1804F08D064488542CE
:1042E00005D06448854202D06348854200D100E091
:1042F00000BF208850B92389A28861882846FFF72B
:10430000ACFFE1882846FFF79FFF25E020880428BE
:104310000AD12389A28861882846FFF75AFFE188DD
:104320002846FFF74BFF17E0208808280AD1238989
:10433000A28861882846FFF708FFE1882846FFF732
:10434000FBFE09E02389A28861882846FFF7B9FEB1
:10435000E1882846FFF7AAFE70BD2DE9F041054629
:104360000C4600260127608808B9022600E00026D6
:10437000A088012801D1022700E001272088A0B9E8
:104380002389A28861882846FFF767FFE1882846CD
:10439000FFF75AFF23893A4631462846FFF719FFAF
:1043A000E1882846FFF70AFF13E02389A288618885
:1043B0002846FFF70EFFE1882846FFF7FFFE238916
:1043C0003A4631462846FFF748FFE1882846FFF77E
:1043D0003BFFBDE8F0810A884B881A438B881A435B
:1043E000CB881A430B891A434B891A438B891A438A
:1043F000A0F8442070474FF6FF71818000210180B2
:10440000C18041800172704700210180418081801C
:10441000C180018141818181C1817047002101807A
:104420004180012181800021C180018170470021EC
:10443000018041808180C1800181418181817047FB
:1044400021B1028842F00102028004E002884FF6A6
:10445000FE731A400280704781B1B0F8442042F4E4
:104460000042A0F844200FE0002C0140003401403D
:104470000004004000080040000C0040B0F8442058
:10448000C2F30E02A0F84420704710B51AB1838918
:104490000B43838104E08389CC43A4B2234083810E
:1044A00010BD8182704741EA0203A0F8483070478E
:1044B00010B51AB183890B43838104E08389CC430F
:1044C000A4B22340838110BD01894FF6F8721140D8
:1044D000018170470A46002101894FF68F73194008
:1044E00011430181704730B504460D4629462046E8
:1044F000FFF7F0FF208940F00700208130BD2DE953
:10450000F04104460D4616461F46602D06D13B4637
:10451000012231462046FFF75CFE05E03B460122C2
:1045200031462046FFF799FE29462046FFF7D2FF85
:10453000208940F007002081BDE8F08130B50C46AD
:1045400000210189C9B21D0642EA154525432943C8
:10455000018130BD2DE9F04105460E4617469846CB
:10456000002443463A4631462846FFF7E7FF2C89A8
:104570004FF6F870044044F007044FF68F70044083
:1045800044F070042C81BDE8F081F0B504460D467E
:1045900016461F463B46324629462046FFF7CEFFC9
:1045A000208940F480402081F0BD018582827047DF
:1045B0000A46002101884FF68F731940114301808C
:1045C0007047F0B50C4615461E4600210022002318
:1045D0000189028B038C4FF6F877394021434FF65F
:1045E000FC473A4040F201173A434FF6DD773B4033
:1045F000370545EA17473B43018102830384F0BD39
:104600000A460021018B4FF68F7319401143018335
:1046100070470A460021018B48F6FF7319401306C4
:1046200041EA1341018370470A460021818B4FF60E
:104630008F7319401143818370470A460021818B93
:1046400048F6FF731940130641EA1341818370470E
:1046500021B1028842F08002028004E002884FF615
:104660007F731A400280704721B1828842F00402B1
:10467000828004E082884FF6FB731A408280704784
:1046800021B1828842F00802828004E082884FF6DD
:10469000F7731A408280704721B1828842F001028C
:1046A000828004E082884FF6FE731A408280704751
:1046B0000A460021018B4FF6F7731940114301831D
:1046C00070470A460021018B4FF2FF731940130611
:1046D00041EA1341018370470A460021818B4FF65E
:1046E000F77319401143818370470A460021818B7B
:1046F0004FF2FF731940130641EA1341818370475B
:104700000A460021018B4FF6FB73194011430183C8
:1047100070470A460021018B4FF6FF3319401306FC
:1047200041EA1341018370470A460021818B4FF60D
:10473000FB7319401143818370470A460021818B26
:104740004FF6FF331940130641EA13418183704746
:104750000A460021018B4FF67F73194011430183F4
:1047600070470A460021018BC1F30E01130641EA8E
:104770001341018370470A460021818B4FF67F73F6
:1047800019401143818370470A460021818BC1F390
:104790000E01130641EA1341818370470A46002146
:1047A000018C4FF6FD7319401143018470470A468E
:1047B0000021018C4FF6F7731940114301847047B3
:1047C0000A460021018C4FF6DF731940130541EAB8
:1047D0001341018470470A460021018C4FF67F7314
:1047E0001940130541EA1341018470470A4600212C
:1047F000018C4FF6FF531940130641EA134101841F
:1048000070470A460021018C4FF2FF7319401306CE
:1048100041EA1341018470470A460021018C4DF69C
:10482000FF731940130741EA13410184704730B503
:10483000002301248C40A3B2048CDD43ADB22C4094
:104840000484048C02FA01F5ADB22C43048430BD1B
:1048500030B5002304248C40A3B2048CDD43ADB2F8
:104860002C400484048C02FA01F5ADB22C4304847C
:1048700030BD70B5034600200024184618300125CD
:104880008D40ACB21D8CE643B6B235401D8409B1F3
:10489000082909D100EB6100056825F07005056065
:1048A0000568154305600CE00D1FADB200EB650017
:1048B000056825F4E04505600568160645EA1645D5
:1048C000056070BD21B1028842F00202028004E05E
:1048D00002884FF6FD731A400280704721B10288AA
:1048E00042F00402028004E002884FF6FB731A4093
:1048F0000280704721B1828842F08002828004E009
:1049000082884FF67F731A408280704702884FF684
:10491000F7731A40028002880A4302807047828837
:104920004FF68F731A40828082880A4382807047D4
:1049300002894FF6F8731A40028102890A43028104
:10494000704702894FF67F731A40028102890A4339
:1049500002817047818470478185704781867047E6
:104960000187704781877047A0F840107047028820
:104970004FF6FF431A40028002880A4302807047C4
:104980000146888E70470146088F70470146888F20
:1049900070470146B1F8400070470146888C704767
:1049A0000146088D704702460020138A0B4201D051
:1049B000012000E000207047CA430282704730B5F2
:1049C0000246002000230024158A05EA0103958988
:1049D00005EA010413B10CB1012000E0002030BD54
:1049E000CA4302827047000010B50121C802FEF7D9
:1049F00010FC00214FF40060FEF70BFC10BD0021FD
:104A0000164A126822F4C0710143144A11607047BB
:104A10000021124A126822F07F0100F07F02114348
:104A20000E4A1160704701200D490860704700F080
:104A30007F010A4A121F1160704740F08001074A47
:104A4000121F116070470548001D0068C0B2704712
:104A500000200249091D086070470000042C004036
:104A6000A48005427FB505460C4601210420FEF7CF
:104A7000B6FBADF80850ADF804400020ADF80A00D0
:104A8000ADF8060001A9FC48FFF7AAF9012211467A
:104A9000F948FFF7FAFC1E208DF8000000208DF881
:104AA000010003208DF8020001208DF80300684604
:104AB000FEF70BF80121F048FFF7C2FC7FBD70B58F
:104AC00004460D461646012E26D10CB1032C04D106
:104AD000012D02D1F320FDF7BEFB012C05D10DB154
:104AE000032D02D1ED20FDF7B6FB0CB1032C05D14F
:104AF0000DB1032D02D1EB20FDF7ADFB012C04D14C
:104B0000012D02D1F520FDF7A6FB022C04D1022DC8
:104B100002D1E120FDF79FFB36BB0CB1032C04D181
:104B2000012D02D17320FDF796FB012C05D10DB1AB
:104B3000032D02D16D20FDF78EFB0CB1032C05D1A6
:104B40000DB1032D02D16B20FDF785FB012C04D1A3
:104B5000012D02D17520FDF77EFB022C04D1022D20
:104B600002D16120FDF777FB70BD70B504460025CA
:104B7000C2480578AC4208D10120C149C871032060
:104B800006F06DF80120BD49087070BD10B503F046
:104B9000DEFF0121B848FFF712FF002838D00121BD
:104BA000B548FFF71DFFB648C079B8B9B5480088C9
:104BB00040B9B3494878FFF7D8FFB0480078401CA7
:104BC000AE490870AF480088002807DDAD4800886E
:104BD000401EAC4908800120A8490870AA48007806
:104BE000002804DDA8480078401EA7490870A648A0
:104BF000007828B9A54A1179D0780022FFF75FFF25
:104C0000A348006820B1A2480068401EA04908607F
:104C100003F0B8FF10BD7FB505460C460121022008
:104C2000FEF7DDFAADF80850ADF804400020ADF80D
:104C30000A00ADF8060001A99648FFF7D1F8012255
:104C400011469448FFF721FC1D208DF8000000203C
:104C50008DF8010002208DF8020001208DF803007C
:104C60006846FDF732FF01218A48FFF7E9FB7FBD67
:104C7000F0B505AC70CC854F38707970BA70FB70A8
:104C80003C717D71BE71F0BD3EB503F060FF012146
:104C90008048FFF794FE002841D001217D48FFF7AE
:104CA0009FFE7D48007801281BD17C480078401C7D
:104CB0007A49087008460078782812D100200870D8
:104CC00075490870714880790022704909796F4BE5
:104CD000CDE9001202909A78597818780023FFF7EE
:104CE000C7FF6D484078012819D16C484078401CB6
:104CF0006A49487008464078782810D100204870EA
:104D000065494870002161484079CDE900105F4C49
:104D10000291E378A27861782078FFF7A9FF03F089
:104D200031FF3EBD10B5ADF5007D03F010FF40F240
:104D300025515B48FEF771FC00287DD05848FEF7EE
:104D4000ECFBC1B257480468601C564A10600DF86D
:104D5000041010460068401E1DF80000262804D1EB
:104D60008DF800000120114608604E480068401E82
:104D70001DF800002A281AD100204A4908609DF831
:104D80000100212804D169464748006804F082FFE9
:104D90009DF80100232805D169464448006804F0C5
:104DA00079FF04E069464248006804F073FF3D481B
:104DB0000068401E1DF80000252804D18DF8000071
:104DC00001203849086037480068401E1DF800007F
:104DD000292802D100203349086032480068401E6B
:104DE0001DF80000242804D18DF8000001202D4971
:104DF00008602C480068401E1DF800003F2802D1C2
:104E000000202849086027480068401E1DF800005F
:104E10002D2804D18DF80000012022490860214886
:104E20000068401E1DF800003D2817D100201D49D4
:104E300008601348C07900E018E001280ED1002076
:104E40000F49C871DE201B49087014200D490880E5
:104E5000022005F004FF032005F093FF11480068CD
:104E6000B0F5007F02D300200E49086003F08AFEEF
:104E70000DF5007D10BD000000080040D0000020AE
:104E8000430B0020CC0000209000002018010020DF
:104E9000040000200004004024010020F100002054
:104EA00000440040C800002000010020FC00002059
:104EB000F80000207D00002070B505460E46012058
:104EC000FB4908604FF000040FE000BF4021F948A3
:104ED000FEF78DFB0028F9D0295DF648FEF719FB97
:104EE0006420FDF7C7FC601CC4B2B442EDDB00BF18
:104EF0004021F048FEF77BFB0028F9D00020EE4966
:104F00000860EB49086070BD10B50020EB49C8711E
:104F1000262008704FF42040FCF76AFAE7494870F1
:104F200000208870C8700871487188712A20087242
:104F300008464078E24908704FF48070FCF758FA50
:104F4000E04908704FF48050FCF752FADE490870CF
:104F500010BD10B502460020D3B24FF47F4404EADE
:104F60000124234498B210BD10B50446207A5E286F
:104F70001AD1A1786078FFF7ECFFD4490880217935
:104F8000E078FFF7E6FFD2490860A1796079FFF782
:104F9000E0FFD0490880E079CF490870607A40B2DC
:104FA000CE490870002010BD207A2F2811D1C348A7
:104FB0004078A178884201D0A07850B96078BF4984
:104FC0008870E078087120794871607988710120D3
:104FD000E9E70020E7E72DE9F04705460E461746CA
:104FE0009846DDE908944FF0000A06F075F882460D
:104FF0002F2C1FD12620BA490870084645708670AC
:10500000C77080F8048080F8059000208871B2484D
:105010000078C871084604722A2048720A21B048F4
:10502000FFF74AFFAE4205D1A44807714946404602
:10503000FBF7FBF95E2C25D12620A9490870A3486F
:1050400000884870A1480088000A8870A04800685D
:10505000C8709F480068000A08719E48008848711F
:105060009C480088000A88719B480078C8710846EF
:1050700004729A48007848722A2088720B21984856
:10508000FFF71AFF504606F02BF8BDE8F0877CB515
:105090000446002510E05E200021CDE9001087497C
:1050A000487800231A461946FFF795FF42F2107020
:1050B000FDF7E0FB681CC5B2A542ECDD7CBD704786
:1050C000F0B5DDE905457D4E7678864F3E703E466B
:1050D0007070B170F27033717471B571F0BD70B5EC
:1050E0000446002505F0F8FF054626207E49087095
:1050F00023204870207888706078C870A078087184
:10510000E0784871207988716079C871A079087257
:105110002A2048720A217448FFF7CEFE284605F07F
:10512000DFFF70BD70B50446002505F0D5FF0546CC
:1051300026206D4908702320487020788870E07818
:10514000C870207908712A20487106216648FFF747
:10515000B3FE284605F0C4FF70BD70B504460025B7
:1051600005F0BAFF054626205F49087023204870E5
:10517000207888706078C870A0780871E0784871ED
:10518000207988712A20C87108215748FFF794FEBA
:10519000284605F0A5FF70BD10B5002405F09CFF62
:1051A00004462620504908702B2048702A20887019
:1051B00003214D48FFF780FE204605F091FF10BD0A
:1051C00010B5002405F088FF0446262046490870E3
:1051D000212048702A20887003214348FFF76CFE85
:1051E000204605F07DFF10BD2DE9F04102460C463A
:1051F00001230027002001210BE04FF0000C02F8F2
:1052000011C002EB410888F801C001F1010C0CF05B
:10521000FF01DFF8D8C09CF800C08C45EDDA012111
:105220003CE0DFF8C8C01CF801C00CEB8C0CA444B7
:105230009CF802C0BCF1000F2CD1DFF8B0C01CF804
:1052400001C00CEB8C0CA4449CF801C0BCF1000F15
:1052500020D0DFF898C01CF801C00CEB8C0C14F8BF
:105260000CC002F813C0DFF884C01CF801C00CEBBE
:105270008C0CA4449CF801C002EB430888F801C0E0
:1052800003F1010C0CF0FF0300F1010C0CF0FF0026
:1052900007B9012701F1010C0CF0FF01DFF84CC048
:1052A0009CF800C08C45BCDA012F7DD1022152E070
:1052B000BC81214200440040C8000020430B002074
:1052C00078000020790000207A0000208000002073
:1052D00084000020820000207E000020EF000020DB
:1052E0005E0E0020180100206D0E0020400E0020F0
:1052F00002EB410C9CF8015012F81160A1F1010C75
:105300000CF0FF0313E012F8138003F1010C02F814
:105310001C8002EB430C9CF8018003F1010C02EBB2
:105320004C0C8CF80180A3F1010C0CF0FF03012B55
:1053300005DB02EB430C9CF801C0AC45E3DB03F159
:10534000010C02F81C6002EB4C0C8CF8015001F1CE
:10535000010C0CF0FF018142CADD012132E012F89C
:1053600011C0DFF8F88F98F80180C44526D102EB10
:10537000410C9CF8015012F811600B4613E003F148
:10538000010C02EB4C0C9CF801C002EB430888F8BE
:1053900001C003F1010C12F81CC002F813C003F1A4
:1053A000010C0CF0FF0300E00FE08342E7DB02EBAF
:1053B000400C8CF8015002F8106005E001F1010C7E
:1053C0000CF0FF018142CADB00BF5070BDE8F081E4
:1053D0002DE9F04703460C46154601224FF0000820
:1053E0000020012113E04FF0000901EB410A03F80E
:1053F0000A9001EB410A9A448AF8029001EB410AB3
:105400009A448AF8019001F1010909F0FF01DFF8DF
:10541000509F99F800904FEA49098945E3DA012144
:1054200049E0DFF83C9F19F8019009EB8909A14494
:1054300099F80290B9F1000F39D1DFF8249F19F8DB
:10544000019009EB8909A14499F80190B9F1000F85
:105450002DD0DFF80C9F19F8019009EB890914F899
:10546000099002EB420A03F80A90DFF8F49E19F85B
:10547000019009EB8909A14499F8019002EB420AD5
:105480009A448AF802904FF0010902EB420A9A44CA
:105490008AF8019002F1010909F0FF0200F1010907
:1054A00009F0FF00B8F1000F01D14FF0010801F140
:1054B000010909F0FF01DFF8A89E99F800908945DD
:1054C000AFDA012149E0DFF8989E19F8019009EB65
:1054D0008909A94499F80290B9F1000F39D1DFF890
:1054E000809E19F8019009EB8909A94499F8019067
:1054F000B9F1000F2DD0DFF8689E19F8019009EB83
:10550000890915F8099002EB420A03F80A90DFF8BE
:10551000509E19F8019009EB8909A94499F8019066
:1055200002EB420A9A448AF802904FF0020902EB19
:10553000420A9A448AF8019002F1010909F0FF0237
:1055400000F1010909F0FF00B8F1000F01D14FF09F
:10555000010801F1010909F0FF01DFF8049E99F843
:1055600000908945AFDAB8F1010F79D1022159E0F5
:1055700001EB4109994499F8026001EB410913F8E4
:10558000097001EB4109994499F801C0A1F10109A1
:1055900009F0FF0225E002EB420913F809A002F12D
:1055A000010909EB490903F809A002EB42099944F2
:1055B00099F802A002F1010909EB4909994489F817
:1055C00002A002EB4209994499F801A002F10109F5
:1055D00009EB4909994489F801A0A2F1010909F0F0
:1055E000FF02012A06DB02EB4209994499F8029076
:1055F000B145D0DB02F1010909EB490903F8097053
:1056000002F1010909EB4909994489F8026002F1A4
:10561000010909EB4909994489F801C001F101091F
:1056200009F0FF018142A3DD012155E001EB4109B1
:1056300013F80990DFF824AD9AF801A0D14547D1BD
:1056400001EB4109994499F8026001EB410913F813
:10565000097001EB4109994499F801C00A4626E016
:105660003DE002F1010909EB4909994499F80290DA
:1056700002EB420A9A448AF8029002F1010909EB0E
:10568000490913F8099002EB420A03F80A9002F163
:10569000010909EB4909994499F8019002EB420A82
:1056A0009A448AF8019002F1010909F0FF0282424E
:1056B000D7DB00EB4009994489F8026000EB400910
:1056C00003F8097000EB4009994489F801C005E02E
:1056D00001F1010909F0FF018142A7DB00BFBDE82C
:1056E000F0872DE9F04F02460D4601234FF0000AE6
:1056F0000020814601210EE04FF0000B01EB410E2E
:1057000002F80EB001EB410E96448EF801B001F1A3
:10571000010B0BF0FF01DFF848BC9BF800B08B4594
:10572000EADA012150E0DFF838BC1BF801B00BEBDE
:105730008B0BAB449BF802B0BBF1010F40D1DFF8FB
:1057400020BC1BF801B00BEB8B0BAB449BF801B0FA
:10575000BBF1000F34D0DFF808BC1BF801B00BEB35
:105760008B0B15F80BB003EB430E02F80EB0DFF80D
:10577000F0BB1BF801B00BEB8B0BAB449BF801B0FB
:1057800003EB430E96448EF801B0DFF8D4BB1BF850
:1057900001B00BEB8B0BAB449BF803B003EB430E58
:1057A00096448EF802B003F1010B0BF0FF03BAF13F
:1057B000000F01D14FF0010A00F1010B0BF0FF00C7
:1057C00001F1010B0BF0FF01DFF894BB9BF800B077
:1057D0008B45A8DABAF1010F74D1022159E001EB2F
:1057E000410B93449BF8017001EB410B12F80B80C5
:1057F00001EB410B93449BF802C0A1F1010B0BF0AC
:10580000FF0325E003EB430B12F80BB003F1010E8D
:105810000EEB4E0E02F80EB003EB430B93449BF8D5
:1058200001B003F1010E0EEB4E0E96448EF801B05E
:1058300003EB430B93449BF802B003F1010E0EEB14
:105840004E0E96448EF802B0A3F1010B0BF0FF034D
:10585000012B06DB03EB430B93449BF801B0BB45E4
:10586000D0DB03F1010B0BEB4B0B02F80B8003F1C8
:10587000010B0BEB4B0B93448BF8017003F1010B05
:105880000BEB4B0B93448BF802C001F1010B0BF0B7
:10589000FF018142A3DD012186E04FF000090B46A4
:1058A00016E001EB410B93449BF801B003EB430E70
:1058B00096449EF801E0F34505D109F1010B0BF088
:1058C000FF0901E073E005E003F1010B0BF0FF03BA
:1058D0008342E6DD00BF01F1010B0BF0FF0659E04A
:1058E00006EB460B93449BF8017006EB460B12F84F
:1058F0000B8006EB460B93449BF802C0A6F1010B0C
:105900000BF0FF0425E004EB440B12F80BB004F19C
:10591000010E0EEB4E0E02F80EB004EB440B934456
:105920009BF801B004F1010E0EEB4E0E96448EF87A
:1059300001B004EB440B93449BF802B004F1010E58
:105940000EEB4E0E96448EF802B0A4F1010B0BF054
:10595000FF048C4206DB04EB440B93449BF802B03B
:10596000E345D0DB04F1010B0BEB4B0B02F80B8092
:1059700004F1010B0BEB4B0B93448BF8017004F11A
:10598000010B0BEB4B0B93448BF802C006F1010BA0
:105990000BF0FF0601EB090BABF1010BB3459FDAEE
:1059A00001EB090B0BF0FF0181427FF776AFBDE8F9
:1059B000F08F2DE9F04F02460D4601234FF0000A0B
:1059C0000020814601210EE04FF0000B01EB410E5B
:1059D00002F80EB001EB410E96448EF801B001F1D1
:1059E000010B0BF0FF01DFF878B99BF800B08B4595
:1059F000EADA012150E0DFF868B91BF801B00BEBDF
:105A00008B0BAB449BF802B0BBF1010F40D1DFF828
:105A100050B91BF801B00BEB8B0BAB449BF801B0FA
:105A2000BBF1000F34D0DFF838B91BF801B00BEB35
:105A30008B0B15F80BB003EB430E02F80EB0DFF83A
:105A400020B91BF801B00BEB8B0BAB449BF801B0FA
:105A500003EB430E96448EF801B0DFF804B91BF84F
:105A600001B00BEB8B0BAB449BF803B003EB430E85
:105A700096448EF802B003F1010B0BF0FF03BAF16C
:105A8000000F01D14FF0010A00F1010B0BF0FF00F4
:105A900001F1010B0BF0FF01DFF8C4B89BF800B077
:105AA0008B45A8DABAF1010F74D1022159E001EB5C
:105AB000410B93449BF8017001EB410B12F80B80F2
:105AC00001EB410B93449BF802C0A1F1010B0BF0D9
:105AD000FF0325E003EB430B12F80BB003F1010EBB
