:020000040800F2
:1000000090380020AD2B00080110000803100008F4
:10001000071000080B1000080F1000080000000077
:1000200000000000000000000000000013100008A5
:100030001510000800000000ABB4000845290008B6
:1000400031290008C72B0008C72B0008C72B000860
:10005000C72B0008C72B0008C72B0008C72B0008B8
:10006000C72B0008C72B0008C72B0008C72B0008A8
:10007000C72B0008C72B0008C72B0008C72B000898
:10008000C72B0008C72B0008C72B0008C72B000888
:10009000C72B0008C72B0008C72B0008C72B000878
:1000A000C72B0008C72B0008C72B0008C72B000868
:1000B000C72B0008034E0008B94C0008C72B0008E6
:1000C000C72B0008C72B0008C72B0008C72B000848
:1000D000C72B0008192B0008FD4F0008C72B00088C
:1000E000350E0008C72B0008C72B0008C72B0008D7
:1000F000C72B0008C72B0008C72B0008C72B000818
:10010000C72B0008C72B0008C72B0008C72B000807
:10011000C72B0008C72B0008C72B0008C72B0008F7
:10012000C72B0008C72B0008C72B0008C72B0008E7
:1001300000F002F800F05CF80AA090E8000C82449D
:100140008344AAF10107DA4501D100F051F8AFF27A
:10015000090EBAE80F0013F0010F18BFFB1A43F0A5
:10016000010318472CDC00004CDC00000A444FF06F
:10017000000C10F8013B13F0070408BF10F8014B06
:100180001D1108BF10F8015B641E05D010F8016B4B
:10019000641E01F8016BF9D113F0080F1EBF10F8AF
:1001A000014BAD1C0C1B09D16D1E58BF01F801CBD2
:1001B000FAD505E014F8016B01F8016B6D1EF9D555
:1001C0009142D6D37047000000230024002500266A
:1001D000103A28BF78C1FBD8520728BF30C148BFAA
:1001E0000B6070471FB50DF076FB1FBD10B510BD3D
:1001F0000BF0EEFC1146FFF7F5FF00F0D6FD0BF01B
:100200000CFD03B4FFF7F2FF03BC02F02BFC00006F
:1002100010B503200AF077FF02200AF074FF632074
:10022000FE4908706F20FE4908800020FD490880C3
:1002300010BD1CB51EE0FC480078012817D12F2006
:100240000021CDE90010F949487801231A46002120
:1002500005F052F82F200021CDE90010F34948782D
:1002600002230122002105F047F8FFF7D1FF6420A7
:1002700002F0B9FBDFE72DE9FF470027B846B94692
:10028000BA46002614E00121072001F0A8FA8146B1
:100290004F4500D24F460121082001F0A0FA8246C6
:1002A000D04500D2D046242002F07AFB701C86B2E2
:1002B000B6F5007FE7DB38460CF042FD0446DC4A29
:1002C000DC4B0CF08DFD0022DB4BCDE900010CF086
:1002D000ADFFCDE902010CF0EFFCD84908604046C3
:1002E0000CF02EFDD24AD34BCDE900010CF078FD85
:1002F00004460022D04B0CF099FFCDE902010CF02E
:10030000DBFCCF490860BDE8FF8707E0C748C0793C
:1003100008B9FFF7B0FFC82002F065FBF6E708B5A3
:100320000BE06A460021C74800680AF096FABF4809
:10033000C079012801D107F061FAF2E7002440E01A
:10034000C1480078012803DBBF480078212815DD6B
:100350000220B649C8710BF081F8044603200AF068
:10036000D2FE02200AF0CFFE20460BF07BF8E120FF
:1003700002F005F8642002F036FB22E0B248007873
:1003800020281EDCB048007801281ADB0020A7498D
:10039000C871AD4800784870EB2001F0F0FF0BF019
:1003A0005DF8044603200AF01CFE05200AF019FE41
:1003B00002200AF016FE01200AF0A5FE20460BF0EE
:1003C00051F8BDE70EB506F0DAFFA04800783228F4
:1003D00003DA9F480078322829DB9E48007830BB3A
:1003E0009D480078012822D101219C4802F077FD28
:1003F0009B48807900210222994BCDE9002102908F
:100400009A7859781878022304F0EFFC642002F0FF
:10041000EAFA4FF48071914802F061FD904A117937
:10042000D078002204F0E1FB01208A490870874857
:1004300000782C2822DC864800782C281EDC854891
:10044000007801281AD100208249087001208549CE
:10045000487008708248807900210322804BCDE9E2
:10046000002102909A7859781878032304F0BDFC93
:100470007B4A1179D078002204F0B7FB0EBD06E06C
:10048000FFF7A0FF01F0D9FF642002F0ACFAF7E714
:1004900003B587B06548007910B9002009B000BDE8
:1004A0006A48007832287DDA6A480078002879D1D5
:1004B0005E4800790128FAD1674800780128F6D112
:1004C000694800680028F2D1079801283ED10898B1
:1004D00001283BD16248C078C0BB62480078A8BB05
:1004E00001215E4802F0FDFC5D4880795C49497954
:1004F0005B4A1279CDE90021029059488078069034
:100500005748407805905648007801230490DDE96B
:10051000051204F06AFC55480078002809DD5048AF
:10052000007906904E48C07801220590069904F0A3
:100530005CFB4E48007848B9494800790690484825
:10054000C07800220590069904F04FFB0798012817
:1005500040D1089838BB4248C07801283AD10121DF
:100560003E4802F0BCFC3E48807900223C490979B3
:10057000CDE9001202903A488078069038484078D9
:1005800005903748007803230490DDE9051204F054
:100590002CFC0120334908703448007800280CDD19
:1005A0002F4801E0CBE015E0007906902C48C07898
:1005B00001220590069904F018FB2C48007848B9F0
:1005C0002748007906902648C078002205900699B1
:1005D00004F00BFB079802286DD1089801286AD116
:1005E0001F480079C0B91F484078A8B94FF48071FE
:1005F0001A4802F076FC1A48807919494979012293
:10060000CDE9002102901648C07806901448807801
:100610000590134840782BE04DE000008100002059
:10062000820000208400002000000020530C0020E5
:100630005839B4C876BE9F3F000049408C00002066
:1006400090000020180100207C000020A80000205D
:10065000A900002004000020030000200008014041
:100660002401002032010020080000209400002016
:100670000490FE480078039004A90EC904F0B5FB6D
:10068000FB480078002809DDF84800790690F74813
:10069000C07801220590069904F0A7FAF448007882
:1006A00048B9F24800790690F048C07800220590D9
:1006B000069904F09AFA079802283ED10898E0BB00
:1006C000EA480079012838D10102EA4802F007FC23
:1006D0000021E64840790322CDE900200291E34859
:1006E000C0780690E14880780590E0484078049012
:1006F000DE480078039004A90EC904F076FB0120BF
:10070000DD494870DA480078002809DDD7480079CB
:100710000690D648C07801220590069904F065FA43
:10072000D348007848B9D14800790690CF48C078BE
:1007300000220590069904F058FA0120AEE6CF4851
:100740000079022804D1C94804F080FE0220A5E601
:10075000CA480079032808D1C9480078012804D183
:10076000C24804F0C0FE022098E6C448007904287C
:100770007ED1C34800780128FAD10798012838D1E2
:100780000898012835D10121BA4802F0AAFBB748E0
:100790008079B6494979B54A1279CDE900210290AC
:1007A000B24880780690B14840780590AF4800780C
:1007B00001230490DDE9051204F017FBAC48007832
:1007C000002809DDA94800790690A848C0780122D0
:1007D0000590069904F009FAA548007848B9A3489D
:1007E00000790690A148C07800220590069904F08F
:1007F000FCF90798012836D10898A0BB01219D4833
:1008000002F06DFB99488079002298490979CDE979
:1008100000120290954880780690944840780590A0
:100820009248007813460490DDE9051204F0DDFAE1
:100830008F480078002809DD8C48007906908B48A5
:10084000C07801220590069904F0CFF98848007815
:1008500048B98648007906908448C07800220590FF
:10086000069904F0C2F9079802283BD1089800E0E5
:1008700077E0012836D101027E4802F032FB7B4846
:1008800080797A4949790122CDE90021029077489F
:10089000C078069075488078059074484078049038
:1008A00072480078039004A90EC904F09EFA7048BB
:1008B0000078002809DD6D48007906906B48C07803
:1008C00001220590069904F090F96948007848B92A
:1008D0006648007906906548C07800220590069920
:1008E00004F083F90798022837D10898A8BB4FF481
:1008F0008071604802F0F3FA00215C484079CDE94C
:1009000000105A480291C0780690584880780590A7
:1009100056484078049055480078039004A90EC9C1
:1009200004F063FA52480078002809DD4F48007946
:1009300006904E48C07801220590069904F055F9BA
:100940004B48007848B94948007906904748C07834
:1009500000220590069904F048F904F0F6FD022003
:100960009CE546480079052804D1404804F0A0FDE4
:10097000052093E541480079062875D14048007864
:100980000128FAD10798012837D10898012834D1D5
:100990000121384802F0A5FA344881794079334A78
:1009A0001279CDE9002002913048807806902F48D6
:1009B000407805902D48007801230490DDE9051268
:1009C00004F013FA2A480078002809DD2748007946
:1009D00006902648C07801220590069904F005F992
:1009E0002348007848B92148007906901F48C0780C
:1009F00000220590069904F0F8F80798012845D1DF
:100A0000089890BB01211B4802F069FA17488079C9
:100A1000002216490979CDE9001202901348807826
:100A200006901248407805901048007813460490CC
:100A3000DDE9051204F0D9F90D480078002809DD38
:100A40000A48007906900948C07801220590069965
:100A500004F0CBF80648007838B9044800790690CD
:100A60000248C07800220DE08CE00FE02401002055
:100A7000940000200008014032010020530C0020A7
:100A8000030000200590069904F0AFF807980228AB
:100A900039D10898012836D10102FE4802F021FA26
:100AA000FD488079FC4949790122CDE90021029075
:100AB000F948C0780690F84880780590F648407864
:100AC0000490F5480078039004A90EC904F08DF94C
:100AD000F2480078002809DDEF4800790690EE48DA
:100AE000C07801220590069904F07FF8EB48007861
:100AF00048B9E94800790690E748C0780022059097
:100B0000069904F072F80798022837D10898A8BB14
:100B10004FF48071DF4802F0E2F90021DE484079AD
:100B2000CDE90010DC480291C0780690DA48807860
:100B30000590D94840780490D7480078039004A9DC
:100B40000EC904F052F9D5480078002809DDD248D2
:100B500000790690D048C07801220590069904F0EB
:100B600044F8CE48007848B9CB4800790690CA4886
:100B7000C07800220590069904F037F804F0F9FCDB
:100B800006208BE4072089E408B526E0C448C07934
:100B9000012802D102200AF0B6FA6A460021C148B3
:100BA000006809F07EF90546284604F06EFB04460D
:100BB0001420BD490880BD480078B94948700846EE
:100BC0004078B5490870012C07D11420B649088037
:100BD000B34A91795079FFF75BFCD7E71CB5002445
:100BE00053E0AF48C079012843D16F20B049087065
:100BF000AE480078AA49487008464078A64908706F
:100C0000AC48006809F0D8FEAB480078D0B1AA48DB
:100C10000078401EA84908702F200021CDE900105F
:100C20009F49487801231A46002104F065FB2F20D4
:100C30000021CDE900109A494878022301220021C1
:100C400004F05AFB9C480078012805D104209B49F8
:100C5000087000209849087099499A4807F045F8AB
:100C6000FFF709FB012005F0D0F94FF4487001F0BF
:100C7000BAFE8B48C07940B90AF0F0FB0446032065
:100C80000AF041FA20460AF0EDFBAAE770B50446E7
:100C9000002500BF002009F05AFD8B4908600020A4
:100CA00009F079F87F490860002009F074F8874955
:100CB0000860002009F04BFD7E490860002009F023
:100CC0006AF88349086008F02BFA0AF0C7FB05466A
:100CD0000323804A0021AFF2FB0009F08CFF0223BE
:100CE0007D4A0021AFF25F1009F085FF05237B4AA2
:100CF0000021AFF6750009F07EFF0123784A00213C
:100D0000AFF6C71009F077FF0423764A0021AFF64B
:100D1000F11009F070FF0723734A0021AFF6152088
:100D200009F069FF0023714A1946AFF6F92009F06E
:100D300062FF0C200AF0E7F928460AF093FB70BD29
:100D40001FB50121042002F0D3FA4FF48050ADF812
:100D50000C0004208DF80F0003A94E4802F014F88F
:100D60000C21002002F024F94FF480500190002063
:100D70008DF8080010208DF8090001208DF80A0078
:100D800001A802F04FFF28208DF8000001208DF807
:100D900001008DF802008DF80300684601F02BFF7A
:100DA0004FF4805002F08DFF1FBD1CB501F0D2FD45
:100DB00001F052FE4E4801F0F3FD00F02FFE01F06D
:100DC0001DFB00F057FB00F05DFC04F09FF84FF4B2
:100DD000165000F077FD41F61F4149F63C4003F004
:100DE000D7FE04F022FA00200090034602460521B7
:100DF0000190084604F01BFBFFF7A2FF41F61F41DC
:100E000042F20F7003F0C4FF002404E000202C49DC
:100E10000855601CC4B21E2CF8DB08F044F80C2303
:100E2000344A0021AFF29B1009F0E5FE08F060F9AA
:100E300000201CBD10B508F04CF84FF4805002F0B3
:100E400057FF00287ED04FF47A7001F0A9FD2A48A0
:100E5000006801286DD129480078002869D1012057
:100E6000264908700C48C078012812D10121094890
:100E700002F035F801202249087003200649C870A5
:100E8000102006490870044A1179D078012203F035
:100E9000ACFE37E00008014024010020940000204F
:100EA000530C002004010020D00000207C00002012
:100EB000800000201801002002000020EC0000202B
:100EC000500F0020690E00201001002008010020B2
:100ED0000C0100207803002078040020780700200F
:100EE0007802002078050020780A0020780B002086
:100EF00020A10700780800203001214203000020D3
:100F00003201002037480079012812D10102364809
:100F100001F0E5FF01203549487003213148017196
:100F20001020334908702F4A1179D078012203F03C
:100F30005CFE3048006828BB2F480078012821D18A
:100F40002E4800E046E0007801281BD102202B4902
:100F500008700020284908702248C07890B92348BA
:100F6000007878B90121204801F0BBFF01201D491C
:100F7000C87010201E4908701A4A1179D0780122D1
:100F800003F033FE1B48006820BB1B480078012893
:100F900020D11A48007802281CD101201749087076
:100FA0000020154908700F48007998B90F4840781B
:100FB00080B94FF480710C4801F093FF012109487A
:100FC000017110200A490870064A1179D07801226F
:100FD00003F00BFE4FF4805002F09BFE07F094FFED
:100FE00010BD000024010020000801403201002053
:100FF0009400002030012142030000200C0000205A
:10100000704700BFFEE700BFFEE700BFFEE700BF7E
:10101000FEE770477047000000210020674A126811
:1010200042F48032654B1A6000BF644A126802F4D1
:101030000030491C10B9B1F5A06FF6D15F4A1268B3
:1010400012F4003F01D0012000E00020012842D12D
:101050005B4A126842F01002594B1A601A46126835
:1010600022F003021A601A46126842F002021A6065
:10107000524A5268514B5A601A4652685A601A4690
:10108000526842F480625A601A46526822F47C1216
:101090005A601A46526842F4E8125A601A461268B8
:1010A00042F080721A6000BF444A126812F0007F5A
:1010B000FAD0424A526822F00302404B5A601A4664
:1010C000526842F002025A6000BF3C4A526802F085
:1010D0000C02082AF9D1704710B5FFF79DFF10BD2B
:1010E00010B53648006840F00100344908600846F1
:1010F0004068344908403149486008460068324930
:1011000008402E4908600846006820F480200860E6
:101110000846406820F4FE0048604FF41F008860D5
:10112000FFF7DAFF4FF000602849086010BD10B5E6
:10113000002100200022214B5B6803F00C0121B14B
:10114000042906D0082928D107E0214B214C23602F
:1011500027E01F4B1F4C236023E0184B5B6803F410
:101160007010164B5B6803F48032022303EB90404F
:1011700022B9194B4343174C23600DE00F4B5B68BA
:1011800013F4003F04D0144B4343124C236003E09C
:101190000F4B43430F4C236003E00D4B0D4C23607A
:1011A00000BF00BF054B5B68C3F303130B4CE15C4E
:1011B000084B1B68CB40074C236010BD0010024059
:1011C000002002400000FFF8FFFFF6FE08ED00E0FF
:1011D00000127A001000002000093D0014000020D9
:1011E0009C48806940F008009A4988619A480068E4
:1011F0009A49084098490860084600689849084399
:101200009549086094480830006820F4805092495D
:10121000083108600846006840F40050086008463D
:10122000006840F480400860704710B58A48006844
:1012300020F07060884908600846006840F04070FF
:1012400008600120874908608749C1F8B4014FF060
:10125000040001F0A5FB0020824908604FF0040063
:1012600001F09EFB00208049C1F8B40110BD10B50B
:101270007948006820F07060774908600846006887
:1012800040F0407008600020784908607649C1F855
:10129000B8014FF0040001F083FB0120734908609E
:1012A0007149C1F8B8014FF0040001F079FB10BD9D
:1012B00010B500246848006820F070606649086036
:1012C0000846006840F00060086001206549086039
:1012D00001F066FB01206449C1F8B40101F060FB34
:1012E00007E0601CC4B2FA2C03DDFFF7C0FF012049
:1012F00010BD5F4800680028F3D15C49086000BF5A
:10130000F6E710B50020594908605348006820F0FE
:101310007060514908600846006840F040700860FD
:101320004FF000005049C1F8B8014FF0020001F041
:1013300037FB01204D4908604FF0020001F030FBFF
:1013400000204949C1F8B40110BD10B5002047493B
:1013500008604148006820F070603F490860084616
:10136000006840F0407008604FF001003E49C1F84D
:10137000B8014FF0020001F013FB01203B49086067
:101380004FF0020001F00CFB00203749C1F8B40116
:1013900010BD70B504463048006820F070602E49DA
:1013A00008600846006840F04070086000202F493F
:1013B000086005461AE0E0092A4908604FEA4460DF
:1013C0004FEA10644FF0020001F0EAFA01202649CA
:1013D000C1F8B401022001F0E3FA002023490860BB
:1013E0004FF0020001F0DCFA681CC5B2082DE2DB08
:1013F00070BD70B5054600241748006820F0706085
:10140000154908600846006840F000600860002642
:1014100016E00020154908604FF0020001F0C0FA04
:1014200001201149C1F8B4016006040E104800689B
:1014300008B1601CC4B2012001F0B2FA701CC6B23F
:10144000082EE6DB15B9FFF780FF01E0FFF759FF33
:10145000204670BD00100240040C0140FFFF00F068
:1014600000003303B881214200802142B48121422F
:101470003881214210B5FFF7B3FE10BD70B50446A8
:101480000026FFF7D2FEA020FFF783FFFFF710FF33
:101490002012FFF77EFFFFF70BFF2546E11704EB55
:1014A00011610912A4EB0121C8B2FFF772FFFFF727
:1014B000FFFEFFF7BAFEA120FFF76BFFFFF7F8FE74
:1014C0000020FFF796FF0646FFF7D1FE304670BDBD
:1014D00070B504460E46FFF7A8FEA020FFF759FF9F
:1014E000FFF7E6FE2012FFF754FFFFF7E1FE254667
:1014F000E11704EB11610912A4EB0121C8B2FFF757
:1015000048FFFFF7D5FE3046FFF743FFFFF7D0FE59
:10151000FFF7ADFE0A2001F066FA70BD2DE9F0413B
:1015200005460E461746002409E0E20026FA02F2BC
:10153000D1B22A1990B2FFF7CBFF601CC4B2BC42F3
:10154000F3DBBDE8F0812DE9F04107460C460026AB
:10155000002509E036023919491B491E88B2FFF7F8
:101560008DFF0644681CC5B2A542F3DB3046BDE8DA
:10157000F08110B5FF20FFF781FF0446552C01D103
:10158000002010BD5521FF20FFF7A2FFFF20FFF72D
:1015900075FF0446552C01D10020F2E70120F0E749
:1015A00070B506460C46154608E03046721C96B2E9
:1015B000FFF764FF04F8010B681E85B2002DF4D11B
:1015C00070BD70B505460C46164606E021782846E3
:1015D000FFF77EFF681C85B2641C3000A6F1010194
:1015E0008EB2F3D170BDF8B504460D461646E8B28A
:1015F0008DF80000280A8DF801000CE09DF800101D
:101600002046FFF765FF2046FFF738FF9DF80010E2
:10161000884200D100E0F1E700BF10E09DF8011022
:1016200004F5805080B2FFF753FF04F5805080B27C
:10163000FFF724FF9DF80110884200D100E0EDE79C
:1016400000BFF8BDF8B506460D46022D17D130464D
:10165000FFF714FF8DF8000006F5805080B2FFF709
:101660000DFF8DF8010000249DF8010004442006C0
:10167000040C9DF80000204484B22046F8BD0020F0
:10168000FCE7000000B587B0012140F2046001F0E2
:101690002FFE0121082001F02BFE4FF4004001F045
:1016A0008EFD7220ADF8040000208DF8070001A91E
:1016B000804801F069FB804802F088F80020029021
:1016C0008DF80C008DF80D004FF460200490002080
:1016D000059001208DF8180002A9774802F09DF8C6
:1016E0000121754802F0C5F8734802F0E4F800BF24
:1016F000714802F0E5F80028FAD16F4802F0EAF8E4
:1017000000BF6D4802F0EBF80028FAD16B4802F0F8
:101710005DF8002002908DF80C008DF80D004FF45C
:10172000602004900020059001208DF8180002A987
:10173000624802F072F80121604802F09AF85F48AE
:1017400002F0B9F800BF5D4802F0BAF80028FAD1FB
:101750005A4802F0BFF800BF584802F0C0F800280D
:10176000FAD140F20110ADF8040010208DF8070006
:1017700003208DF8060001A94E4801F005FB012168
:101780004C4801F0ACFB4FF480714A4801F0A7FBD4
:101790004FF44060ADF8040010208DF807000320DE
:1017A0008DF8060001A9464801F0EEFA07B000BD29
:1017B00010B504460723012221463F4802F0C5F830
:1017C00001213D4802F095F800BF02213A4802F09D
:1017D000EBF90028F9D0384802F01EF910BD2DE9C8
:1017E000F04107460C460025002605E03846FFF785
:1017F000DFFF0544701CC6B2A642F7DBB5FBF4F070
:1018000080B2BDE8F08110B50446022301222146D2
:10181000294802F09AF80121274802F06AF800BF2F
:101820000221254802F0C0F90028F9D0224802F030
:10183000F3F810BD2DE9F04107460C4600250026BF
:1018400005E03846FFF7DFFF0544701CC6B2A6422C
:10185000F7DBB5FBF4F080B2BDE8F08110B50446CB
:10186000062301222146154802F06FF80121134892
:1018700002F03FF800BF0221104802F095F900285D
:10188000F9D00E4802F0C8F810BD2DE9F041074626
:101890000C460025002605E03846FFF7DFFF05442B
:1018A000701CC6B2A642F7DBB5FBF4F080B2BDE80F
:1018B000F0810000000801400024014000280140A0
:1018C000000C014010B586B0044601210C2001F047
:1018D0000FFD0121480401F018FD4FF40040ADF860
:1018E000140010208DF8170003208DF8160005A9AC
:1018F000264801F049FA0420ADF8140018208DF8AC
:10190000170005A9224801F03FFA0820ADF814009D
:1019100004208DF8170005A91D4801F035FA0121B2
:10192000480401F00CFD00214FF4003001F007FDE8
:1019300001940020ADF80800ADF80A00ADF80C00E5
:10194000ADF810000C20ADF80E0001A9114801F00F
:101950007AFD26208DF8000003208DF801008DF817
:10196000020001208DF80300684601F044F90122CD
:1019700040F22551074801F0FEFD0121054801F024
:10198000EEFD00200449086006B010BD000C0140C7
:101990000008014000440040BC81214270B504466B
:1019A0000E46FE480078012823D10020FB4908702C
:1019B000002519E014F0800F03D10020F8490860D9
:1019C00002E00120F64908604FF00000F549086088
:1019D0004FF0010000F0E4FF0120F349C1F89C0141
:1019E0006006040E681CC5B2B542E3DB0120EB497A
:1019F000087070BD10B504460020EC4908604FF037
:101A000003014FF08000FFF7C9FF09212046FFF7CF
:101A1000C5FF0120E449C1F8940110BD10B5E448A8
:101A2000806940F00800E2498861E248006820F0DF
:101A3000F000E04908600846006840F030000860A7
:101A4000081F0068C0F31300091F086008460068FB
:101A5000D9490843D749091F0860D64808300068AB
:101A600040F40070D349083108600846006840F02F
:101A7000200008600846006840F040000860084602
:101A8000006840F0800008600220FFF7B3FF2920C3
:101A9000FFF7B0FF0120FFF7ADFF0320FFF7AAFF1C
:101AA00010BD70B504460E46BC480078012822D10E
:101AB0000020BA490870002518E014F0010F03D186
:101AC0000020B749086002E00120B54908604FF0E6
:101AD0000000B44908604FF0010000F061FF0120F0
:101AE000B149C1F89C016410681CC5B2B542E4DB81
:101AF0000120AA49087070BD70B504460D46292022
:101B0000FFF778FF0120FFF775FF0320FFF772FF53
:101B10000020A64908604FF003014FF0A000FFF736
:101B20003DFFA106080E0621FFF738FF04212846D5
:101B3000FFF7B7FF01209C49C1F8940170BD2DE962
:101B4000F04105460C4616462920FFF753FF0120B9
:101B5000FFF750FF0320FFF74DFF00209349086077
:101B60004FF003014FF0A000FFF718FFA906080E81
:101B70000621FFF713FF002706E020780421FFF776
:101B800090FF781CC7B2641CB742F6DB012087497E
:101B90000860BDE8F08170B52920FFF72BFF012018
:101BA000FFF728FF0320FFF725FF00240DE00025A5
:101BB00007E00020A840C1B22046FFF79DFF681C47
:101BC000C5B2042DF5DB601CC4B2162CEFDB70BD72
:101BD0002DE9F35F0C4604210C20FFF78DFF012156
:101BE0000E20FFF789FF01211120FFF785FF01215A
:101BF0000F20FFF781FF71480078012803D10121F0
:101C00000620FFF779FF6D48007818B901210520FB
:101C1000FFF772FF009D6A48007801280AD164200E
:101C200095FBF0F0C6B26748022202FB06011020C5
:101C3000FFF785FF6248007818B905211120FFF7EA
:101C40005BFF642095FBF0F100FB11500A2190FB33
:101C5000F1F0C7B25C48022202FB07011220FFF735
:101C60006EFF0A2095FBF0F100FB11500A2190FB5A
:101C7000F1F201FB120000F0FF085348022202FBC0
:101C800008011420FFF75BFF642094FBF0F01FFABB
:101C900080F94D48022202FB09011046FFF74FFF71
:101CA000642094FBF0F100FB11400A2190FBF1F05D
:101CB0001FFA80FA4548022202FB0A010A20FFF7B8
:101CC0003EFF0A2094FBF0F100FB11401FFA80FB5D
:101CD0003E48022202FB0B010820FFF730FFBDE85F
:101CE000FC9F2DE9F047044601210C20FFF704FF7B
:101CF00032480078012803D101210620FFF7FCFEBD
:101D00002E48007818B901210520FFF7F5FE0121C2
:101D10000F20FFF7F1FE25462C4642F21070B5FB6E
:101D2000F0F086B22848022202FB06011020FFF7DD
:101D300006FF42F21070B5FBF0F100FB11404FF4CA
:101D40007A71B0FBF1F72048022202FB0701122052
:101D5000FFF7F5FE4FF47A70B5FBF0F100FB114090
:101D60006421B0FBF1F81848022202FB080114209C
:101D7000FFF7E5FE6420B5FBF0F100FB11400A21FE
:101D8000B0FBF1F91048022202FB09010020FFF725
:101D9000D6FE0A20B5FBF0F11AE000007400002026
:101DA000988121429C8121420080214294812142DC
:101DB00000100240040C01400000303303000020FA
:101DC000F40000204C0000202400002038000020F7
:101DD00000FB114AFE48022202FB0A011046FFF7EF
:101DE000AEFEBDE8F0872DE9F05F04460E46012106
:101DF0000C20FFF781FEF7480078012803D101216C
:101E00000620FFF779FEF348007818B90121052074
:101E1000FFF772FE01210F20FFF76EFE042107205D
:101E2000FFF76AFE012E03D104210846FFF764FE86
:101E3000022E03D102210420FFF75EFE032E03D100
:101E400001210420FFF758FE25462C4642F210706F
:101E5000B5FBF0F087B2DE48022202FB070110203A
:101E6000FFF76DFE42F21070B5FBF0F100FB114080
:101E70004FF47A71B0FBF1F8D548022202FB080159
:101E80001220FFF75CFE4FF47A70B5FBF0F100FB17
:101E900011406421B0FBF1F9CD48022202FB090197
:101EA0001420FFF74CFE6420B5FBF0F100FB11405D
:101EB0000A21B0FBF1FAC648022202FB0A01002007
:101EC000FFF73DFE0A20B5FBF0F100FB114BC048C7
:101ED000022202FB0B011046FFF731FEBDE8F09F26
:101EE0002DE9F047044605210F20FFF705FEB9480C
:101EF0000078012803D101210620FFF7FDFDB54838
:101F0000007818B901210520FFF7F6FD25462C467B
:101F100042F21070B5FBF0F086B2AD48022202FB2F
:101F200006011420FFF70BFE42F21070B5FBF0F132
:101F300000FB11404FF47A71B0FBF1F7A448022284
:101F400002FB07010020FFF7FAFD4FF47A70B5FBA2
:101F5000F0F100FB11406421B0FBF1F89C48022233
:101F600002FB08011046FFF7EAFD6420B5FBF0F123
:101F700000FB11400A21B0FBF1F99748022202FB55
:101F800009010A20FFF7DBFD0A20B5FBF0F100FB99
:101F9000114A9148022202FB0A010820FFF7CFFDF7
:101FA000BDE8F0872DE9F05F04460D4604210E20C0
:101FB000FFF7A2FD08210C20FFF79EFD8548007861
:101FC000012803D101210620FFF796FD8148007802
:101FD00018B901210520FFF78FFD01210F20FFF720
:101FE0008BFD642094FBF0F0C6B27948022202FB1C
:101FF00006011020FFF7A3FD642094FBF0F100FB25
:1020000011400A2190FBF1F0C7B27148022202FB95
:1020100007011220FFF793FD0A2094FBF0F100FB6B
:10202000114000F0FF086A48022202FB0801142058
:10203000FFF785FD642095FBF0F000F0FF09644890
:10204000022202FB09011046FFF779FD642095FB8F
:10205000F0F100FB11500A2190FBF1F000F0FF0AB3
:102060005D48022202FB0A010A20FFF768FD0A20F0
:1020700095FBF0F100FB115000F0FF0B56480222D7
:1020800002FB0B010820FFF75AFDBDE8F09F2DE988
:10209000F05F04460D4608210720FFF72DFD4D484F
:1020A0000078012803D101210620FFF725FD4948CA
:1020B000007818B901210520FFF71EFD01210F202E
:1020C000FFF71AFD642094FBF0F0C6B240480222EC
:1020D00002FB06011020FFF732FD642094FBF0F1B3
:1020E00000FB11400A2190FBF1F0C7B238480222F0
:1020F00002FB07011220FFF722FD0A2094FBF0F1FA
:1021000000FB114000F0FF083148022202FB0801E9
:102110001420FFF714FD642095FBF0F000F0FF0998
:102120002B48022202FB09011046FFF708FD64203C
:1021300095FBF0F100FB11500A2190FBF1F000F04B
:10214000FF0A2548022202FB0A010A20FFF7F7FCDA
:102150000A2095FBF0F100FB115000F0FF0B1E4828
:10216000022202FB0B010820FFF7E9FCBDE8F09F0B
:102170002DE9F041044608210D20FFF7BDFC15486C
:102180000078012803D101210620FFF7B5FC114892
:10219000007818B901210520FFF7AEFC01210F20BE
:1021A000FFF7AAFC642094FBF0F0C5B208480222B5
:1021B00002FB05011046FFF7C2FC642094FBF0F11E
:1021C00000FB11400A2190FBF1F0C6B2024805E085
:1021D000240000200300002038000020022202FB1F
:1021E00006010A20FFF7ABFC0A2094FBF0F100FB8C
:1021F0001140C7B27B48022202FB07010820FFF70B
:102200009EFCBDE8F0812DE9F0410446082106203E
:10221000FFF772FC08210720FFF76EFC01210F2059
:10222000FFF76AFC642094FBF0F0C5B26E4802220E
:1022300002FB05011046FFF782FC642094FBF0F1DD
:1022400000FB11400A2190FBF1F0C6B26548022262
:1022500002FB06010A20FFF772FC0A2094FBF0F152
:1022600000FB1140C7B25F48022202FB07010820B1
:10227000FFF765FCBDE8F0812DE9F041044601213E
:102280000F20FFF739FC04210A20FFF735FC02225A
:1022900054490A310820FFF752FC4FF47A7094FB3E
:1022A000F0F0C5B25048022202FB05011220FFF7F0
:1022B00046FC4FF47A7094FBF0F100FB114064216E
:1022C00090FBF1F0C6B24848022202FB060114203E
:1022D000FFF735FC642094FBF0F100FB11400A216C
:1022E00090FBF1F0C7B24048022202FB0701002038
:1022F000FFF725FC0A2094FBF0F100FB114000F0F1
:10230000FF083948022202FB08011046FFF717FCBC
:10231000BDE8F0812DE9F041044604210C20FFF7CF
:10232000EBFB01210F20FFF7E7FB642094FBF0F0AB
:10233000C5B22D48022202FB05011046FFF7FFFB44
:10234000642094FBF0F100FB11400A2190FBF1F0B6
:10235000C6B22448022202FB06010A20FFF7EFFB67
:102360000A2094FBF0F100FB1140C7B21D48022285
:1023700002FB07010820FFF7E2FBBDE8F08170B522
:1023800004461A48007801282BD10020174908700C
:102390001749086005461AE000201649086014F045
:1023A000800F03D101F10401086002E0012012490D
:1023B00008604FF0030000F0F3FA01200D490860B7
:1023C0004FEA44604FEA106405F10100C5B2082DE0
:1023D000E2DB0A2000F0E4FA012005490860034925
:1023E000087070BD38000020240000207400002018
:1023F000A4812142988121429C812142FA4880692E
:1024000040F00400F8498861F848006820F47F2013
:10241000F64908600846006840F408200860F34860
:102420000830006840F00100F049083108600846B3
:10243000006840F001000860704770B50024EC4867
:10244000006800287ED1EB48007800287AD0002070
:10245000E8490870E848007801281BD108E040F6F8
:10246000B83000F09DFA601CC4B2C82C00DB03E059
:10247000DF4800680028F2D000BFC82C0ADB00202B
:10248000DE490870FFF787FBDD48007800F5C8706B
:10249000FFF740FFD848007802281ED108E040F638
:1024A000B83000F07DFA601CC4B2C82C00DB03E039
:1024B000CF4800680028F2D000BFC82C0DDB0020F8
:1024C000D0490870FFF767FBCF49D04A1278895C82
:1024D000322201FB02F0FFF7CFFEC7480078072841
:1024E00019D108E040F6B83000F05AFA601CC4B2C6
:1024F000C82C00DB03E0BE4800680028F2D000BF13
:10250000C82C08DB0020C2490870FFF744FBC14813
:102510000078FFF778FEC82C7EDABD4800780128E5
:1025200067D1B8480078012863D1B4480078012801
:102530005FD1B948007800285BDDAF480078401CC7
:10254000AD4900E0CBE0087008460078082801DDBE
:1025500001200870A8480078092849D2DFE800F077
:1025600048050E151C242C353E00FFF714FBAB4824
:102570000188AB480078FFF72BFB39E0FFF70BFB36
:10258000A8480068FFF7ADFB32E0FFF704FBA64860
:102590000088FFF7A5FC2BE0FFF7FDFA0121A34817
:1025A0000068FFF720FC23E0FFF7F5FA0321A048BD
:1025B0000068FFF718FC1BE0FFF7EDFA9D48017873
:1025C0009D480078FFF7EEFC12E0FFF7E4FA91482F
:1025D00001789A480078FFF75AFD09E0FFF7DBFA27
:1025E0004FF41040FEF74AFF0546FFF7C1FD00BF5C
:1025F00000BF81480078012820D180480078E8B9E0
:102600001020854908707E480078401D7C4908707C
:1026100008460078322800E057E001DD002008700D
:10262000FFF7B9FA7648007800F5C870FFF772FE38
:10263000734801784FF48050FEF74AFF6E480078E7
:10264000022821D16F480078F0B910207249087033
:102650006E480078401C6D490870084600781228C2
:1026600001DD00200870FFF796FA6749674A127883
:10267000895C322201FB02F0FFF7FEFD634801781E
:102680004FF48070FEF724FF5B48007807281CD1C8
:102690005F480078C8B910205F4908705D4800782D
:1026A000401C5C49087008460078202801DD0120A4
:1026B0000870FFF770FA57480078FFF7A4FD5548F7
:1026C00001784FF42040FEF703FF5D4A1179D0787E
:1026D000012202F08AFA10204F490870D7E04448DE
:1026E00000680128FAD1434908704348007801285E
:1026F00013D108E040F6B83000F052F9601CC4B2C3
:10270000FA2C00DB03E03A4800680128F2D000BF51
:10271000FA2C02DB0120394908703748007802287A
:1027200013D108E040F6B83000F03AF9601CC4B2AA
:10273000FA2C00DB03E02E4800680128F2D000BF2D
:10274000FA2C02DB01202F4908702B48007807285B
:1027500013D108E040F6B83000F022F9601CC4B292
:10276000FA2C00DB03E0224800680128F2D000BF09
:10277000FA2C02DB01202649087025480078012840
:1027800031D12048007801282DD11C48007801283B
:102790007DD119480078092878D2DFE800F0770564
:1027A0000E151C535B646D00FFF7F5F91B4801889B
:1027B0001B480078FFF70CFA68E0FFF7ECF91948BE
:1027C0000068FFF78EFA61E0FFF7E5F91648008828
:1027D000FFF786FB5AE0FFF7DEF901211348006896
:1027E000FFF701FB52E052E00010024004080140F4
:1027F0002C012142780000207F0000207B00002077
:102800007E0000207A000020950000207D0000203E
:10281000790000207C00002094000020820000202D
:102820008100002088000020840000208C0000200F
:1028300090000020A9000020A800002080000020B7
:1028400024010020FFF7A7F9032111480068FFF7D2
:10285000CAFA1BE0FFF79FF90E4801780E4800788E
:10286000FFF7A0FB12E0FFF796F90C4801780C483F
:102870000078FFF70CFC09E0FFF78DF94FF41040EA
:10288000FEF7FCFD0546FFF773FC00BF00BF70BDFF
:1028900090000020A9000020A80000207C0000205B
:1028A0008000002070B505460C4645F2555001F0F9
:1028B00039FA284601F039FA204601F039FA01F0D8
:1028C0003AFA01F03DFA70BD10B501F034FA10BDCE
:1028D00008B500208DF800008DF801008DF8020089
:1028E000684600F088F908BD70B506460C461546E6
:1028F0000121C80200F009FD11480078304010495C
:102900000870284602F011F9204602F017F90C4829
:10291000007802F028F902F031F9FFF7D9FF02F050
:1029200018F970BD10B50446204602F01CF910BD20
:1029300010B50348007802F010F902F01FF910BD3D
:10294000AA00002010B506F0C4FA06F008FC06F054
:10295000DBFA10BD10B56FF0040000F097F93948AC
:1029600000683949B0FBF1F0384908703548006813
:102970003549B0FBF1F441F2883044430520344935
:1029800008804FF0E020006940F002004FF0E021A5
:10299000086108464461006940F00100086110BD0B
:1029A00070B5034600224FF0E0267569274E367851
:1029B00003FB06F400BF4FF0E026B16910E04FF0D2
:1029C000E026B06988420BD0884202D20E1A324407
:1029D00002E02E1A0E4432440146A24200D300E027
:1029E000EDE700BF70BD70B504461A4800780128B5
:1029F00011D117480088844206DB1548008894FBF3
:102A0000F0F5284608F04AFC1148008894FBF0F1E4
:102A100000FB114084B24FF47A7104FB01F0FFF720
:102A2000BFFF70BD10B504460948008894FBF0F163
:102A300000FB114084B24FF47A7104FB01F0FFF700
:102A4000AFFF10BD1000002000127A00AC00002083
:102A5000AE0000205A01002010B54FF4A06000F035
:102A6000C5F810BD014600BF704700BF4B4A128831
:102A700012F0400FFAD0C2B2484B1B1D1A807047AB
:102A800010B586B00446012144F2050000F030FC88
:102A90004FF40070ADF8140003208DF816001820D4
:102AA0008DF8170005A93E4800F06EF94FF48060DC
:102AB000ADF8140004208DF8170005A9384800F07F
:102AC00063F925208DF8000003208DF801008DF8B2
:102AD000020001208DF80300684600F08CF8019494
:102AE0000020ADF80800ADF80A00ADF80C00ADF814
:102AF00010000C20ADF80E0001A9284800F0A3FC3E
:102B0000012240F22551254800F035FD01212348DE
:102B100000F025FD06B010BD10B506F0DAF940F260
:102B200025511E4800F00FFE10B31C4800F08BFD2D
:102B3000C4B21C48008810F4004F2BD119480088FB
:102B400010F4804F0CD00A2C03D0002015490880C7
:102B500020E01448008840F400401249088019E041
:102B60000D2C06D10F48008840F480400D490880A4
:102B700010E00C480088C0F30D000B490C540948C4
:102B80000088401C0749088008460088C72801DDE6
:102B90000020088006F0B8F910BD000000380140A0
:102BA00000080140B00000207C0B0020094880474D
:102BB00009480047FEE7FEE7FEE7FEE7FEE7FEE71F
:102BC000FEE7FEE7FEE7FEE704480549054A064B37
:102BD00070470000E1100008310100089032002029
:102BE0009038002090340020903400203149014377
:102BF000314A1160704770B5002100230F22C4785C
:102C00000CB32D4C246804F4E064C4F5E064210A9C
:102C1000C1F10403CA40447804FA03F184781440F3
:102C200021430901254C0678A155047804F01F05BD
:102C30000124AC4005786D114FF0E02606EB8505C8
:102C4000C5F8004109E0047804F01F050124AC40F8
:102C50001B4D0678761145F8264070BD194A0A408A
:102C60000243154B1B1F1A60704739B1124A121DDF
:102C700012680243104B1B1D1A6006E00E4A121D1B
:102C8000126882430C4B1B1D1A607047042808D140
:102C90004FF0E021096941F004014FF0E022116199
:102CA00007E04FF0E021096921F004014FF0E02234
:102CB000116170470000FA050CED00E000E400E04F
:102CC00080E100E080FFFF1F10B50446CA4884423F
:102CD00008D10121042000F025FB0021042000F090
:102CE00021FB46E0C548844208D10121082000F0BC
:102CF00019FB0021082000F015FB3AE0C04884428F
:102D000008D10121102000F00DFB0021102000F05F
:102D100009FB2EE0BB48844208D10121202000F0AD
:102D200001FB0021202000F0FDFA22E0B648844299
:102D300008D10121402000F0F5FA0021402000F0E8
:102D4000F1FA16E0B148844208D10121802000F058
:102D5000E9FA0021802000F0E5FA0AE0AC4884425C
:102D600007D10121801500F0DDFA0021A01500F047
:102D7000D9FA10BD10B50121084600F0D3FA0021A0
:102D8000012000F0CFFA10BD2DE9F04102460025E8
:102D90000026002000230024002791F803C00CF037
:102DA0000F0591F803C01CF0100F03D091F802C07A
:102DB0004CEA0505B1F800C01CF0FF0F31D01468D3
:102DC00000202BE04FF0010C0CFA00F3B1F800C02A
:102DD0000CEA03069E4220D183004FF00F0C0CFA40
:102DE00003F7BC4305FA03FC4CEA040491F803C062
:102DF000BCF1280F06D14FF0010C0CFA00FCC2F810
:102E000014C00AE091F803C0BCF1480F05D14FF09F
:102E1000010C0CFA00FCC2F810C0401C0828D1D3E9
:102E20001460B1F800C0BCF1FF0F34DD546800201D
:102E30002EE000F1080C4FF0010808FA0CF3B1F88D
:102E400000C00CEA03069E4221D183004FF00F0C14
:102E50000CFA03F7BC4305FA03FC4CEA040491F8AE
:102E600003C0BCF1280F05D100F1080C08FA0CF8DA
:102E7000C2F8148091F803C0BCF1480F07D100F1EB
:102E8000080C4FF0010808FA0CF8C2F81080401C3A
:102E90000828CED35460BDE8F0814FF6FF71018061
:102EA000022181700421C17070470246002093689E
:102EB0000B4201D0012000E00020704701468868E5
:102EC00080B2704702460020D3680B4201D0012037
:102ED00000E0002070470146C86880B27047016179
:102EE0007047416170470AB1016100E0416170477C
:102EF000C16070474FF480320A4382618161826110
:102F000082698269704702460020424B18684FF67A
:102F10008073184040EA021008433E4B1860704727
:102F20003D49C8617047F0B50A46002300240021DE
:102F3000002500F00046B6F1004F02D1354EF16990
:102F400001E0344E7168C0F3034583B200F44016CB
:102F5000B6F5401F08D121F070612E4E766826F03C
:102F600070662C4F7E6012E000F48016B6F5801F6C
:102F700006D1032606FA05F4A14341F0706106E08C
:102F8000460D360103FA06F6B14341F0706122B1F5
:102F9000460D360103FA06F6314300F00046B6F15D
:102FA000004F02D11B4EF16101E01A4E7160F0BD7D
:102FB00030B500228B071C0F0F2303FA04F2154BC8
:102FC00008338C1053F824309343124C08348D107E
:102FD00044F8253023468C1053F824308C07240FF6
:102FE00000FA04F423430B4C08348D1044F82530C8
:102FF00030BD0A490860704700080140000C0140DC
:10300000001001400014014000180140001C014064
:10301000002001400000014000002042DC0020426E
:10302000DC48006840F00100DA4908600846406862
:10303000D9490840D749486008460068D749084040
:10304000D44908600846006820F4802008600846DB
:10305000406820F4FE0048604FF41F00886070470D
:10306000CC49096821F48031CA4A116011460968C7
:1030700021F480211160B0F5803F03D0B0F5802F9E
:103080000ED106E0C349096841F48031C14A11609C
:1030900007E0C049096841F4A021BE4A116000E080
:1030A00000BF00BF704710B501460022002300207A
:1030B0004A11012A02D1B74C236806E0022A02D144
:1030C000B44C236A01E0B34C636A01F01F0201248F
:1030D00094401C4201D0012000E0002010BD70B5DA
:1030E00000240025002600BF3120FFF7DCFF064644
:1030F000641CB4F5A06F01D0002EF5D03120FFF78D
:10310000D2FF08B1012500E00025284670BD014628
:103110000020A04A106820F0F80040EAC1001060CA
:1031200070479F490860704702460020994B5868D5
:1031300020F47C1042EA01031843964B5860704714
:1031400097490866704701460020924A506820F06F
:1031500003000843506070478E48406800F00C0040
:103160007047014600208B4A506820F0F000084369
:103170005060704701460020864A506820F4E060A5
:1031800008435060704701460020824A506820F48E
:10319000605040EAC1005060704729B17D4A527AC0
:1031A00002437C4B5A7206E07A4A527AC343DBB23E
:1031B0001A40784B5A7270477A4908607047014646
:1031C0000020744A506820F4404008435060704723
:1031D0000021754A11706F4A82F82010012802D030
:1031E000042808D103E001216F4A117004E0052191
:1031F0006D4A117000E000BF00BF70476B49086066
:1032000070476449096A0143624A1162704767491D
:1032100044390860704730B50021002200240023A3
:103220005C4D6D6805F00C0121B1042905D0082919
:1032300023D105E05E4D056022E05D4D05601FE095
:10324000544D6D6805F47012524D6D6805F480346C
:10325000022505EB92421CB9564D554305600BE023
:103260004C4D6D6815F4003F03D0524D5543056039
:1032700002E04F4D5543056002E04D4D056000BF33
:1032800000BF444D6D6805F0F00109094A4D6B5CC3
:103290000568DD4045603F4D6D6805F4E061090A51
:1032A000454D6B5C4568DD4085603A4D6D6805F4C1
:1032B0006051C90A404D6B5C4568DD40C560354DC5
:1032C0006D6805F44041890B3C4D6B5CC568B5FBEE
:1032D000F3F5056130BD29B12E4A526902432D4BE9
:1032E0005A6104E02B4A526982432A4B5A61704763
:1032F00029B1284A92690243264B9A6104E0254A83
:1033000092698243234B9A61704729B1214AD2695D
:103310000243204BDA6104E01E4AD26982431D4B0E
:10332000DA61704729B11B4AD2680243194BDA604F
:1033300004E0184AD2688243164BDA60704729B11C
:10334000144A12690243134B1A6104E0114A1269CC
:103350008243104B1A617047144940390860704726
:103360000F49C86470470B49C87170470948406AE3
:1033700040F0807007494862704701460020054AC6
:1033800092680A4201D0012000E000207047014904
:1033900088727047001002400000FFF8FFFFF6FE41
:1033A00000004242D80042422010024080044242C3
:1033B00000127A0000093D00B8000020C80000207B
:1033C00010B50446FC48844209D101218803FFF767
:1033D000A9FF00214FF48040FFF7A4FF32E0F74837
:1033E000844209D101214804FFF7A9FF00214FF4CD
:1033F0000030FFF7A4FF25E0F148844209D1012104
:103400008804FFF79CFF00214FF48020FFF797FF0F
:1034100018E0EC48844209D10121C804FFF78FFF6E
:1034200000214FF40020FFF78AFF0BE0E6488442BA
:1034300008D101210805FFF782FF00214FF4801019
:10344000FFF77DFF10BD2DE9F04786B005460E461B
:103450000024A24600BFA1460027B08900B100BFEA
:103460002F462C8A4CF6FF700440F08804432C82CF
:10347000AC894EF6F3100440B08831890843718955
:1034800008430443AC81AC8A4FF6FF400440B08946
:103490000443AC8201A8FFF7BEFEC748874202D1B1
:1034A000DDF810A001E0DDF80CA0A88910F4004FB1
:1034B00008D00AEBCA0000EB0A1031684900B0FBE3
:1034C000F1F807E00AEBCA0000EB0A103168890046
:1034D000B0FBF1F86420B8FBF0F00401200964218E
:1034E00001FB1089A88910F4004F08D0322000EBAE
:1034F000C900B0FBF1F000F00700044308E03220FF
:1035000000EB09106421B0FBF1F000F00F00044360
:103510002C8106B0BDE8F0874FF416510160002100
:103520008180C18001810C2141810021818170470E
:1035300010B502460020108A4FF2FF0318400B8896
:103540004C8823438C882343CC8823431843108220
:1035500010BD0021018041808180C180704721B170
:10356000828942F40052828104E082894DF6FF7321
:103570001A4082817047F0B50346002400260025DA
:103580000020A1F510676A3F00D100BF1846C1F3C3
:10359000421401F01F06012707FA06F5012C01D19C
:1035A0000C3004E0022C01D1103000E014301AB1CC
:1035B00007682F43076002E00768AF430760F0BD6C
:1035C00010B51AB1838A0B43838204E0838ACC430B
:1035D000A4B22340838210BD028A4FF6F0731A40D2
:1035E0000282028A0A430282704782894FF2FF7385
:1035F0001A40828182890A438281704721B182897F
:1036000042F00202828104E082894FF6FD731A4083
:1036100082817047028A4FF6DF731A400282028A63
:103620000A430282704721B1028A42F48042028238
:1036300004E0028A4BF6FF731A4002827047C1F31E
:1036400008028280704701468888C0F308007047EE
:10365000818941F0010181817047028BD2B20283DE
:10366000028B42EA012202837047028B02F47F42FE
:103670000283028B0A430283704721B1828A42F09F
:103680002002828204E0828A4FF6DF731A4082822F
:10369000704721B1828A42F01002828204E0828A5D
:1036A0004FF6EF731A408282704721B1828A42F04E
:1036B0000802828204E0828A4FF6F7731A408282FF
:1036C000704721B1828942F40042828103E08289FD
:1036D000C2F30E028281704721B1828A42F40062F5
:1036E000828204E0828A4FF2FF731A40828270471E
:1036F000828A4FF6FB731A408282828A0A43828250
:10370000704721B1828A42F00202828204E0828AFA
:103710004FF6FD731A408282704702460020B1F5D1
:10372000007F00D100BF13880B4201D0012000E0D0
:103730000020704701F40072B2F5007F00D100BF95
:10374000CA430280704770B502460024002300255A
:103750000020A1F510666A3E00D100BFC1F34215FA
:1037600001F01F03012606FA03F3012D02D1968909
:10377000334006E0022D02D1168A334001E0968ADA
:1037800033400C12012606FA04F41688344013B1B3
:103790000CB1012000E0002070BD10B50022002314
:1037A000A1F510646A3C00D100BF0A1201249440C4
:1037B000A3B2DC43048010BD003801400044004047
:1037C00000480040004C00400050004010B5044646
:1037D000F948844208D101214015FFF7A3FD0021DB
:1037E0006015FFF79FFD17E0F448844208D10121DE
:1037F0000015FFF797FD00212015FFF793FD0BE063
:10380000EF48844208D10121C803FFF78BFD002156
:103810004FF40040FFF786FD10BD30B50246002092
:1038200000235068E74C20400D790C6844EA0524D9
:10383000204350609068E44C2040D1E902542C436E
:103840004D7944EA450420439060D06A20F470002A
:103850000C7C641EE4B2234340EA0350D06230BDC6
:1038600000210160017141718160C1600121017419
:10387000704721B1826842F00102826003E08268F1
:1038800022F001028260704721B1826842F48072A6
:10389000826003E0826822F480728260704710B513
:1038A0000023CBB21AB144681C43446002E0446870
:1038B0009C43446010BD816841F0080181607047FD
:1038C000014600208A6812F0080F01D0012000E0B4
:1038D00000207047816841F0040181607047014613
:1038E00000208A6812F0040F01D0012000E00020BF
:1038F000704721B1826842F4A002826003E08268CE
:1039000022F4A00282607047014600208A6812F407
:10391000800F01D0012000E00020704710B50A465A
:1039200000210023416821F46041531E41EA4331E4
:10393000416010BD21B1426842F40062426003E080
:10394000426822F4006242607047F0B504460D46BA
:1039500000200021092D11DDE068A5F10A0606EB23
:103960004607072606FA07F18843A5F10A0606EB83
:10397000460603FA06F10843E0600CE0206905EB17
:103980004507072606FA07F1884305EB450603FAC3
:1039900006F108432061072A0FDA606B561E06EB1A
:1039A00086071F2606FA07F18843561E06EB860691
:1039B00005FA06F10843606322E00D2A0FDA206B56
:1039C000D61F06EB86071F2606FA07F18843D61F87
:1039D00006EB860605FA06F10843206310E0E06A6C
:1039E000A2F10D0606EB86071F2606FA07F18843AB
:1039F000A2F10D0606EB860605FA06F10843E06221
:103A0000F0BD21B1826842F48012826003E08268D6
:103A100022F48012826070470146C86C80B2704701
:103A200065484C300068704721B1426842F48062BA
:103A3000426003E0426822F480624260704721B134
:103A4000426842F48052426003E0426822F48052AD
:103A5000426070470A460021816821F4E041114329
:103A60008160704721B1826842F40042826003E0C5
:103A7000826822F400428260704721B1826842F479
:103A80000212826003E0826822F4021282607047B0
:103A9000014600208A6812F4001F01D0012000E0D6
:103AA00000207047F0B5044615460020002200268D
:103AB000092911DDE068A1F10A0707EB470C072788
:103AC00007FA0CF29043A1F10A0707EB470703FA44
:103AD00007F21043E0600CE0206901EB410C07277E
:103AE00007FA0CF2904301EB410703FA07F2104387
:103AF0002061A06BC0F30156EF1C06F1010CA7EB8F
:103B00000C0707EB870C1F2707FA0CF29043EF1CFA
:103B100006F1010CA7EB0C0707EB870701FA07F288
:103B20001043A063F0BD10B50A4600210023816B4D
:103B300021F44011531E41EA0351816310BD10B5B9
:103B4000002303460B441A6010BD024600231346AF
:103B500001F128000344186880B270470A4600212A
:103B600041681A4B194011434160704741628262BB
:103B700070470A460021416821F01F01114341604E
:103B8000704740B10C490831096841F400010A4A04
:103B90000832116007E008490831096821F4000182
:103BA000054A0832116070470246002013680B4234
:103BB0000ED001200DE0000000240140002801404B
:103BC000003C0140FFFEF0FFFDF7F1FFFFFD3FFF6E
:103BD00000207047CA430260704770B5024600205B
:103BE000002300240B125568CEB205EA06041568BE
:103BF0001D4202D00CB1012000E0002070BD002267
:103C00000A12D34303607047002044490860091D2D
:103C10000860091D0860091D086041483F491431CA
:103C20000860704700213D498279002A3AD00A464F
:103C3000126803689A430B461A600A1D12680368EB
:103C40009A430B1D1A60027911440A6803681A43EB
:103C50000A60324A0832126803689A432F4B0833CD
:103C60001A601A1D126803689A432C4B0C331A60B1
:103C70004279102A0ED11A1F126803681A43274B83
:103C800008331A601A1D126803681A43234B0C3359
:103C90001A600DE02149427911440A6803681A4309
:103CA0000A6005E0027911440A6803689A430A60D1
:103CB00070470021016001710C2141710021817167
:103CC00070471649103109680143144A10321160D7
:103CD000704701460020114A143212680A4201D08E
:103CE000012000E0002070470C4914310860704743
:103CF000014600200022094B1B6803EA0102074B22
:103D000014331B680B4202D00AB1012000E00020EE
:103D100070470249143108607047000000040140F8
:103D2000FFFF0F000E49086070470D49486070475B
:103D30000B49886070474AF6AA2009490860704715
:103D40004CF6CC4006490860704701460020044A02
:103D5000D2680A4201D0012000E000207047000034
:103D60000030004010B50446FE48844208D10121CD
:103D7000C014FFF7D7FA0021E014FFF7D3FAC4E02C
:103D8000B4F1804F08D101210846FFF7D8FA00218D
:103D90000120FFF7D4FAB8E0F348844208D10121AA
:103DA0000220FFF7CCFA00210220FFF7C8FAACE0AE
:103DB000EE48844208D101210420FFF7C0FA002117
:103DC0000420FFF7BCFAA0E0E948844208D10121B1
:103DD0000820FFF7B4FA00210820FFF7B0FA94E0BA
:103DE000E448844208D101211020FFF7A8FA0021FD
:103DF0001020FFF7A4FA88E0DF48844208D10121AF
:103E00002020FFF79CFA00212020FFF798FA7CE0A1
:103E1000DA48844208D101214014FFF783FA0021D7
:103E20006014FFF77FFA70E0D548844209D1012180
:103E3000C804FFF777FA00214FF40020FFF772FA69
:103E400063E0D048844209D101210805FFF76AFAEE
:103E500000214FF48010FFF765FA56E0CA4884420B
:103E600009D101214805FFF75DFA00214FF4001048
:103E7000FFF758FA49E0C548844208D101214020A3
:103E8000FFF75DFA00214020FFF759FA3DE0C048F6
:103E9000844208D101218020FFF751FA00218020BF
:103EA000FFF74DFA31E0BB48844208D1012180156B
:103EB000FFF745FA0021A015FFF741FA25E0B648C3
:103EC000844209D101210804FFF72CFA00214FF4A4
:103ED0008030FFF727FA18E0B048844209D1012169
:103EE0004804FFF71FFA00214FF40030FFF71AFAD9
:103EF0000BE0AB48844208D101218804FFF712FA95
:103F000000214FF48020FFF70DFA10BD0022028837
:103F1000944B98420ED0994B98420BD0B0F1804F01
:103F200008D0914B984205D0904B984202D0904BCC
:103F3000984204D14FF68F731A404B881A438D4B29
:103F4000984207D08C4B984204D04FF6FF431A405A
:103F5000CB881A4302808B8883850B880385814B2D
:103F600098420BD0854B984208D08B4B984205D095
:103F70008A4B984202D08A4B984201D10B7A038631
:103F800001238382704770B5002400220023058C32
:103F90004FF6FE7635400584028C8388048B4FF6FD
:103FA0008F752C40B51E2C400D882C43751E2A4061
:103FB0000D892A434D882A436A4DA8420BD06F4D84
:103FC000A84208D0744DA84205D0744DA84202D032
:103FD000734DA84213D14FF6F7752A404D892A43F5
:103FE0004FF6FB752A408D882A434FF6FF652B401C
:103FF0004FF6FF552B408D892B43CD892B43838072
:104000000483CD888586028470BD70B500240022AB
:104010000023058C4FF6EF7635400584028C8388AB
:10402000048B48F6FF752C404FF6FF452C400D8859
:104030002D0644EA15444FF6DF752A400D892D05FB
:1040400042EA15424D882D0542EA1542454DA842E7
:1040500002D04A4DA8421BD14FF67F752A404D89A8
:104060002D0542EA15424FF6BF752A408D882D0571
:1040700042EA15424FF6FF352B404FF2FF752B40B9
:104080008D89AD0443EA1543CD89AD0443EA154358
:1040900083800483CD880587028470BD70B50024B9
:1040A00000220023058C4FF6FF6635400584028C04
:1040B0008388848B4FF68F752C404FF6FC752C400F
:1040C0000D882C434FF6FF552A400D892D0642EAF4
:1040D00015424D882D0642EA1542224DA84202D0D3
:1040E000264DA8421BD14FF2FF752A404D892D065F
:1040F00042EA15424FF6FF352A408D882D0642EAE6
:1041000015424EF6FF752B404DF6FF752B408D89FD
:104110002D0543EA1543CD892D0543EA15438380D8
:104120008483CD888587028470BD70B5002200230A
:104130000024058C4EF6FF7635400584038C848878
:10414000828B48F6FF752A404FF6FF452A400D88BE
:104150002D0642EA15424DF6FF752B400D892D07BD
:1041600020E00000002C0140000400400008004056
:10417000000C0040001000400014004000340140DA
:10418000004C014000500140005401400018004024
:10419000001C00400020004000400140004401405D
:1041A0000048014043EA15434D882D0743EA154373
:1041B000F84DA84202D0F84DA84206D14BF6FF7543
:1041C0002C408D89AD0544EA154484808283CD88D6
:1041D000A0F84050038470BD828B4FF2FF331A4029
:1041E0008283828B0B0642EA134282837047F0B5CA
:1041F0000C461546002200210026078C4EF6FF7C57
:1042000007EA0C070784828B018C27073E0C40F6D7
:10421000FF473A402F0642EA17421F0742EA174279
:10422000DC4FB8420ED0DC4FB8420BD0B0F1804F1B
:1042300008D0DA4FB84205D0D94FB84202D0D94F92
:10424000B84206D14DF6FF77394046F480573943DE
:1042500005E047F6FF57394044F4805739438283DD
:104260000184F0BD828B4FF6F3731A408283828BF8
:104270000A4382837047F0B50C46154600220021A0
:104280000026078C4FF6FF6C07EA0C070784828B29
:10429000018C27063E0C4FF60C773A401F0545EA85
:1042A00017473A43BB4FB8420ED0BB4FB8420BD072
:1042B000B0F1804F08D0B94FB84205D0B84FB842DE
:1042C00002D0B84FB84206D14FF6FF57394046F4F6
:1042D0008077394305E04FF2FF57394044F4807747
:1042E000394382830184F0BD028B4FF2FF331A40C1
:1042F0000283028B0B0642EA134202837047F0B539
:104300000C461546002200210026078C4FF6EF7C54
:1043100007EA0C070784028B018C27053E0C40F648
:10432000FF473A401F0742EA17422F0642EA174268
:10433000984FB8420ED0984FB8420BD0B0F1804F92
:1043400008D0964FB84205D0954FB84202D0954F4D
:10435000B84206D14FF6DF77394046F010073943AF
:1043600005E04FF65F77394044F010073943028388
:104370000184F0BD028B4FF6F3731A400283028B67
:104380000A4302837047F0B50C461546002200210F
:10439000068C4FF6FE773E400684028B018C4FF66A
:1043A0000C7632401E0545EA16463243794EB0423D
:1043B0000ED0794EB0420BD0B0F1804F08D0774E7E
:1043C000B04205D0764EB04202D0764EB04206D111
:1043D0004FF6FD76314044F00106314305E04FF6DB
:1043E000F576314044F00106314302830184F0BD8B
:1043F00070B505460C46674885420ED06648854232
:104400000BD0B5F1804F08D06448854205D0644890
:10441000854202D06348854200D100E000BF208879
:1044200050B92389A28861882846FFF7ACFFE1884C
:104430002846FFF79FFF25E0208804280AD123891A
:10444000A28861882846FFF75AFFE1882846FFF7CF
:104450004BFF17E0208808280AD12389A2886188A9
:104460002846FFF708FFE1882846FFF7FBFE09E032
:104470002389A28861882846FFF7B9FEE18828468B
:10448000FFF7AAFE70BD2DE9F04105460C46002657
:104490000127608808B9022600E00026A0880128CC
:1044A00001D1022700E001272088A0B92389A28832
:1044B00061882846FFF767FFE1882846FFF75AFF23
:1044C00023893A4631462846FFF719FFE1882846F6
:1044D000FFF70AFF13E02389A28861882846FFF7C7
:1044E0000EFFE1882846FFF7FFFE23893A46314652
:1044F0002846FFF748FFE1882846FFF73BFFBDE865
:10450000F0810A884B881A438B881A43CB881A4358
:104510000B891A434B891A438B891A43A0F844200C
:1045200070474FF6FF71818000210180C18041807A
:10453000017270470021018041808180C18001812A
:1045400041818181C1817047002101804180012129
:1045500081800021C180018170470021018041805C
:104560008180C180018141818181704721B10288B0
:1045700042F00102028004E002884FF6FE731A4006
:104580000280704781B1B0F8442042F40042A0F8A4
:1045900044200FE0002C01400034014000040040A2
:1045A00000080040000C0040B0F84420C2F30E02A6
:1045B000A0F84420704710B51AB183890B4383815A
:1045C00004E08389CC43A4B22340838110BD81825F
:1045D000704741EA0203A0F84830704710B51AB19D
:1045E00083890B43838104E08389CC43A4B22340B5
:1045F000838110BD01894FF6F87211400181704727
:104600000A46002101894FF68F7319401143018139
:10461000704730B504460D4629462046FFF7F0FFA7
:10462000208940F00700208130BD2DE9F04104468B
:104630000D4616461F46602D06D13B4601223146E7
:104640002046FFF75CFE05E03B460122314620464E
:10465000FFF799FE29462046FFF7D2FF208940F058
:1046600007002081BDE8F08130B50C4600210189AA
:10467000C9B21D0642EA154525432943018130BDD3
:104680002DE9F04105460E4617469846002443465C
:104690003A4631462846FFF7E7FF2C894FF6F87077
:1046A000044044F007044FF68F70044044F0700457
:1046B0002C81BDE8F081F0B504460D4616461F4634
:1046C0003B46324629462046FFF7CEFF208940F47C
:1046D00080402081F0BD0185828270470A4600211A
:1046E00001884FF68F731940114301807047F0B570
:1046F0000C4615461E460021002200230189028B2C
:10470000038C4FF6F877394021434FF6FC473A4087
:1047100040F201173A434FF6DD773B40370545EA53
:1047200017473B43018102830384F0BD0A46002101
:10473000018B4FF68F7319401143018370470A466E
:104740000021018B48F6FF731940130641EA13411B
:10475000018370470A460021818B4FF68F73194001
:104760001143818370470A460021818B48F6FF730D
:104770001940130641EA13418183704721B1028831
:1047800042F08002028004E002884FF67F731A40F4
:104790000280704721B1828842F00402828004E0E6
:1047A00082884FF6FB731A408280704721B182885D
:1047B00042F00802828004E082884FF6F7731A40C4
:1047C0008280704721B1828842F00102828004E039
:1047D00082884FF6FE731A40828070470A46002195
:1047E000018B4FF6F77319401143018370470A4656
:1047F0000021018B4FF2FF731940130641EA134168
:10480000018370470A460021818B4FF6F7731940E8
:104810001143818370470A460021818B4FF2FF7359
:104820001940130641EA1341818370470A4600216B
:10483000018B4FF6FB7319401143018370470A4601
:104840000021018B4FF6FF331940130641EA134153
:10485000018370470A460021818B4FF6FB73194094
:104860001143818370470A460021818B4FF6FF3345
:104870001940130641EA1341818370470A4600211B
:10488000018B4FF67F7319401143018370470A462D
:104890000021018BC1F30E01130641EA134101838C
:1048A00070470A460021818B4FF67F7319401143F0
:1048B000818370470A460021818BC1F30E011306E4
:1048C00041EA1341818370470A460021018C4FF66B
:1048D000FD7319401143018470470A460021018C81
:1048E0004FF6F77319401143018470470A460021BF
:1048F000018C4FF6DF731940130541EA134101841F
:1049000070470A460021018C4FF67F73194013054A
:1049100041EA1341018470470A460021018C4FF699
:10492000FF531940130641EA1341018470470A46B8
:104930000021018C4FF2FF731940130641EA134125
:10494000018470470A460021018C4DF6FF7319401F
:10495000130741EA13410184704730B50023012455
:104960008C40A3B2048CDD43ADB22C400484048C93
:1049700002FA01F5ADB22C43048430BD30B50023FA
:1049800004248C40A3B2048CDD43ADB22C400484DB
:10499000048C02FA01F5ADB22C43048430BD70B52D
:1049A0000346002000241846183001258D40ACB283
:1049B0001D8CE643B6B235401D8409B1082909D1E2
:1049C00000EB6100056825F070050560056815437A
:1049D00005600CE00D1FADB200EB6500056825F425
:1049E000E04505600568160645EA1645056070BD98
:1049F00021B1028842F00202028004E002884FF6F0
:104A0000FD731A400280704721B1028842F004020F
:104A1000028004E002884FF6FB731A400280704760
:104A200021B1828842F08002828004E082884FF6C1
:104A30007F731A408280704702884FF6F7731A40DE
:104A4000028002880A430280704782884FF68F7383
:104A50001A40828082880A438280704702894FF61A
:104A6000F8731A40028102890A4302817047028961
:104A70004FF67F731A40028102890A430281704710
:104A800081847047818570478186704701877047B0
:104A900081877047A0F84010704702884FF6FF43A7
:104AA0001A40028002880A43028070470146888EBD
:104AB00070470146088F70470146888F704701464E
:104AC000B1F8400070470146888C70470146088D58
:104AD000704702460020138A0B4201D0012000E0FB
:104AE00000207047CA430282704730B5024600205A
:104AF00000230024158A05EA0103958905EA0104CB
:104B000013B10CB1012000E0002030BDCA43028285
:104B10007047000010B50121C802FEF710FC00210B
:104B20004FF40060FEF70BFC10BD0021164A12681E
:104B300022F4C0710143144A116070470021124AE7
:104B4000126822F07F0100F07F0211430E4A1160CB
:104B5000704701200D490860704700F07F010A4A44
:104B6000121F1160704740F08001074A121F116048
:104B700070470548001D0068C0B270470020024918
:104B8000091D086070470000042C0040A480054205
:104B90007FB505460C4601210420FEF7B6FBADF8B3
:104BA0000850ADF804400020ADF80A00ADF806004A
:104BB00001A9FB48FFF7AAF901221146F848FFF7BF
:104BC000FAFC1E208DF8000000208DF80100032063
:104BD0008DF8020001208DF803006846FEF70BF8FF
:104BE0000121EF48FFF7C2FC7FBD70B504460D46BA
:104BF0001646012E26D10CB1032C04D1012D02D171
:104C0000F320FDF7BCFB012C05D10DB1032D02D122
:104C1000ED20FDF7B4FB0CB1032C05D10DB1032D34
:104C200002D1EB20FDF7ABFB012C04D1012D02D109
:104C3000F520FDF7A4FB022C04D1022D02D1E120C6
:104C4000FDF79DFB36BB0CB1032C04D1012D02D125
:104C50007320FDF794FB012C05D10DB1032D02D17A
:104C60006D20FDF78CFB0CB1032C05D10DB1032D8C
:104C700002D16B20FDF783FB012C04D1012D02D161
:104C80007520FDF77CFB022C04D1022D02D161209E
:104C9000FDF775FB70BD70B504460025C148057869
:104CA000AC4208D10120C049C871032006F099F92F
:104CB0000120BC49087070BD10B504F00AF901214B
:104CC000B748FFF712FF00285FD00121B448FFF773
:104CD0001DFFB548C079B8B9B448008840B9B24999
:104CE0004878FFF7D8FFAF480078401CAD490870FE
:104CF000AE480088002807DDAC480088401EAB495C
:104D000008800120A7490870A9480078002804DD20
:104D1000A7480078401EA6490870A548007828B921
:104D2000A44A1179D0780022FFF75FFFA2480068FB
:104D300020B1A1480068401E9F4908609D48C07886
:104D4000012808D19D480078FE2804DA9948407966
:104D5000401C9849487197480079012809D1974823
:104D60000078FE2805DA93488079401CC1B291484A
:104D700081719048C07810B900208E4948718D48E3
:104D8000007910B900218B48817104F0BDF810BD85
:104D90007FB505460C4601210220FEF7B6FAADF8B4
:104DA0000850ADF804400020ADF80A00ADF8060048
:104DB00001A98348FFF7AAF8012211468048FFF7AE
:104DC000FAFB1D208DF8000000208DF80100022064
:104DD0008DF8020001208DF803006846FDF70BFFF7
:104DE00001217748FFF7C2FB7FBDF0B505AC70CC61
:104DF000704F38707970BA70FB703C717D71BE7104
:104E0000F0BD3EB5002404F064F801216C48FFF7C2
:104E10006CFE002877D001216948FFF777FE6948CA
:104E2000007801281CD168480088401C6649088029
:104E300008460088B0F5966F12D1002008806149BD
:104E400008705C48807900225A490979594BCDE9AC
:104E5000001202909A78597818780023FFF7C5FF5E
:104E600058484078012819D157484088401C564975
:104E7000488008464088782810D100204880514951
:104E8000487000214B484079CDE90010494D02910E
:104E9000EB78AA7869782878FFF7A7FF02214FF40A
:104EA0006040FCF7CFFB002824DD02214FF4604076
:104EB000FCF7C8FBA0F57F41FF391BD043480088B1
:104EC000401C4249088008460088B0F5B46F11D1F3
:104ED0000020088002214FF46040FCF7B3FB044639
:104EE000002C07DD601E84B2022221464FF4604090
:104EF000FCF779FB02214FF46040FCF7A3FB10B9EB
:104F000001203349087003F0FFFF3EBD70B54CF639
:104F1000505500BFFCF72DFB0028FBD1FCF729FB07
:104F200000286AD12B480078172866DC4FF410401F
:104F3000FCF7A4FA0446172C07DDE12C05D0022269
:104F400000214FF46040FCF74EFB22480078B0B9D6
:104F500000201F490870022229464FF46040FCF7E8
:104F600042FB0AE000214FF41040FCF7B1FA4FF485
:104F70001040FCF783FA00B900E0F3E700BF1548E2
:104F80000078A04201DCFF2C37D1002010490870C6
:104F9000022229464FF46040FCF725FB2BE000007D
:104FA00000080040D4000020530C0020D000002056
:104FB0009400002024010020080000202B01002084
:104FC0000004004032010020F6000020FA0000201A
:104FD00000000020F3000020F74801784FF4104053
:104FE000FCF776FA4FF41040FCF748FAF2490978DA
:104FF000884200D100E0EFE700BF70BD10B5ADF50D
:10500000007D03F066FF40F22551EC48FEF79BFB64
:1050100000287DD0E948FEF716FBC1B2E8480468D5
:10502000601CE74A10600DF8041010460068401E2E
:105030001DF80000262804D18DF80000012011463B
:105040000860DF480068401E1DF800002A281AD1B9
:105050000020DB4908609DF80100212804D1694641
:10506000D848006804F0D8FF9DF80100232805D136
:105070006946D548006804F0CFFF04E06946D3488C
:10508000006804F0C9FFCE480068401E1DF800000B
:10509000252804D18DF800000120C9490860C848BE
:1050A0000068401E1DF80000292802D10020C449D4
:1050B0000860C3480068401E1DF80000242804D181
:1050C0008DF800000120BE490860BD480068401E00
:1050D0001DF800003F2802D10020B9490860B848F7
:1050E0000068401E1DF800002D2804D18DF8000036
:1050F0000120B3490860B2480068401E1DF8000056
:105100003D2817D10020AE490860B148C07900E0C1
:105110005EE001280ED10020AD49C871DE20AD4906
:1051200008701420AC490880022005F05AFF0320C3
:1051300005F0E9FFA2480068401E1DF800005A284B
:1051400004D18DF8000001209D4908609C4800684A
:10515000401E1DF80000582832D199480068001FF1
:105160001DF80000562828D195480068C01E1DF87B
:105170000000522821D192480068801E1DF80000CE
:105180008D490978884206DC8D480068801E1DF82C
:105190000000642811D18A480068801E1DF80000B4
:1051A00085490870FFF7B2FE28208B49088003204C
:1051B00005F0A9FF022005F014FF002080490860D7
:1051C0007F480068B0F5007F02D300207C4908606A
:1051D00003F09AFE0DF5007D10BD70B505460E4634
:1051E00001207E4908604FF000040FE000BF40211D
:1051F0007248FEF792FA0028F9D0295D6F48FEF751
:105200001EFA6420FDF7CCFB601CC4B2B442EDDB97
:1052100000BF40216948FEF780FA0028F9D000203D
:10522000674908606D49086070BD10B50020684985
:10523000C871262008704FF42040FCF71FF964491C
:10524000487000208870C8700871487188712A20E1
:10525000087208464078624908704FF48070FCF785
:105260000DF9604908704FF48050FCF707F95E496A
:10527000087010BD10B502460020D3B24FF47F4431
:1052800004EA0124234498B210BD10B50446207AE4
:105290005E281AD1A1786078FFF7ECFF53490880A7
:1052A0002179E078FFF7E6FF51490860A17960793C
:1052B000FFF7E0FF4F490880E0794F490870607AB6
:1052C00040B24E490870002010BD207A2F2811D11D
:1052D0003F484078A178884201D0A07850B96078E2
:1052E0003B498870E078087120794871607988714D
:1052F0000120E9E70020E7E72DE9F04705460E46E3
:1053000017469846DDE908944FF0000A06F0A6F823
:1053100082462F2C1FD12620394908700846457037
:105320008670C77080F8048080F80590002088712E
:1053300031480078C871084604722A2048720A2150
:105340002F48FFF74AFFAE4205D121480771494671
:105350004046FBF79DF85E2C25D126202849087091
:1053600022480088487021480088000A8870204838
:105370000068C8701E480068000A08711D4800884F
:1053800048711C480088000A88711B480078C87161
:10539000084604721948007848722A2088720B2146
:1053A0001748FFF71AFF504606F05CF8BDE8F08793
:1053B0007CB50446002536E0F300002000440040A0
:1053C000CC0000200C010020080100200401002076
:1053D000530C002080000020D0000020BC8121421E
:1053E0007C0000207D0000207E0000208200002044
:1053F000880000208400002081000020F4000020AC
:105400006E0F00205E200021CDE90010FE49487893
:1054100000231A461946FFF76FFF42F21070FDF79E
:10542000BFFA681CC5B2A542ECDD7CBD7047F0B583
:10543000DDE90545F44E7678F44F3E703E467070D7
:10544000B170F27033717471B571F0BD70B504460E
:10545000002506F003F805462620ED4908702320B4
:105460004870207888706078C870A0780871E078FB
:10547000487120798871E7480068C871E64800687B
:10548000E44909680844C0F34700E1490872E2486A
:105490000068487260798872A079C8722A200873FF
:1054A0000D21DB48FFF799FE284605F0DBFF70BDB4
:1054B00070B50446002505F0D1FF05462620D449E5
:1054C00008702320487020788870E078C8702079B0
:1054D00008712A2048710621CD48FFF77EFE284634
:1054E00005F0C0FF70BD70B50446002505F0B6FF9D
:1054F00005462620C6490870232048702078887009
:105500006078C870A0780871E07848712079887157
:10551000C0480068C871C0480068BE4909680844AE
:10552000C0F34700BA490872BB4800684872607906
:105530008872A079C8722A2008730D21B448FFF739
:105540004CFE284605F08EFF70BD10B5002405F016
:1055500085FF04462620AE4908702B2048702A207B
:1055600088700321AA48FFF738FE204605F07AFF2D
:1055700010BD10B5002405F071FF04462620A44993
:105580000870212048702A2088700321A048FFF766
:1055900024FE204605F066FF10BD2DE9F0410246CD
:1055A0000C4601230027002001210BE04FF0000CE6
:1055B00002F811C002EB410888F801C001F1010CAA
:1055C0000CF0FF01DFF854C29CF800C08C45EDDA06
:1055D00001213CE0DFF844C21CF801C00CEB8C0C4C
:1055E000A4449CF802C0BCF1000F2CD1DFF82CC2FF
:1055F0001CF801C00CEB8C0CA4449CF801C0BCF15D
:10560000000F20D0DFF814C21CF801C00CEB8C0C8A
:1056100014F80CC002F813C0DFF800C21CF801C077
:105620000CEB8C0CA4449CF801C002EB430888F8F6
:1056300001C003F1010C0CF0FF0300F1010C0CF0B0
:10564000FF0007B9012701F1010C0CF0FF01DFF8A1
:10565000CCC19CF800C08C45BCDA012F6CD1022172
:1056600032E002EB410C9CF8015012F81160A1F1FC
:10567000010C0CF0FF0313E012F8138003F1010C8E
:1056800002F81C8002EB430C9CF8018003F1010C32
:1056900002EB4C0C8CF80180A3F1010C0CF0FF0321
:1056A000012B05DB02EB430C9CF801C0AC45E3DBAE
:1056B00003F1010C02F81C6002EB4C0C8CF8015059
:1056C00001F1010C0CF0FF018142CADD012130E043
:1056D00012F811C0DFF8308198F80180C44524D158
:1056E00002EB410C9CF8015012F811600B4613E0DC
:1056F00003F1010C02EB4C0C9CF801C002EB4308D7
:1057000088F801C003F1010C12F81CC002F813C0A4
:1057100003F1010C0CF0FF038342E9DB02EB400CC8
:105720008CF8015002F8106005E001F1010C0CF05A
:10573000FF018142CCDB00BF5070BDE8F0812DE954
:10574000F04703460C46154601224FF000080020A2
:10575000012113E04FF0000901EB410A03F80A9020
:1057600001EB410A9A448AF8029001EB410A9A44FB
:105770008AF8019001F1010909F0FF01DFF89C901E
:1057800099F800904FEA49098945E3DA012156E08A
:10579000DFF8889019F8019009EB8909A14499F87C
:1057A0000290B9F1000F46D1DFF8709019F801901E
:1057B00009EB8909A14499F80190B9F1000F3AD099
:1057C000DFF8589019F8019009EB890914F809904D
:1057D00002EB420A03F80A90DFF8409019F80190B2
:1057E00009EB8909A14499F8019002EB420A9A4415
:1057F0008AF802904FF0010902EB420A9A448AF8B3
:10580000019002F101090BE0530C0020240100205B
:105810007D0F00208C00002090000020500F002001
:1058200009F0FF0200F1010909F0FF00B8F1000FD3
:1058300001D14FF0010801F1010909F0FF01DFF882
:10584000F89F99F800908945A2DA012149E0DFF834
:10585000E89F19F8019009EB8909A94499F8029089
:10586000B9F1000F39D1DFF8D09F19F8019009EB99
:105870008909A94499F80190B9F1000F2DD0DFF8FA
:10588000B89F19F8019009EB890915F8099002EB06
:10589000420A03F80A90DFF8A09F19F8019009EB7B
:1058A0008909A94499F8019002EB420A9A448AF8BE
:1058B00002904FF0020902EB420A9A448AF80190E2
:1058C00002F1010909F0FF0200F1010909F0FF00EE
:1058D000B8F1000F01D14FF0010801F1010909F001
:1058E000FF01DFF8549F99F800908945AFDAB8F1CD
:1058F000010F79D1022159E001EB4109994499F84E
:10590000026001EB410913F8097001EB4109994468
:1059100099F801C0A1F1010909F0FF0225E002EBAD
:10592000420913F809A002F1010909EB490903F83A
:1059300009A002EB4209994499F802A002F1010979
:1059400009EB4909994489F802A002EB42099944FC
:1059500099F801A002F1010909EB4909994489F874
:1059600001A0A2F1010909F0FF02012A06DB02EB06
:105970004209994499F80290B145D0DB02F101093E
:1059800009EB490903F8097002F1010909EB49091A
:10599000994489F8026002F1010909EB4909994427
:1059A00089F801C001F1010909F0FF018142A3DD7D
:1059B000012155E001EB410913F80990DFF87CAEB5
:1059C0009AF801A0D14547D101EB4109994499F8D2
:1059D000026001EB410913F8097001EB4109994498
:1059E00099F801C00A4626E03DE002F1010909EB01
:1059F0004909994499F8029002EB420A9A448AF8BC
:105A0000029002F1010909EB490913F8099002EB30
:105A1000420A03F80A9002F1010909EB4909994485
:105A200099F8019002EB420A9A448AF8019002F137
:105A3000010909F0FF028242D7DB00EB40099944DB
:105A400089F8026000EB400903F8097000EB400997
:105A5000994489F801C005E001F1010909F0FF014D
:105A60008142A7DB00BFBDE8F0872DE9F04F024679
:105A70000D4601234FF0000A0020814601210EE06F
:105A80004FF0000B01EB410E02F80EB001EB410E9E
:105A900096448EF801B001F1010B0BF0FF01DFF825
:105AA00098BD9BF800B08B45EADA012150E0DFF8A1
:105AB00088BD1BF801B00BEB8B0BAB449BF802B01D
:105AC000BBF1010F40D1DFF870BD1BF801B00BEB4B
:105AD0008B0BAB449BF801B0BBF1000F34D0DFF867
