:020000040800F2
:100000007836002045240008F10D0008F30D0008A3
:10001000F70D0008FB0D0008FF0D000800000000B0
:10002000000000000000000000000000030E0008B7
:10003000050E00080000000027BD0008DD210008B3
:10004000C92100085F2400085F2400085F2400081D
:100050005F2400085F2400085F2400085F24000874
:100060005F2400085F2400085F2400085F24000864
:100070005F2400085F2400085F2400085F24000854
:100080005F2400085F2400085F2400085F24000844
:100090005F2400085F2400085F2400085F24000834
:1000A0005F2400085F2400085F2400085F24000824
:1000B0005F24000805460008314500085F24000859
:1000C0005F2400085F2400085F2400085F24000804
:1000D0005F240008B1230008274600085F240008B9
:1000E0009B0C00085F2400085F2400085F240008C0
:1000F0005F2400085F2400085F2400085F240008D4
:100100005F2400085F2400085F2400085F240008C3
:100110005F2400085F2400085F2400085F240008B3
:100120005F2400085F2400085F2400085F240008A3
:1001300000F002F800F05CF80AA090E8000C82449D
:100140008344AAF10107DA4501D100F051F8AFF27A
:10015000090EBAE80F0013F0010F18BFFB1A43F0A5
:10016000010318472CE500004CE500000A444FF05D
:10017000000C10F8013B13F0070408BF10F8014B06
:100180001D1108BF10F8015B641E05D010F8016B4B
:10019000641E01F8016BF9D113F0080F1EBF10F8AF
:1001A000014BAD1C0C1B09D16D1E58BF01F801CBD2
:1001B000FAD505E014F8016B01F8016B6D1EF9D555
:1001C0009142D6D37047000000230024002500266A
:1001D000103A28BF78C1FBD8520728BF30C148BFAA
:1001E0000B6070471FB50DF0E6FF1FBD10B510BDC9
:1001F0000CF05EF91146FFF7F5FF00F006FD0CF07C
:100200007CF903B4FFF7F2FF03BC02F077F80000BB
:1002100008B511E06A460021FE4800680AF05BFF5D
:1002200005F0E0FE0122FC49FC4806F097F90222A5
:10023000F949FB4806F092F9ECE7002445E010206C
:1002400001F014F8F749087008460078012803DB2C
:1002500008460078212815DD0220F349C8710BF00B
:100260003BFD044603200BF08CFB02200BF089FBC6
:1002700020460BF035FDE12001F0F3FD642001F094
:10028000FEFF22E0E748007820281EDCE5480078E1
:1002900001281ADB0020E449C871E2480078487060
:1002A000EB2001F0DEFD0BF017FD044603200BF000
:1002B000D6FA05200BF0D3FA02200BF0D0FA012079
:1002C0000BF05FFB20460BF00BFDB8E70EB505F019
:1002D00066FED6480078462829DBD548007830BB32
:1002E000D4480078012822D10121D34802F043FAF2
:1002F000D248807900210222D04BCDE90021029022
:100300009A7859781878022304F03CFB642001F0B5
:10031000B6FF4FF48071C84802F02DFAC74A117930
:10032000D078002204F0ADF80120C1490870BF4820
:100330000078442819DCBE480078012815D1002037
:10034000BB490870BD48807900210091BB4BCDE9C5
:1003500001109A7859781878002304F013FBB74AF3
:100360001179D078002204F08CF80EBD06E0FFF77A
:10037000ADFF01F0D6FD642001F081FFF7E703B582
:1003800087B0A948007910B9002009B000BDA7487E
:10039000007846287EDAA648007800287AD1A2485C
:1003A00000790128FAD1A34800780128F6D10798EE
:1003B000012838D10898012835D101219E4802F042
:1003C000DCF99E4880799D4949799C4A1279CDE9AA
:1003D00000210290994880780690984840780590CE
:1003E0009648007801230490DDE9051204F0CAFA6A
:1003F00093480078002809DD9048007906908F48DE
:10040000C07801220590069904F03BF88C480078EA
:1004100048B98A48007906908848C078002205903B
:10042000069904F02EF80798012839D1089890BB56
:100430000121814802F09FF98048807900227F499C
:100440000979CDE9001202907C48807806907B48BB
:10045000407805907948007813460490DDE905124C
:1004600004F090FA76480078002809DD7348007996
:1004700006907248C07801220590069904F001F8B0
:100480006F48007838B96D48007906906B48C0789D
:10049000002201E07EE003E00590069903F0F1FF01
:1004A0000798022839D10898012836D101026248FC
:1004B00002F063F961488079604949790122CDE908
:1004C000002102905D48C07806905C4880780590D5
:1004D0005A484078049059480078039004A90EC9FE
:1004E00004F050FA56480078002809DD5348007996
:1004F00006905248C07801220590069903F0C1FF8A
:100500004F48007848B94D48007906904B48C0786C
:1005100000220590069903F0B4FF0798022837D10E
:100520000898A8BB4FF48071434802F024F90021D9
:1005300042484079CDE9001040480291C0780690C9
:100540003E48807805903D48407804903B480078CC
:10055000039004A90EC904F015FA39480078002860
:1005600009DD3648007906903448C07801220590AC
:10057000069903F086FF3248007848B92F48007981
:1005800006902E48C07800220590069903F079FF66
:100590000120FAE624480079022804D1274804F013
:1005A000FDF90220F1E620480079032808D121480E
:1005B0000078012804D1214804F02EFA0220E4E654
:1005C0001948007904287DD11A4800780128FAD109
:1005D0000798012850D1089801284DD101211648CB
:1005E00002F0CBF8154881794079144A1279CDE9A7
:1005F00000200291114880780690104840780590BC
:100600000E48007801230490DDE9051204F0BAF9E0
:100610000B4817E0E40000203E0D0020B20B002044
:10062000570C0020730000209C090020810000204E
:10063000030000200200002000080140F00000201C
:10064000800000200078002809DDFE48007906902F
:10065000FC48C07801220590069903F012FFFA4881
:10066000007848B9F74800790690F648C07800222B
:100670000590069903F005FF0798012838D10898DE
:10068000B0BB0121F14802F076F8EE4880790022F3
:10069000EC490979CDE900120290EA488078069089
:1006A000E84840780590E748007813460490DDE973
:1006B000051204F067F9E448007800280BDDE148F2
:1006C000007900E090E00690DE48C07801220590B5
:1006D000069903F0D6FEDC48007848B9D94800797D
:1006E0000690D848C07800220590069903F0C9FE0C
:1006F0000798022839D10898012836D10102D34839
:1007000002F03BF8CF488079CE4949790122CDE902
:1007100000210290CB48C0780690CA4880780590A6
:10072000C84840780490C7480078039004A90EC9CF
:1007300004F028F9C4480078002809DDC148007990
:100740000690C048C07801220590069903F099FEF2
:10075000BD48007848B9BB4800790690B948C078D0
:1007600000220590069903F08CFE0798022837D1E5
:100770000898A8BB4FF48071B44801F0FCFF002139
:10078000B0484079CDE90010AE480291C07806909B
:10079000AC4880780590AB4840780490A948007830
:1007A000039004A90EC904F0EDF8A74800780028CA
:1007B00009DDA44800790690A248C078012205907E
:1007C000069903F05EFEA048007848B99D4800797C
:1007D00006909C48C07800220590069903F051FECF
:1007E00004F039F90220D0E599480079052804D1B0
:1007F000944804F0F6F80520C7E5954800790628E6
:100800007ED1944800780128FAD10798012838D180
:100810000898012835D101218C4801F0AEFF8948A4
:10082000807988494979874A1279CDE90021029077
:100830008448807806908348407805908148007805
:1008400001230490DDE9051204F09CF87E4800784D
:10085000002809DD7B48007906907A48C07801229B
:100860000590069903F00DFE7748007848B9754861
:10087000007906907348C07800220590069903F02D
:1008800000FE0798012836D10898A0BB01216F48C7
:1008900001F071FF6B48807900226A490979CDE93E
:1008A000001202906748807806906648407805906C
:1008B0006448007813460490DDE9051204F062F8FC
:1008C00061480078002809DD5E48007906905D489F
:1008D000C07801220590069903F0D3FD5A480078AC
:1008E00048B95848007906905648C07800220590CB
:1008F000069903F0C6FD079802283BD1089800E04E
:1009000077E0012836D10102504801F036FF4D480A
:1009100080794C4949790122CDE90021029049486A
:10092000C078069047488078059046484078049003
:1009300044480078039004A90EC904F023F8424803
:100940000078002809DD3F48007906903D48C078CE
:1009500001220590069903F094FD3B48007848B9C0
:100960003848007906903748C078002205900699EB
:1009700003F087FD0798022837D10898A8BB4FF4E9
:100980008071324801F0F7FE00212E484079CDE910
:1009900000102C480291C07806902A488078059073
:1009A00028484078049027480078039004A90EC98D
:1009B00003F0E8FF24480078002809DD2148007989
:1009C00006902048C07801220590069903F059FD51
:1009D0001D48007848B91B48007906901948C0782E
:1009E00000220590069903F04CFD04F048F806201B
:1009F000CBE40720C9E408B536E01548C0790128E2
:100A000002D102200AF0BDFF6A46002112480068A8
:100A100009F085FE0546284603F0D4FE044614205E
:100A20000E490880102000F021FC09494870084652
:100A3000407804490870012C16D114200749088019
:100A4000034A0DE0F0000020800000200008014073
:100A50009C09002002000020D0000020A6000020F9
:100A600091795079FFF78BFCC7E71CB500244AE069
:100A7000C648C07901283AD16F20C5490870C548D9
:100A800000680AF0D7FBC4480078D0B1C2480078AB
:100A9000401EC14908702F200021CDE90010BB493C
:100AA000487801231A46002103F0E8FE2F20002198
:100AB000CDE90010B549487802230122002103F056
:100AC000DDFEB5480078012805D10220B349087041
:100AD0000020B1490870B24AB249B34806F08DFF10
:100AE000012004F091FD4FF4487001F0C8FBA748C5
:100AF000C07940B90BF0F0F8044603200AF041FF3A
:100B000020460BF0EDF8B3E770B50446002500BFB2
:100B100000200AF05AFAA5490860002009F079FD82
:100B2000A3490860002009F074FDA2490860002074
:100B30000AF04BFA97490860002009F06AFD9E49C7
:100B4000086008F02BFF0BF0C7F8054603239B4A0B
:100B50000021AFF2E9000AF08CFC0223984A002140
:100B6000AFF26D100AF085FC0523964A0021AFF61E
:100B700003000AF07EFC0123934A0021AFF64510E2
:100B80000AF077FC0423914A0021AFF67B100AF0AB
:100B900070FC0C200AF0F5FE28460BF0A1F870BDA1
:100BA0001FB50121042001F0EFFF4FF48050ADF894
:100BB0000C0004208DF80F0003A9854801F030FDDA
:100BC0000C21002001F040FE4FF4805001900020E5
:100BD0008DF8080010208DF8090001208DF80A001A
:100BE00001A802F06BFC28208DF8000001208DF890
:100BF00001008DF802008DF80300684601F047FC03
:100C00004FF4805002F0A9FC1FBD1CB501F0EEFAB4
:100C100001F06EFB6F4801F00FFB00F0A9FD01F041
:100C200061F900F01FFB00F0D7FB4FF4165000F005
:100C3000F3FC41F61F4144F61E6003F0F5FB03F0A0
:100C4000A2FD00200090034602460A2101900520E3
:100C500003F089FEFFF7A4FF40F27121062001F0A6
:100C60006DFA41F61F4142F20F7003F09EFC002422
:100C700004E000204A490855601CC4B21E2CF8DB71
:100C800008F04FFD0C23544A0021AFF283100AF004
:100C9000F0FB08F06BFE00201CBD10B508F057FDFE
:100CA0004FF4805002F070FC002868D04FF47A7046
:100CB00001F0C2FA4948006801281DD1484800786F
:100CC000D0B90120464908700121414801F053FD87
:100CD0004FF480713E4801F04EFD00204149C8703C
:100CE00000214048017103203F4908703D4A1179B5
:100CF000D078012203F0C5FB38480068E8B93848CD
:100D00000078012819D139480078012815D102202E
:100D10003649087000203249087001212C4801F042
:100D20002CFD01202F49C87003202F4908702D4A3F
:100D30001179D078012203F0A4FB28480068F0B9AB
:100D40002748007801281AD128480078022816D1AF
:100D50000120264908700020214908704FF4807155
:100D60001B4801F00AFD01211E48017103201E49A4
:100D700008701C4A1179D078012203F082FB4FF4ED
:100D8000805002F012FC08F0FDFC10BD9C09002010
:100D900075000020E400002001000020C0000020B9
:100DA0003E0D0020570C0020B20B0020DC0000207C
:100DB000D0000020D4000020D800002040030020F4
:100DC0004004002040070020400200204005002091
:100DD0000008014020A10700400800203001214206
:100DE00002000020F000002080000020040000200D
:100DF000704700BFFEE700BFFEE700BFFEE700BF91
:100E0000FEE770477047000000210020674A126823
:100E100042F48032654B1A6000BF644A126802F4E3
:100E20000030491C10B9B1F5A06FF6D15F4A1268C5
:100E300012F4003F01D0012000E00020012842D13F
:100E40005B4A126842F01002594B1A601A46126847
:100E500022F003021A601A46126842F002021A6077
:100E6000524A5268514B5A601A4652685A601A46A2
:100E7000526842F480625A601A46526822F47C1228
:100E80005A601A46526842F4E8125A601A461268CA
:100E900042F080721A6000BF444A126812F0007F6C
:100EA000FAD0424A526822F00302404B5A601A4676
:100EB000526842F002025A6000BF3C4A526802F097
:100EC0000C02082AF9D1704710B5FFF79DFF10BD3D
:100ED00010B53648006840F0010034490860084603
:100EE0004068344908403149486008460068324942
:100EF00008402E4908600846006820F480200860F9
:100F00000846406820F4FE0048604FF41F008860E7
:100F1000FFF7DAFF4FF000602849086010BD10B5F8
:100F2000002100200022214B5B6803F00C0121B15D
:100F3000042906D0082928D107E0214B214C236041
:100F400027E01F4B1F4C236023E0184B5B6803F422
:100F50007010164B5B6803F48032022303EB904061
:100F600022B9194B4343174C23600DE00F4B5B68CC
:100F700013F4003F04D0144B4343124C236003E0AE
:100F80000F4B43430F4C236003E00D4B0D4C23608C
:100F900000BF00BF054B5B68C3F303130B4CE15C60
:100FA000084B1B68CB40074C236010BD001002406B
:100FB000002002400000FFF8FFFFF6FE08ED00E011
:100FC00000127A000800002000093D000C000020FB
:100FD0009C48806940F008009A4988619A480068F6
:100FE0009A490840984908600846006898490843AB
:100FF0009549086094480830006820F48050924970
:10100000083108600846006840F40050086008464F
:10101000006840F480400860704710B58A48006856
:1010200020F07060884908600846006840F0407011
:1010300008600120874908608749C1F8B4014FF072
:10104000040001F0F9F80020824908604FF0040024
:1010500001F0F2F800208049C1F8B40110BD10B5CC
:101060007948006820F07060774908600846006899
:1010700040F0407008600020784908607649C1F867
:10108000B8014FF0040001F0D7F80120734908605F
:101090007149C1F8B8014FF0040001F0CDF810BD5E
:1010A00010B500246848006820F070606649086048
:1010B0000846006840F0006008600120654908604B
:1010C00001F0BAF801206449C1F8B40101F0B4F8A4
:1010D00007E0601CC4B2FA2C03DDFFF7C0FF01205B
:1010E00010BD5F4800680028F3D15C49086000BF6C
:1010F000F6E710B50020594908605348006820F011
:101100007060514908600846006840F0407008600F
:101110004FF000005049C1F8B8014FF0020001F053
:101120008BF801204D4908604FF0020001F084F86F
:1011300000204949C1F8B40110BD10B5002047494D
:1011400008604148006820F070603F490860084628
:10115000006840F0407008604FF001003E49C1F85F
:10116000B8014FF0020001F067F801203B49086028
:101170004FF0020001F060F800203749C1F8B401D7
:1011800010BD70B504463048006820F070602E49EC
:1011900008600846006840F04070086000202F4951
:1011A000086005461AE0E0092A4908604FEA4460F1
:1011B0004FEA10644FF0020001F03EF8012026498A
:1011C000C1F8B401022001F037F80020234908607B
:1011D0004FF0020001F030F8681CC5B2082DE2DBC8
:1011E00070BD70B5054600241748006820F0706097
:1011F000154908600846006840F000600860002655
:1012000016E00020154908604FF0020001F014F8C4
:1012100001201149C1F8B4016006040E10480068AD
:1012200008B1601CC4B2012001F006F8701CC6B2FF
:10123000082EE6DB15B9FFF780FF01E0FFF759FF45
:10124000204670BD00100240040C0140FFFF00F07A
:1012500000003303B881214200802142B481214241
:101260003881214210B5FFF7B3FE10BD70B50446BA
:101270000026FFF7D2FEA020FFF783FFFFF710FF45
:101280002012FFF77EFFFFF70BFF2546E11704EB67
:1012900011610912A4EB0121C8B2FFF772FFFFF739
:1012A000FFFEFFF7BAFEA120FFF76BFFFFF7F8FE86
:1012B0000020FFF796FF0646FFF7D1FE304670BDCF
:1012C00070B504460E46FFF7A8FEA020FFF759FFB1
:1012D000FFF7E6FE2012FFF754FFFFF7E1FE254679
:1012E000E11704EB11610912A4EB0121C8B2FFF769
:1012F00048FFFFF7D5FE3046FFF743FFFFF7D0FE6C
:10130000FFF7ADFE0A2000F0BAFF70BD2DE9F041F5
:1013100005460E461746002409E0E20026FA02F2CE
:10132000D1B22A1990B2FFF7CBFF601CC4B2BC4205
:10133000F3DBBDE8F0812DE9F04107460C460026BD
:10134000002509E036023919491B491E88B2FFF70A
:101350008DFF0644681CC5B2A542F3DB3046BDE8EC
:10136000F08110B5FF20FFF781FF0446552C01D115
:10137000002010BD5521FF20FFF7A2FFFF20FFF73F
:1013800075FF0446552C01D10020F2E70120F0E75B
:1013900070B506460C46154608E03046721C96B2FB
:1013A000FFF764FF04F8010B681E85B2002DF4D12D
:1013B00070BD70B505460C46164606E021782846F5
:1013C000FFF77EFF681C85B2641C3000A6F10101A6
:1013D0008EB2F3D170BD000000B587B0012140F29C
:1013E000046001F0D1FB0121082001F0CDFB4FF496
:1013F000004001F030FB7220ADF8040000208DF8B1
:10140000070001A9804801F00BF9804801F02AFE8D
:10141000002002908DF80C008DF80D004FF4602034
:1014200004900020059001208DF8180002A977484B
:1014300001F03FFE0121754801F067FE734801F09D
:1014400086FE00BF714801F087FE0028FAD16F4880
:1014500001F08CFE00BF6D4801F08DFE0028FAD12E
:101460006B4801F0FFFD002002908DF80C008DF814
:101470000D004FF4602004900020059001208DF8AD
:10148000180002A9624801F014FE0121604801F031
:101490003CFE5F4801F05BFE00BF5D4801F05CFE72
:1014A0000028FAD15A4801F061FE00BF584801F007
:1014B00062FE0028FAD140F20110ADF804001020BD
:1014C0008DF8070003208DF8060001A94E4801F0B1
:1014D000A7F801214C4801F04EF94FF480714A48B9
:1014E00001F049F94FF44060ADF8040010208DF888
:1014F000070003208DF8060001A9464801F090F886
:1015000007B000BD10B504460723012221463F481D
:1015100001F067FE01213D4801F037FE00BF0221C6
:101520003A4801F08DFF0028F9D0384801F0C0FE9C
:1015300010BD2DE9F04107460C460025002605E0C8
:101540003846FFF7DFFF0544701CC6B2A642F7DB42
:10155000B5FBF4F080B2BDE8F08110B5044602237B
:1015600001222146294801F03CFE0121274801F0D3
:101570000CFE00BF0221254801F062FF0028F9D0CF
:10158000224801F095FE10BD2DE9F04107460C46BA
:101590000025002605E03846FFF7DFFF0544701CF4
:1015A000C6B2A642F7DBB5FBF4F080B2BDE8F0812D
:1015B00010B50446062301222146154801F011FE0C
:1015C0000121134801F0E1FD00BF0221104801F0A4
:1015D00037FF0028F9D00E4801F06AFE10BD2DE952
:1015E000F04107460C460025002605E03846FFF787
:1015F000DFFF0544701CC6B2A642F7DBB5FBF4F072
:1016000080B2BDE8F08100000008014000240140E4
:1016100000280140000C014010B586B004460121AD
:101620000C2001F0B1FA0121480401F0BAFA4FF49C
:101630000040ADF8140010208DF8170003208DF83D
:10164000160005A9264800F0EBFF0420ADF81400B1
:1016500018208DF8170005A9224800F0E1FF0820A6
:10166000ADF8140004208DF8170005A91D4800F0FE
:10167000D7FF0121480401F0AEFA00214FF40030F9
:1016800001F0A9FA01940020ADF80800ADF80A00B5
:10169000ADF80C00ADF810000C20ADF80E0001A95B
:1016A000114801F01CFB26208DF8000003208DF866
:1016B00001008DF8020001208DF80300684600F05B
:1016C000E6FE012240F22551074801F0A0FB01216E
:1016D000054801F090FB00200449086006B010BDE9
:1016E000000C01400008014000440040BC81214240
:1016F00070B504460E46FE480078012823D100202C
:10170000FB490870002519E014F0800F03D1002078
:10171000F849086002E00120F64908604FF0000037
:10172000F54908604FF0010000F086FD0120F34903
:10173000C1F89C016006040E681CC5B2B542E3DB2B
:101740000120EB49087070BD10B504460020EC493B
:1017500008604FF003014FF08000FFF7C9FF092137
:101760002046FFF7C5FF0120E449C1F8940110BDF0
:1017700010B5E448806940F00800E2498861E24819
:10178000006820F0F000E04908600846006840F07A
:1017900030000860081F0068C0F31300091F0860CC
:1017A00008460068D9490843D749091F0860D64848
:1017B0000830006840F40070D349083108600846DA
:1017C000006840F0200008600846006840F04000D3
:1017D00008600846006840F0800008600220FFF7BB
:1017E000B3FF2920FFF7B0FF0120FFF7ADFF032073
:1017F000FFF7AAFF10BD70B504460E46BC4800783E
:10180000012822D10020BA490870002518E014F000
:10181000010F03D10020B749086002E00120B5495B
:1018200008604FF00000B44908604FF0010000F07C
:1018300003FD0120B149C1F89C016410681CC5B2C8
:10184000B542E4DB0120AA49087070BD70B50446BA
:101850000D462920FFF778FF0120FFF775FF0320D1
:10186000FFF772FF0020A64908604FF003014FF018
:10187000A000FFF73DFFA106080E0621FFF738FF85
:1018800004212846FFF7B7FF01209C49C1F89401C5
:1018900070BD2DE9F04105460C4616462920FFF79C
:1018A00053FF0120FFF750FF0320FFF74DFF0020FB
:1018B000934908604FF003014FF0A000FFF718FFB5
:1018C000A906080E0621FFF713FF002706E020787F
:1018D0000421FFF790FF781CC7B2641CB742F6DB07
:1018E000012087490860BDE8F08170B52920FFF725
:1018F0002BFF0120FFF728FF0320FFF725FF00241F
:101900000DE0002507E00020A840C1B22046FFF707
:101910009DFF681CC5B2042DF5DB601CC4B2162CFB
:10192000EFDB70BD2DE9F35F0C4604210C20FFF7BF
:101930008DFF01210E20FFF789FF01211120FFF704
:1019400085FF01210F20FFF781FF714800780128F2
:1019500003D101210620FFF779FF6D48007818B9FF
:1019600001210520FFF772FF009D6A4800780128D9
:101970000AD1642095FBF0F0C6B26748022202FB50
:1019800006011020FFF785FF6248007818B905218D
:101990001120FFF75BFF642095FBF0F100FB115075
:1019A0000A2190FBF1F0C7B25C48022202FB07015A
:1019B0001220FFF76EFF0A2095FBF0F100FB11509B
:1019C0000A2190FBF1F201FB120000F0FF085348DE
:1019D000022202FB08011420FFF75BFF642094FB46
:1019E000F0F01FFA80F94D48022202FB090110466F
:1019F000FFF74FFF642094FBF0F100FB11400A2138
:101A000090FBF1F01FFA80FA4548022202FB0A011E
:101A10000A20FFF73EFF0A2094FBF0F100FB114083
:101A20001FFA80FB3E48022202FB0B010820FFF751
:101A300030FFBDE8FC9F2DE9F047044601210C2052
:101A4000FFF704FF32480078012803D10121062066
:101A5000FFF7FCFE2E48007818B901210520FFF79A
:101A6000F5FE01210F20FFF7F1FE25462C4642F23C
:101A70001070B5FBF0F086B22848022202FB060186
:101A80001020FFF706FF42F21070B5FBF0F100FBEB
:101A900011404FF47A71B0FBF1F72048022202FBAB
:101AA00007011220FFF7F5FE4FF47A70B5FBF0F155
:101AB00000FB11406421B0FBF1F81848022202FB40
:101AC00008011420FFF7E5FE6420B5FBF0F100FBF0
:101AD00011400A21B0FBF1F91048022202FB090172
:101AE0000020FFF7D6FE0A20B5FBF0F11AE0000057
:101AF0006C000020988121429C812142008021427B
:101B00009481214200100240040C01400000303357
:101B100002000020C7000020440000201C0000201C
:101B20003000002000FB114AE748022202FB0A01B4
:101B30001046FFF7AEFEBDE8F0872DE9F0470446FA
:101B400005210F20FFF782FEE0480078012803D12D
:101B500001210620FFF77AFEDC48007818B9012140
:101B60000520FFF773FE25462C4642F21070B5FBA8
:101B7000F0F086B2D448022202FB06011420FFF7DF
:101B800088FE42F21070B5FBF0F100FB11404FF4FB
:101B90007A71B0FBF1F7CC48022202FB070100206A
:101BA000FFF777FE4FF47A70B5FBF0F100FB1140C0
:101BB0006421B0FBF1F8C448022202FB0801104680
:101BC000FFF767FE6420B5FBF0F100FB11400A212E
:101BD000B0FBF1F9BE48022202FB09010A20FFF71F
:101BE00058FE0A20B5FBF0F100FB114AB84802226A
:101BF00002FB0A010820FFF74CFEBDE8F0872DE943
:101C0000F041044604210E20FFF720FEAF48007883
:101C1000012803D101210620FFF718FEAB48007808
:101C200018B901210520FFF711FE01210F20FFF750
:101C30000DFE642094FBF0F0C5B2A348022202FB23
:101C400005011046FFF725FE642094FBF0F100FB30
:101C500011400A2190FBF1F0C6B29D48022202FB1E
:101C600006010A20FFF715FE0A2094FBF0F100FBA5
:101C70001140C7B29648022202FB07010820FFF775
:101C800008FEBDE8F0812DE9F05F04460D4608210D
:101C90000720FFF7DBFD8D480078012803D10121E3
:101CA0000620FFF7D3FD8948007818B901210520E7
:101CB000FFF7CCFD01210F20FFF7C8FD642094FB46
:101CC000F0F0C6B28048022202FB06011020FFF7A6
:101CD000E0FD642094FBF0F100FB11400A2190FB31
:101CE000F1F0C7B27848022202FB07011220FFF789
:101CF000D0FD0A2094FBF0F100FB114000F0FF083A
:101D00007148022202FB08011420FFF7C2FD642083
:101D100095FBF0F000F0FF096B48022202FB09017D
:101D20001046FFF7B6FD642095FBF0F100FB115063
:101D30000A2190FBF1F000F0FF0A6548022202FB45
:101D40000A010A20FFF7A5FD0A2095FBF0F100FB30
:101D5000115000F0FF0B5E48022202FB0B0108202D
:101D6000FFF797FDBDE8F09F2DE9F04104460821FB
:101D70000D20FFF76BFD55480078012803D10121A4
:101D80000620FFF763FD5148007818B901210520AE
:101D9000FFF75CFD01210F20FFF758FD642094FB45
:101DA000F0F0C5B24848022202FB05011046FFF7D9
:101DB00070FD642094FBF0F100FB11400A2190FBC0
:101DC000F1F0C6B24248022202FB06010A20FFF7E8
:101DD00060FD0A2094FBF0F100FB1140C7B23C48C3
:101DE000022202FB07010820FFF753FDBDE8F08146
:101DF0002DE9F041044608210620FFF727FD0821C0
:101E00000720FFF723FD01210F20FFF71FFD6420AE
:101E100094FBF0F0C5B22C48022202FB05011046EB
:101E2000FFF737FD642094FBF0F100FB11400A211D
:101E300090FBF1F0C6B22648022202FB06010A20FE
:101E4000FFF727FD0A2094FBF0F100FB1140C7B219
:101E50001F48022202FB07010820FFF71AFDBDE818
:101E6000F08170B504461B48007801282BD1002072
:101E7000184908701849086005461AE000201749FB
:101E8000086014F0800F03D101F10401086002E042
:101E90000120134908604FF0030000F0CDF9012044
:101EA0000E4908604FEA44604FEA106405F10100F2
:101EB000C5B2082DE2DB0A2000F0BEF90120064978
:101EC00008600449087070BD1C000020020000205A
:101ED000300000206C000020A48121429881214222
:101EE0009C8121428548806940F0040083498861D3
:101EF0008348006820F47F20814908600846006814
:101F000040F4082008607E480830006840F0010076
:101F10007B49083108600846006840F0010008600D
:101F2000704710B57748006800287DD17648007862
:101F3000002879D0754A1179D078012202F0A1FAEF
:101F400003207349087000206F49087008E040F6CC
:101F5000B83000F071F9601CC4B2B42C00DB03E0AF
:101F6000684800680028F2D000BFB42C09DB0020CC
:101F700068490870FFF7B9FC67480078FFF738FF39
:101F8000BAE064480078012843D164480078401CD6
:101F90006249087008460078062801DD01200870B3
:101FA0005E480078072833D2DFE800F032040D14D1
:101FB0001B222B00FFF799FC5948018859480078EB
:101FC000FFF7B0FC24E0FFF790FC57480068FFF7EC
:101FD00032FD1DE0FFF789FC54480088FFF7ADFD96
:101FE00016E0FFF782FC52480078FFF708FE0FE08A
:101FF000FFF77BFC484801784E480078FFF743FE26
:1020000006E0FFF772FC4C480078FFF7ADFE00BF1A
:1020100000BF4048007800286ED103203C4908707A
:102020003D480078401C00E013E03B49087008463A
:102030000078202801DD00200870FFF756FC3648A4
:102040000078FFF7D5FE344801781020FFF738F903
:1020500052E02C48006801284ED12B49087008E056
:1020600040F6C41000F0E8F8601CC4B2C82C00DBD5
:1020700003E0244800680128F2D000BFC82C3BDBF5
:1020800001202449087025480078072833D2DFE86A
:1020900000F032040D141B222B00FFF726FC204811
:1020A000018820480078FFF73DFC24E0FFF71DFC85
:1020B0001D480068FFF7BFFC1DE0FFF716FC1B483A
:1020C0000088FFF73AFD16E0FFF70FFC184800788C
:1020D000FFF795FD0FE0FFF708FC0F480178154862
:1020E0000078FFF7D0FD06E0FFF7FFFB124800780D
:1020F000FFF73AFE00BF00BF10BD00000010024015
:10210000040801402C01214270000020F000002052
:102110008000002072000020730000207100002069
:1021200078000020760000207C0000207A0000204B
:1021300081000020750000207400002070B5054665
:102140000C4645F2555001F039FA284601F039FAAB
:10215000204601F039FA01F03AFA01F03DFA70BD7B
:1021600010B501F034FA10BD08B500208DF800005C
:102170008DF801008DF80200684600F088F908BD6E
:1021800070B506460C4615460121C80200F009FD4F
:1021900011480078304010490870284602F011F9C3
:1021A000204602F017F90C48007802F028F902F0F6
:1021B00031F9FFF7D9FF02F018F970BD10B50446E8
:1021C000204602F01CF910BD10B50348007802F05B
:1021D00010F902F01FF910BD8200002010B507F0C1
:1021E000B6FA07F0FAFB07F0CDFA10BD10B56FF0A4
:1021F000040000F097F9394800683949B0FBF1F064
:1022000038490870354800683549B0FBF1F441F2AF
:10221000883044430520344908804FF0E0200069AD
:1022200040F002004FF0E021086108464461006977
:1022300040F00100086110BD70B5034600224FF068
:10224000E0267569274E367803FB06F400BF4FF091
:10225000E026B16910E04FF0E026B06988420BD06B
:10226000884202D20E1A324402E02E1A0E44324440
:102270000146A24200D300E0EDE700BF70BD70B59B
:1022800004461A480078012811D117480088844272
:1022900006DB1548008894FBF0F5284609F03CFC65
:1022A0001148008894FBF0F100FB114084B24FF418
:1022B0007A7104FB01F0FFF7BFFF70BD10B5044653
:1022C0000948008894FBF0F100FB114084B24FF400
:1022D0007A7104FB01F0FFF7AFFF10BD080000208A
:1022E00000127A00840000208600002022010020D5
:1022F00010B54FF4A06000F0C5F810BD014600BF56
:10230000704700BF4B4A128812F0400FFAD0C2B299
:10231000484B1B1D1A80704710B586B0044601213A
:1023200044F2050000F030FC4FF40070ADF81400EA
:1023300003208DF8160018208DF8170005A93E48D7
:1023400000F06EF94FF48060ADF8140004208DF8B1
:10235000170005A9384800F063F925208DF8000022
:1023600003208DF801008DF8020001208DF8030094
:10237000684600F08CF801940020ADF80800ADF834
:102380000A00ADF80C00ADF810000C20ADF80E00FE
:1023900001A9284800F0A3FC012240F2255125485C
:1023A00000F035FD0121234800F025FD06B010BDE9
:1023B00010B507F0CCF940F225511E4800F00FFE91
:1023C00010B31C4800F08BFDC4B21C48008810F408
:1023D000004F2BD11948008810F4804F0CD00A2CE4
:1023E00003D000201549088020E01448008840F4FC
:1023F00000401249088019E00D2C06D10F480088D2
:1024000040F480400D49088010E00C480088C0F37B
:102410000D000B490C5409480088401C07490880EE
:1024200008460088C72801DD0020088007F0AAF9C7
:1024300010BD000000380140000801408800002065
:10244000440800200948804709480047FEE7FEE7A6
:10245000FEE7FEE7FEE7FEE7FEE7FEE7FEE7FEE754
:1024600004480549054A064B70470000D10E000894
:1024700031010008783000207836002078320020C2
:102480007832002031490143314A1160704770B5FC
:10249000002100230F22C4780CB32D4C246804F4CF
:1024A000E064C4F5E064210AC1F10403CA40447841
:1024B00004FA03F18478144021430901254C06787D
:1024C000A155047804F01F050124AC4005786D1176
:1024D0004FF0E02606EB8505C5F8004109E00478D9
:1024E00004F01F050124AC401B4D0678761145F819
:1024F000264070BD194A0A400243154B1B1F1A6043
:10250000704739B1124A121D12680243104B1B1D4D
:102510001A6006E00E4A121D126882430C4B1B1D06
:102520001A607047042808D14FF0E021096941F092
:1025300004014FF0E022116107E04FF0E02109694A
:1025400021F004014FF0E022116170470000FA050C
:102550000CED00E000E400E080E100E080FFFF1F00
:1025600010B50446CA48844208D10121042000F075
:1025700025FB0021042000F021FB46E0C5488442F1
:1025800008D10121082000F019FB0021082000F0EB
:1025900015FB3AE0C048844208D10121102000F028
:1025A0000DFB0021102000F009FB2EE0BB48844207
:1025B00008D10121202000F001FB0021202000F0A3
:1025C000FDFA22E0B648844208D10121402000F003
:1025D000F5FA0021402000F0F1FA16E0B1488442FB
:1025E00008D10121802000F0E9FA0021802000F0CC
:1025F000E5FA0AE0AC48844207D10121801500F0D9
:10260000DDFA0021A01500F0D9FA10BD10B50121A6
:10261000084600F0D3FA0021012000F0CFFA10BDE7
:102620002DE9F04102460025002600200023002469
:10263000002791F803C00CF00F0591F803C01CF0BF
:10264000100F03D091F802C04CEA0505B1F800C0A4
:102650001CF0FF0F31D0146800202BE04FF0010C6C
:102660000CFA00F3B1F800C00CEA03069E4220D138
:1026700083004FF00F0C0CFA03F7BC4305FA03FC80
:102680004CEA040491F803C0BCF1280F06D14FF0C6
:10269000010C0CFA00FCC2F814C00AE091F803C067
:1026A000BCF1480F05D14FF0010C0CFA00FCC2F848
:1026B00010C0401C0828D1D31460B1F800C0BCF190
:1026C000FF0F34DD546800202EE000F1080C4FF0BD
:1026D000010808FA0CF3B1F800C00CEA03069E42A8
:1026E00021D183004FF00F0C0CFA03F7BC4305FA1D
:1026F00003FC4CEA040491F803C0BCF1280F05D197
:1027000000F1080C08FA0CF8C2F8148091F803C024
:10271000BCF1480F07D100F1080C4FF0010808FA8E
:102720000CF8C2F81080401C0828CED35460BDE8D5
:10273000F0814FF6FF710180022181700421C17088
:1027400070470246002093680B4201D0012000E050
:10275000002070470146886880B27047024600201A
:10276000D3680B4201D0012000E0002070470146F1
:10277000C86880B2704701617047416170470AB113
:10278000016100E041617047C16070474FF48032E1
:102790000A4382618161826182698269704702466F
:1027A0000020424B18684FF68073184040EA021030
:1027B00008433E4B186070473D49C8617047F0B50B
:1027C0000A46002300240021002500F00046B6F14F
:1027D000004F02D1354EF16901E0344E7168C0F30B
:1027E000034583B200F44016B6F5401F08D121F02E
:1027F00070612E4E766826F070662C4F7E6012E077
:1028000000F48016B6F5801F06D1032606FA05F4FB
:10281000A14341F0706106E0460D360103FA06F669
:10282000B14341F0706122B1460D360103FA06F65C
:10283000314300F00046B6F1004F02D11B4EF1616A
:1028400001E01A4E7160F0BD30B500228B071C0FFD
:102850000F2303FA04F2154B08338C1053F824307D
:102860009343124C08348D1044F8253023468C10C5
:1028700053F824308C07240F00FA04F423430B4C44
:1028800008348D1044F8253030BD0A49086070477F
:1028900000080140000C01400010014000140140FC
:1028A00000180140001C01400020014000000140D0
:1028B00000002042DC002042DC48006840F00100BB
:1028C000DA49086008464068D9490840D749486055
:1028D00008460068D7490840D4490860084600689F
:1028E00020F4802008600846406820F4FE0048601C
:1028F0004FF41F0088607047CC49096821F480318B
:10290000CA4A11601146096821F480211160B0F5AE
:10291000803F03D0B0F5802F0ED106E0C34909688F
:1029200041F48031C14A116007E0C049096841F4AF
:10293000A021BE4A116000E000BF00BF704710B583
:1029400001460022002300204A11012A02D1B74C7F
:10295000236806E0022A02D1B44C236A01E0B34C9A
:10296000636A01F01F02012494401C4201D001203F
:1029700000E0002010BD70B500240025002600BF37
:102980003120FFF7DCFF0646641CB4F5A06F01D0D0
:10299000002EF5D03120FFF7D2FF08B1012500E06D
:1029A0000025284670BD01460020A04A106820F08E
:1029B000F80040EAC100106070479F490860704706
:1029C00002460020994B586820F47C1042EA01032B
:1029D0001843964B58607047974908667047014600
:1029E0000020924A506820F003000843506070476E
:1029F0008E48406800F00C007047014600208B4A6A
:102A0000506820F0F00008435060704701460020F5
:102A1000864A506820F4E0600843506070470146E1
:102A20000020824A506820F4605040EAC1005060A3
:102A3000704729B17D4A527A02437C4B5A7206E0B4
:102A40007A4A527AC343DBB21A40784B5A727047C3
:102A50007A490860704701460020744A506820F4A3
:102A600040400843506070470021754A11706F4A1A
:102A700082F82010012802D0042808D103E00121A7
:102A80006F4A117004E005216D4A117000E000BF2B
:102A900000BF70476B49086070476449096A014389
:102AA000624A11627047674944390860704730B51F
:102AB00000210022002400235C4D6D6805F00C010C
:102AC00021B1042905D0082923D105E05E4D056018
:102AD00022E05D4D05601FE0544D6D6805F47012F5
:102AE000524D6D6805F48034022505EB92421CB905
:102AF000564D554305600BE04C4D6D6815F4003F95
:102B000003D0524D5543056002E04F4D55430560DB
:102B100002E04D4D056000BF00BF444D6D6805F0FB
:102B2000F00109094A4D6B5C0568DD4045603F4D89
:102B30006D6805F4E061090A454D6B5C4568DD4050
:102B400085603A4D6D6805F46051C90A404D6B5C73
:102B50004568DD40C560354D6D6805F44041890B21
:102B60003C4D6B5CC568B5FBF3F5056130BD29B123
:102B70002E4A526902432D4B5A6104E02B4A526996
:102B800082432A4B5A61704729B1284A926902430D
:102B9000264B9A6104E0254A92698243234B9A614D
:102BA000704729B1214AD2690243204BDA6104E01F
:102BB0001E4AD26982431D4BDA61704729B11B4A14
:102BC000D2680243194BDA6004E0184AD2688243A3
:102BD000164BDA60704729B1144A12690243134B4D
:102BE0001A6104E0114A12698243104B1A6170475E
:102BF00014494039086070470F49C86470470B4951
:102C0000C87170470948406A40F0807007494862BF
:102C1000704701460020054A92680A4201D001200F
:102C200000E00020704701498872704700100240A0
:102C30000000FFF8FFFFF6FE00004242D8004242CB
:102C4000201002408004424200127A0000093D0038
:102C500090000020A000002010B50446FC488442EB
:102C600009D101218803FFF7A9FF00214FF480401B
:102C7000FFF7A4FF32E0F748844209D1012148045C
:102C8000FFF7A9FF00214FF40030FFF7A4FF25E074
:102C9000F148844209D101218804FFF79CFF0021FB
:102CA0004FF48020FFF797FF18E0EC48844209D1E9
:102CB0000121C804FFF78FFF00214FF40020FFF728
:102CC0008AFF0BE0E648844208D101210805FFF79E
:102CD00082FF00214FF48010FFF77DFF10BD2DE92A
:102CE000F04786B005460E460024A24600BFA14626
:102CF0000027B08900B100BF2F462C8A4CF6FF7028
:102D00000440F08804432C82AC894EF6F310044052
:102D1000B08831890843718908430443AC81AC8A87
:102D20004FF6FF400440B0890443AC8201A8FFF78E
:102D3000BEFEC748874202D1DDF810A001E0DDF8F1
:102D40000CA0A88910F4004F08D00AEBCA0000EBD1
:102D50000A1031684900B0FBF1F807E00AEBCA003D
:102D600000EB0A1031688900B0FBF1F86420B8FB71
:102D7000F0F004012009642101FB1089A88910F4F6
:102D8000004F08D0322000EBC900B0FBF1F000F09A
:102D90000700044308E0322000EB09106421B0FB77
:102DA000F1F000F00F0004432C8106B0BDE8F0877D
:102DB0004FF41651016000218180C18001810C21F6
:102DC000418100218181704710B502460020108AA0
:102DD0004FF2FF0318400B884C8823438C88234311
:102DE000CC8823431843108210BD0021018041800C
:102DF0008180C180704721B1828942F40052828172
:102E000004E082894DF6FF731A4082817047F0B565
:102E100003460024002600250020A1F510676A3F24
:102E200000D100BF1846C1F3421401F01F0601276C
:102E300007FA06F5012C01D10C3004E0022C01D177
:102E4000103000E014301AB107682F43076002E029
:102E50000768AF430760F0BD10B51AB1838A0B4312
:102E6000838204E0838ACC43A4B22340838210BDD2
:102E7000028A4FF6F0731A400282028A0A430282E3
:102E8000704782894FF2FF731A40828182890A4318
:102E90008281704721B1828942F00202828104E07E
:102EA00082894FF6FD731A4082817047028A4FF67D
:102EB000DF731A400282028A0A430282704721B1FC
:102EC000028A42F48042028204E0028A4BF6FF73D7
:102ED0001A4002827047C1F308028280704701469F
:102EE0008888C0F308007047818941F00101818121
:102EF0007047028BD2B20283028B42EA0122028324
:102F00007047028B02F47F420283028B0A430283E2
:102F1000704721B1828A42F02002828204E0828AD4
:102F20004FF6DF731A408282704721B1828A42F0E5
:102F30001002828204E0828A4FF6EF731A40828286
:102F4000704721B1828A42F00802828204E0828ABC
:102F50004FF6F7731A408282704721B1828942F49A
:102F60000042828103E08289C2F30E0282817047AF
:102F700021B1828A42F40062828204E0828A4FF2A6
:102F8000FF731A4082827047828A4FF6FB731A40A1
:102F90008282828A0A438282704721B1828A42F009
:102FA0000202828204E0828A4FF6FD731A40828216
:102FB000704702460020B1F5007F00D100BF1388A2
:102FC0000B4201D0012000E00020704701F40072A4
:102FD000B2F5007F00D100BFCA430280704770B5D0
:102FE00002460024002300250020A1F510666A3E59
:102FF00000D100BFC1F3421501F01F03012606FAFC
:1030000003F3012D02D19689334006E0022D02D14F
:10301000168A334001E0968A33400C12012606FAE4
:1030200004F41688344013B10CB1012000E00020F4
:1030300070BD10B500220023A1F510646A3C00D1D8
:1030400000BF0A1201249440A3B2DC43048010BDE7
:10305000003801400044004000480040004C00405F
:103060000050004010B50446F948844208D10121BF
:103070004015FFF7A3FD00216015FFF79FFD17E046
:10308000F448844208D101210015FFF797FD002183
:103090002015FFF793FD0BE0EF48844208D1012192
:1030A000C803FFF78BFD00214FF40040FFF786FDBA
:1030B00010BD30B50246002000235068E74C204088
:1030C0000D790C6844EA0524204350609068E44C74
:1030D0002040D1E902542C434D7944EA4504204371
:1030E0009060D06A20F470000C7C641EE4B223432C
:1030F00040EA0350D06230BD00210160017141718E
:103100008160C16001210174704721B1826842F081
:103110000102826003E0826822F00102826070474F
:1031200021B1826842F48072826003E0826822F4F6
:1031300080728260704710B50023CBB21AB1446828
:103140001C43446002E044689C43446010BD8168B5
:1031500041F0080181607047014600208A6812F042
:10316000080F01D0012000E000207047816841F085
:10317000040181607047014600208A6812F0040F44
:1031800001D0012000E00020704721B1826842F4A4
:10319000A002826003E0826822F4A002826070478D
:1031A000014600208A6812F4800F01D0012000E05F
:1031B0000020704710B50A4600210023416821F421
:1031C0006041531E41EA4331416010BD21B1426864
:1031D00042F40062426003E0426822F4006242600E
:1031E0007047F0B504460D4600200021092D11DD81
:1031F000E068A5F10A0606EB4607072606FA07F17E
:103200008843A5F10A0606EB460603FA06F10843D1
:10321000E0600CE0206905EB4507072606FA07F198
:10322000884305EB450603FA06F108432061072AA7
:103230000FDA606B561E06EB86071F2606FA07F1AB
:103240008843561E06EB860605FA06F108436063BE
:1032500022E00D2A0FDA206BD61F06EB86071F2609
:1032600006FA07F18843D61F06EB860605FA06F133
:103270000843206310E0E06AA2F10D0606EB860722
:103280001F2606FA07F18843A2F10D0606EB860613
:1032900005FA06F10843E062F0BD21B1826842F40C
:1032A0008012826003E0826822F48012826070479C
:1032B0000146C86C80B2704765484C300068704762
:1032C00021B1426842F48062426003E0426822F425
:1032D00080624260704721B1426842F4805242608D
:1032E00003E0426822F48052426070470A4600219F
:1032F000816821F4E04111438160704721B1826807
:1033000042F40042826003E0826822F4004282605C
:10331000704721B1826842F40212826003E0826841
:1033200022F4021282607047014600208A6812F47B
:10333000001F01D0012000E000207047F0B50446D6
:103340001546002000220026092911DDE068A1F1C0
:103350000A0707EB470C072707FA0CF29043A1F185
:103360000A0707EB470703FA07F21043E0600CE097
:10337000206901EB410C072707FA0CF2904301EB9F
:10338000410703FA07F210432061A06BC0F3015616
:10339000EF1C06F1010CA7EB0C0707EB870C1F27AE
:1033A00007FA0CF29043EF1C06F1010CA7EB0C0797
:1033B00007EB870701FA07F21043A063F0BD10B5D1
:1033C0000A4600210023816B21F44011531E41EA7B
:1033D0000351816310BD10B5002303460B441A60EE
:1033E00010BD02460023134601F12800034418686B
:1033F00080B270470A46002141681A4B19401143B8
:10340000416070474162826270470A46002141680C
:1034100021F01F0111434160704740B10C49083150
:10342000096841F400010A4A0832116007E00849BE
:103430000831096821F40001054A0832116070471B
:103440000246002013680B420ED001200DE0000060
:103450000024014000280140003C0140FFFEF0FF35
:10346000FDF7F1FFFFFD3FFF00207047CA430260F8
:10347000704770B502460020002300240B125568E7
:10348000CEB205EA060415681D4202D00CB1012037
:1034900000E0002070BD00220A12D3430360704791
:1034A000002044490860091D0860091D0860091DC5
:1034B000086041483F4914310860704700213D4988
:1034C0008279002A3AD00A46126803689A430B466A
:1034D0001A600A1D126803689A430B1D1A6002796C
:1034E00011440A6803681A430A60324A08321268B3
:1034F00003689A432F4B08331A601A1D1268036839
:103500009A432C4B0C331A604279102A0ED11A1FA1
:10351000126803681A43274B08331A601A1D126891
:1035200003681A43234B0C331A600DE0214942799A
:1035300011440A6803681A430A6005E002791144DD
:103540000A6803689A430A607047002101600171AC
:103550000C214171002181717047164910310968B1
:103560000143144A10321160704701460020114A8D
:10357000143212680A4201D0012000E00020704796
:103580000C49143108607047014600200022094BA5
:103590001B6803EA0102074B14331B680B4202D07D
:1035A0000AB1012000E00020704702491431086090
:1035B0007047000000040140FFFF0F000E49086043
:1035C00070470D49486070470B49886070474AF65C
:1035D000AA200949086070474CF6CC4006490860AB
:1035E000704701460020044AD2680A4201D00120F7
:1035F00000E00020704700000030004010B5044695
:10360000FE48844208D10121C014FFF7D7FA0021F7
:10361000E014FFF7D3FAC4E0B4F1804F08D10121E0
:103620000846FFF7D8FA00210120FFF7D4FAB8E0E6
:10363000F348844208D101210220FFF7CCFA00218F
:103640000220FFF7C8FAACE0EE48844208D101211D
:103650000420FFF7C0FA00210420FFF7BCFAA0E025
:10366000E948844208D101210820FFF7B4FA00217B
:103670000820FFF7B0FA94E0E448844208D1012121
:103680001020FFF7A8FA00211020FFF7A4FA88E025
:10369000DF48844208D101212020FFF79CFA002155
:1036A0002020FFF798FA7CE0DA48844208D1012113
:1036B0004014FFF783FA00216014FFF77FFA70E0EF
:1036C000D548844209D10121C804FFF777FA0021C7
:1036D0004FF40020FFF772FA63E0D048844209D12A
:1036E00001210805FFF76AFA00214FF48010FFF767
:1036F00065FA56E0CA48844209D101214805FFF71E
:103700005DFA00214FF40010FFF758FA49E0C54870
:10371000844208D101214020FFF75DFA00214020BA
:10372000FFF759FA3DE0C048844208D101218020CA
:10373000FFF751FA00218020FFF74DFA31E0BB4836
:10374000844208D101218015FFF745FA0021A01518
:10375000FFF741FA25E0B648844209D10121080467
:10376000FFF72CFA00214FF48030FFF727FA18E01A
:10377000B048844209D101214804FFF71FFA002113
:103780004FF40030FFF71AFA0BE0AB48844208D13F
:1037900001218804FFF712FA00214FF48020FFF77F
:1037A0000DFA10BD00220288944B98420ED0994B1E
:1037B00098420BD0B0F1804F08D0914B984205D081
:1037C000904B984202D0904B984204D14FF68F73A1
:1037D0001A404B881A438D4B984207D08C4B984225
:1037E00004D04FF6FF431A40CB881A4302808B88DF
:1037F00083850B880385814B98420BD0854B98427B
:1038000008D08B4B984205D08A4B984202D08A4B05
:10381000984201D10B7A038601238382704770B5E9
:10382000002400220023058C4FF6FE7635400584E7
:10383000028C8388048B4FF68F752C40B51E2C406C
:103840000D882C43751E2A400D892A434D882A4332
:103850006A4DA8420BD06F4DA84208D0744DA842C3
:1038600005D0744DA84202D0734DA84213D14FF633
:10387000F7752A404D892A434FF6FB752A408D88FB
:103880002A434FF6FF652B404FF6FF552B408D899D
:103890002B43CD892B4383800483CD888586028486
:1038A00070BD70B5002400220023058C4FF6EF7622
:1038B00035400584028C8388048B48F6FF752C40C4
:1038C0004FF6FF452C400D882D0644EA15444FF66F
:1038D000DF752A400D892D0542EA15424D882D05D8
:1038E00042EA1542454DA84202D04A4DA8421BD19A
:1038F0004FF67F752A404D892D0542EA15424FF655
:10390000BF752A408D882D0542EA15424FF6FF35D6
:103910002B404FF2FF752B408D89AD0443EA1543D0
:10392000CD89AD0443EA154383800483CD880587A0
:10393000028470BD70B5002400220023058C4FF670
:10394000FF6635400584028C8388848B4FF68F7523
:103950002C404FF6FC752C400D882C434FF6FF553C
:103960002A400D892D0642EA15424D882D0642EA6D
:103970001542224DA84202D0264DA8421BD14FF23B
:10398000FF752A404D892D0642EA15424FF6FF3554
:103990002A408D882D0642EA15424EF6FF752B40CF
:1039A0004DF6FF752B408D892D0543EA1543CD89D2
:1039B0002D0543EA154383808483CD88858702845F
:1039C00070BD70B5002200230024058C4EF6FF76F2
:1039D00035400584038C8488828B48F6FF752A4025
:1039E0004FF6FF452A400D882D0642EA15424DF656
:1039F000FF752B400D892D0720E00000002C0140B1
:103A00000004004000080040000C0040001000408E
:103A10000014004000340140004C014000500140BF
:103A20000054014000180040001C004000200040ED
:103A300000400140004401400048014043EA154372
:103A40004D882D0743EA1543F84DA84202D0F84DA2
:103A5000A84206D14BF6FF752C408D89AD0544EA8E
:103A6000154484808283CD88A0F84050038470BDC3
:103A7000828B4FF2FF331A408283828B0B0642EA1D
:103A8000134282837047F0B50C4615460022002190
:103A90000026078C4EF6FF7C07EA0C070784828B12
:103AA000018C27073E0C40F6FF473A402F0642EABA
:103AB00017421F0742EA1742DC4FB8420ED0DC4FD4
:103AC000B8420BD0B0F1804F08D0DA4FB84205D0E1
:103AD000D94FB84202D0D94FB84206D14DF6FF7740
:103AE000394046F48057394305E047F6FF573940DF
:103AF00044F48057394382830184F0BD828B4FF6B2
:103B0000F3731A408283828B0A4382837047F0B535
:103B10000C461546002200210026078C4FF6FF6C4C
:103B200007EA0C070784828B018C27063E0C4FF6B0
:103B30000C773A401F0545EA17473A43BB4FB84256
:103B40000ED0BB4FB8420BD0B0F1804F08D0B94F68
:103B5000B84205D0B84FB84202D0B84FB84206D1EB
:103B60004FF6FF57394046F48077394305E04FF26E
:103B7000FF57394044F48077394382830184F0BD94
:103B8000028B4FF2FF331A400283028B0B0642EA8C
:103B9000134202837047F0B50C46154600220021FF
:103BA0000026078C4FF6EF7C07EA0C070784028B90
:103BB000018C27053E0C40F6FF473A401F0742EABA
:103BC00017422F0642EA1742984FB8420ED0984F3C
:103BD000B8420BD0B0F1804F08D0964FB84205D014
:103BE000954FB84202D0954FB84206D14FF6DF77D5
:103BF000394046F01007394305E04FF65F7739400A
:103C000044F01007394302830184F0BD028B4FF664
:103C1000F3731A400283028B0A4302837047F0B5A4
:103C20000C46154600220021068C4FF6FE773E40DA
:103C30000684028B018C4FF60C7632401E0545EA55
:103C400016463243794EB0420ED0794EB0420BD078
:103C5000B0F1804F08D0774EB04205D0764EB042DA
:103C600002D0764EB04206D14FF6FD76314044F098
:103C70000106314305E04FF6F576314044F0010688
:103C8000314302830184F0BD70B505460C46674898
:103C900085420ED0664885420BD0B5F1804F08D0E2
:103CA0006448854205D06448854202D06348854215
:103CB00000D100E000BF208850B92389A288618824
:103CC0002846FFF7ACFFE1882846FFF79FFF25E075
:103CD000208804280AD12389A28861882846FFF712
:103CE0005AFFE1882846FFF74BFF17E02088082895
:103CF0000AD12389A28861882846FFF708FFE18856
:103D00002846FFF7FBFE09E02389A2886188284640
:103D1000FFF7B9FEE1882846FFF7AAFE70BD2DE93E
:103D2000F04105460C4600260127608808B90226A6
:103D300000E00026A088012801D1022700E0012729
:103D40002088A0B92389A28861882846FFF767FFE9
:103D5000E1882846FFF75AFF23893A46314628462C
:103D6000FFF719FFE1882846FFF70AFF13E02389D0
:103D7000A28861882846FFF70EFFE1882846FFF7F2
:103D8000FFFE23893A4631462846FFF748FFE1887F
:103D90002846FFF73BFFBDE8F0810A884B881A43AD
:103DA0008B881A43CB881A430B891A434B891A43D1
:103DB0008B891A43A0F8442070474FF6FF71818029
:103DC00000210180C1804180017270470021018083
:103DD00041808180C180018141818181C1817047A1
:103DE000002101804180012181800021C180018169
:103DF00070470021018041808180C1800181418123
:103E00008181704721B1028842F00102028004E002
:103E100002884FF6FE731A400280704781B1B0F8F5
:103E2000442042F40042A0F844200FE0002C01405E
:103E3000003401400004004000080040000C004035
:103E4000B0F84420C2F30E02A0F84420704710B529
:103E50001AB183890B43838104E08389CC43A4B2E4
:103E60002340838110BD8182704741EA0203A0F89C
:103E70004830704710B51AB183890B43838104E041
:103E80008389CC43A4B22340838110BD01894FF6BE
:103E9000F8721140018170470A46002101894FF6EE
:103EA0008F73194011430181704730B504460D46A8
:103EB00029462046FFF7F0FF208940F007002081C7
:103EC00030BD2DE9F04104460D4616461F46602DD3
:103ED00006D13B46012231462046FFF75CFE05E055
:103EE0003B46012231462046FFF799FE29462046EF
:103EF000FFF7D2FF208940F007002081BDE8F08164
:103F000030B50C4600210189C9B21D0642EA1545AB
:103F100025432943018130BD2DE9F04105460E4678
:103F200017469846002443463A4631462846FFF74E
:103F3000E7FF2C894FF6F870044044F007044FF671
:103F40008F70044044F070042C81BDE8F081F0B51E
:103F500004460D4616461F463B4632462946204635
:103F6000FFF7CEFF208940F480402081F0BD01851D
:103F7000828270470A46002101884FF68F731940EC
:103F8000114301807047F0B50C4615461E460021CE
:103F9000002200230189028B038C4FF6F877394009
:103FA00021434FF6FC473A4040F201173A434FF69F
:103FB000DD773B40370545EA17473B4301810283E4
:103FC0000384F0BD0A460021018B4FF68F73194020
:103FD0001143018370470A460021018B48F6FF73A5
:103FE0001940130641EA1341018370470A46002134
:103FF000818B4FF68F7319401143818370470A46B6
:104000000021818B48F6FF731940130641EA1341E2
:104010008183704721B1028842F08002028004E06F
:1040200002884FF67F731A400280704721B1828860
:1040300042F00402828004E082884FF6FB731A404B
:104040008280704721B1828842F00802828004E0B9
:1040500082884FF6F7731A408280704721B18288B8
:1040600042F00102828004E082884FF6FE731A401B
:10407000828070470A460021018B4FF6F773194082
:104080001143018370470A460021018B4FF2FF73F1
:104090001940130641EA1341018370470A46002183
:1040A000818B4FF6F77319401143818370470A469D
:1040B0000021818B4FF2FF731940130641EA13412F
:1040C000818370470A460021018B4FF6FB7319402C
:1040D0001143018370470A460021018B4FF6FF33DD
:1040E0001940130641EA1341018370470A46002133
:1040F000818B4FF6FB7319401143818370470A4649
:104100000021818B4FF6FF331940130641EA13411A
:10411000818370470A460021018B4FF67F73194057
:104120001143018370470A460021018BC1F30E0140
:10413000130641EA1341018370470A460021818B2F
:104140004FF67F7319401143818370470A4600215F
:10415000818BC1F30E01130641EA1341818370473D
:104160000A460021018C4FF6FD731940114301846A
:1041700070470A460021018C4FF6F773194011432E
:10418000018470470A460021018C4FF6DF73194005
:10419000130541EA1341018470470A460021018C4E
:1041A0004FF67F731940130541EA134101847047AC
:1041B0000A460021018C4FF6FF531940130641EACD
:1041C0001341018470470A460021018C4FF2FF73AE
:1041D0001940130641EA1341018470470A46002141
:1041E000018C4DF6FF731940130741EA1341018416
:1041F000704730B5002301248C40A3B2048CDD430A
:10420000ADB22C400484048C02FA01F5ADB22C430B
:10421000048430BD30B5002304248C40A3B2048C48
:10422000DD43ADB22C400484048C02FA01F5ADB23A
:104230002C43048430BD70B503460020002418468A
:10424000183001258D40ACB21D8CE643B6B2354026
:104250001D8409B1082909D100EB6100056825F02A
:10426000700505600568154305600CE00D1FADB2D3
:1042700000EB6500056825F4E04505600568160655
:1042800045EA1645056070BD21B1028842F0020280
:10429000028004E002884FF6FD731A4002807047E6
:1042A00021B1028842F00402028004E002884FF645
:1042B000FB731A400280704721B1828842F080026D
:1042C000828004E082884FF67F731A4082807047B4
:1042D00002884FF6F7731A40028002880A43028070
:1042E000704782884FF68F731A40828082880A4313
:1042F0008280704702894FF6F8731A400281028962
:104300000A430281704702894FF67F731A40028187
:1043100002890A4302817047818470478185704712
:10432000818670470187704781877047A0F84010E9
:10433000704702884FF6FF431A40028002880A4302
:10434000028070470146888E70470146088F70478B
:104350000146888F70470146B1F84000704701461A
:10436000888C70470146088D704702460020138AEA
:104370000B4201D0012000E000207047CA430282B6
:10438000704730B50246002000230024158A05EA54
:104390000103958905EA010413B10CB1012000E085
:1043A000002030BDCA4302827047000010B50121D1
:1043B000C802FEF710FC00214FF40060FEF70BFC72
:1043C00010BD0021164A126822F4C0710143144A3C
:1043D000116070470021124A126822F07F0100F03C
:1043E0007F0211430E4A1160704701200D49086099
:1043F000704700F07F010A4A121F1160704740F0B9
:104400008001074A121F116070470548001D0068AF
:10441000C0B2704700200249091D086070470000C3
:10442000042C0040A48005427FB505460C460121BE
:104430000420FEF7B6FBADF80850ADF804400020AC
:10444000ADF80A00ADF8060001A9F948FFF7AAF98E
:1044500001221146F648FFF7FAFC1E208DF80000F5
:1044600000208DF8010003208DF8020001208DF856
:1044700003006846FEF70BF80121ED48FFF7C2FC88
:104480007FBD70B504460D461646012E1ED124B9D7
:10449000012D02D1F320FDF7E4FC012C03D115B965
:1044A000ED20FDF7DEFC1CB915B9EB20FDF7D9FCBA
:1044B000012C04D1012D02D1F520FDF7D2FC022CF4
:1044C00004D1022D02D1E120FDF7CBFCF6B924B9CD
:1044D000012D02D17320FDF7C4FC012C03D115B9C5
:1044E0006D20FDF7BEFC1CB915B96B20FDF7B9FCBA
:1044F000012C04D1012D02D17520FDF7B2FC022C54
:1045000004D1022D02D16120FDF7ABFC70BD70B566
:1045100004460025C7480578AC4208D10120C649A9
:10452000C871032007F09BF90120C249087070BDD3
:1045300010B505F00CF90121BD48FFF722FF002856
:1045400030D00121BA48FFF72DFFBB48C079B8B978
:10455000BA48008840B9B8494878FFF7D8FFB5484D
:104560000078401CB3490870B4480088002807DD73
:10457000B2480088401EB14908800120AD4908704A
:10458000AF480078002804DDAD480078401EAC49F3
:104590000870AB48007828B9AA4A1179D07800226F
:1045A000FFF76FFF05F0EEF810BD7FB505460C462E
:1045B00001210220FEF7F5FAADF80850ADF80440ED
:1045C0000020ADF80A00ADF8060001A99E48FFF7EB
:1045D000E9F8012211469C48FFF739FC1D208DF8AF
:1045E000000000208DF8010002208DF8020001205B
:1045F0008DF803006846FDF74AFF01219248FFF756
:1046000001FC7FBD10B505F0A2F801218E48FFF72F
:10461000B8FE28B101218C48FFF7C4FEFDF7A0FDCC
:1046200005F0B0F810BD00B591B005F090F840F27B
:1046300025518648FEF7D3FC00287BD08348FEF73F
:104640004EFCC1B2824802780078401C804B187042
:1046500001A8815418460078401E01A9085C26284C
:1046600004D18DF8040001201946087078480078BC
:10467000401E01A9085C2A281AD10020744908703C
:104680009DF80500212804D101A97248006806F0B0
:1046900001F99DF80500232805D101A96E4800689D
:1046A00006F0F8F804E001A96C48006806F0F2F89A
:1046B00067480078401E01A9085C252804D18DF8C0
:1046C000040001206249087061480078401E01A979
:1046D000085C292802D100205D4908705C480078F8
:1046E000401E01A9085C242804D18DF80400012093
:1046F0005749087056480078401E01A9085C3F28B9
:1047000002D100205249087051480078401E01A98A
:10471000085C2D2804D18DF8040001204C49087054
:104720004B480078401E01A9085C3D2802D10020BA
:104730004749087005F026F811B000BD70B5054670
:104740000E460120464908604FF000040CE000BF0F
:1047500040213E48FEF72DFC0028F9D0295D3B485A
:10476000FEF7B9FB601CC4B2B442F0DB00BF4021CD
:104770003648FEF71EFC0028F9D0002034490870A6
:104780003749086070BD10B500202B49C87126203C
:1047900008701020FCF76AFD2749487000208870D7
:1047A000C8700871487188712A20087210BD10B550
:1047B00002460020D3B24FF47F4404EA012423448C
:1047C00098B210BD10B50446207A5E281AD1A1789F
:1047D0006078FFF7ECFF234908802179E078FFF744
:1047E000E6FF21490860A1796079FFF7E0FF1F49E2
:1047F0000880E0791E490870607A40B21D4908704F
:10480000002010BD207A2F2836D10B484078A1789F
:10481000884201D0A07850B9607807498870E07864
:10482000087120794871607988710120E9E723E0F7
:1048300000080040AA0000209C090020A6000020DB
:1048400080000020F00000200004004000440040F0
:10485000A4000020D8000020D4000020D0000020B8
:10486000BC812142780000207C0000207A000020DA
:1048700076000020C70000200020C2E72DE9F047A5
:1048800005460E4617469846DDE908944FF0000AA3
:1048900007F022FA82462F2C1FD12620FE490870ED
:1048A000084645708670C77080F8048080F80590CF
:1048B00000208871F9480078C871084604722A20DF
:1048C00048720A21F448FFF739FFAE4205D1F44897
:1048D000077149464046FBF752FD5E2C25D1262044
:1048E000ED490870EF4800884870EE480088000ADB
:1048F0008870ED480068C870EB480068000A0871CD
:10490000EA4800884871E9480088000A8871E3484D
:104910000078C87108460472E548007848722A2079
:1049200088720B21DC48FFF709FF504607F0D8F9E1
:10493000BDE8F0877CB50446002510E05E2000212C
:10494000CDE90010D649487800231A461946FFF7EA
:1049500095FF42F21070FDF76FFC681CC5B2A542CE
:10496000ECDD7CBD7047F0B5DDE90545CC4E7678D1
:10497000D04F3E703E467070B170F27033717471FA
:10498000B571F0BDF0B505AC70CCCA4F3870797018
:10499000BA70FB703C717D71BE71F0BD70B504469C
:1049A000002507F099F905462620C3490870232001
:1049B0004870207888706078C870A0780871E078B6
:1049C0004871207988716079C871A07908722A20AD
:1049D00048720A21B848FFF7B1FE284607F080F96F
:1049E00070BD70B50446002507F076F9054626200F
:1049F000B14908702320487020788870E078C8702A
:104A0000207908712A2048710621AB48FFF796FEED
:104A1000284607F065F970BD70B50446002507F01B
:104A20005BF905462620A4490870232048702078A9
:104A300088706078C870A0780871E0784871207933
:104A400088712A20C87108219B48FFF777FE284605
:104A500007F046F970BD10B5002407F03DF9044693
:104A60002620954908702B2048702A208870032141
:104A70009148FFF763FE204607F032F910BD10B5EC
:104A8000002407F029F9044626208B4908702120CC
:104A900048702A20887003218748FFF74FFE204680
:104AA00007F01EF910BD817801EB8102834B995408
:104AB000C178827802EB82021A445170417982787F
:104AC00002EB82021A449170C179827802EB820271
:104AD0001A44D1700121827802EB82021A441171CA
:104AE000817801EB8102764B99540179827802EB4F
:104AF00082021A4451708179827802EB82021A4450
:104B00009170017A827802EB82021A44D1700221FC
:104B1000827802EB82021A4411717047F0B5DDE928
:104B2000054500EB8006654FB95500EB80063E4415
:104B3000727000EB80063E44B37000EB80063E448A
:104B4000F47000EB80063E443571F0BDF0B5DDE950
:104B5000054500EB80065A4FB95500EB80063E44F0
:104B6000727000EB80063E44B37000EB80063E445A
:104B7000F47000EB80063E443571F0BD2DE9F04144
:104B800002460C4601230027002001210BE04FF0D4
:104B9000000C02F811C002EB410888F801C001F1D5
:104BA000010C0CF0FF01DFF81CC19CF800C08C4523
:104BB000EDDA01213CE0DFF80CC11CF801C00CEB80
:104BC0008C0CA4449CF802C0BCF1000F2CD1DFF87F
:104BD000F4C01CF801C00CEB8C0CA4449CF801C080
:104BE000BCF1000F20D0DFF8DCC01CF801C00CEBDA
:104BF0008C0C14F80CC002F813C0DFF8C8C01CF805
:104C000001C00CEB8C0CA4449CF801C002EB4308DF
:104C100088F801C003F1010C0CF0FF0300F1010C56
:104C20000CF0FF0007B9012701F1010C0CF0FF01A6
:104C3000DFF890C09CF800C08C45BCDA012F7CD115
:104C400002214BE002EB410C9CF8015012F811607C
:104C5000A1F1010C0CF0FF0313E012F8138003F133
:104C6000010C02F81C8002EB430C9CF8018003F15C
:104C7000010C02EB4C0C8CF80180A3F1010C0CF040
:104C8000FF03012B05DB02EB430C9CF801C0AC4594
:104C9000E3DB03F1010C17E05C0D0020760000203F
:104CA0009C090020780000207C0000207A00002071
:104CB000C7000020F00000206B0D0020B20B002088
:104CC000570C00203E0D002002F81C6002EB4C0C3B
:104CD0008CF8015001F1010C0CF0FF018142B1DDB3
:104CE000012132E012F811C0DFF8308D98F8018010
:104CF000C44526D102EB410C9CF8015012F811601A
:104D00000B4613E003F1010C02EB4C0C9CF801C0C4
:104D100002EB430888F801C003F1010C12F81CC033
:104D200002F813C003F1010C0CF0FF038342E9DB2E
:104D300002EB400C8CF8015000E009E002F8106032
:104D400005E001F1010C0CF0FF018142CADB00BF5C
:104D50005070BDE8F0812DE9F04703460C4615463A
:104D600001224FF000080020012113E04FF000095C
:104D700001EB410A03F80A9001EB410A9A448AF8D0
:104D8000029001EB410A9A448AF8019001F101096D
:104D900009F0FF01DFF8889C99F800904FEA490973
:104DA0008945E3DA012149E0DFF8749C19F80190A4
:104DB00009EB8909A14499F80290B9F1000F39D1A2
:104DC000DFF85C9C19F8019009EB8909A14499F876
:104DD0000190B9F1000F2DD0DFF8449C19F8019033
:104DE00009EB890914F8099002EB420A03F80A90CA
:104DF000DFF82C9C19F8019009EB8909A14499F876
:104E0000019002EB420A9A448AF802904FF001099D
:104E100002EB420A9A448AF8019002F1010909F072
:104E2000FF0200F1010909F0FF00B8F1000F01D104
:104E30004FF0010801F1010909F0FF01DFF8E09BE3
:104E400099F800908945AFDA012149E0DFF8D09B5D
:104E500019F8019009EB8909A94499F80290B9F170
:104E6000000F39D1DFF8B89B19F8019009EB8909D7
:104E7000A94499F80190B9F1000F2DD0DFF8A09B5B
:104E800019F8019009EB890915F8099002EB420A1B
:104E900003F80A90DFF8889B19F8019009EB89095B
:104EA000A94499F8019002EB420A9A448AF80290C8
:104EB0004FF0020902EB420A9A448AF8019002F18B
:104EC000010909F0FF0200F1010909F0FF00B8F142
:104ED000000F01D14FF0010801F1010909F0FF01B4
:104EE000DFF83C9B99F800908945AFDAB8F1010FE3
:104EF00079D1022159E001EB4109994499F8026006
:104F000001EB410913F8097001EB4109994499F843
:104F100001C0A1F1010909F0FF0225E002EB4209FD
:104F200013F809A002F1010909EB490903F809A0E6
:104F300002EB4209994499F802A002F1010909EB38
:104F40004909994489F802A002EB4209994499F869
:104F500001A002F1010909EB4909994489F801A06E
:104F6000A2F1010909F0FF02012A06DB02EB420966
:104F7000994499F80290B145D0DB02F1010909EB9F
:104F8000490903F8097002F1010909EB490999443B
:104F900089F8026002F1010909EB4909994489F88D
:104FA00001C001F1010909F0FF018142A3DD0121E6
:104FB00055E001EB410913F80990DFF860AA9AF86F
:104FC00001A0D14547D101EB4109994499F802600C
:104FD00001EB410913F8097001EB4109994499F873
:104FE00001C00A4626E03DE002F1010909EB49094A
:104FF000994499F8029002EB420A9A448AF8029086
:1050000002F1010909EB490913F8099002EB420A80
:1050100003F80A9002F1010909EB4909994499F84A
:10502000019002EB420A9A448AF8019002F10109C8
:1050300009F0FF028242D7DB00EB4009994489F86E
:10504000026000EB400903F8097000EB4009994445
:1050500089F801C005E001F1010909F0FF01814271
:10506000A7DB00BFBDE8F0872DE9F04F02460D46F3
:1050700001234FF0000A0020814601210EE04FF08D
:10508000000B01EB410E02F80EB001EB410E96440D
:105090008EF801B001F1010B0BF0FF01DFF880B9D0
:1050A0009BF800B08B45EADA012150E0DFF870B9D7
:1050B0001BF801B00BEB8B0BAB449BF802B0BBF1C0
:1050C000010F40D1DFF858B91BF801B00BEB8B0B87
:1050D000AB449BF801B0BBF1000F34D0DFF840B90E
:1050E0001BF801B00BEB8B0B15F80BB003EB430E69
:1050F00002F80EB0DFF828B91BF801B00BEB8B0BF0
:10510000AB449BF801B003EB430E96448EF801B01C
:10511000DFF80CB91BF801B00BEB8B0BAB449BF821
:1051200003B003EB430E96448EF802B003F1010B7B
:105130000BF0FF03BAF1000F01D14FF0010A00F1AB
:10514000010B0BF0FF0001F1010B0BF0FF01DFF889
:10515000D0B89BF800B08B45A8DABAF1010F74D132
:10516000022159E001EB410B93449BF8017001EBE4
:10517000410B12F80B8001EB410B93449BF802C0EA
:10518000A1F1010B0BF0FF0325E003EB430B12F839
:105190000BB003F1010E0EEB4E0E02F80EB003EB56
:1051A000430B93449BF801B003F1010E0EEB4E0E3E
:1051B00096448EF801B003EB430B93449BF802B086
:1051C00003F1010E0EEB4E0E96448EF802B0A3F1E1
:1051D000010B0BF0FF03012B06DB03EB430B9344A6
:1051E0009BF801B0BB45D0DB03F1010B0BEB4B0B84
:1051F00002F80B8003F1010B0BEB4B0B93448BF884
:10520000017003F1010B0BEB4B0B93448BF802C0C5
:1052100001F1010B0BF0FF018142A3DD012186E0CA
:105220004FF000090B4616E001EB410B93449BF84D
:1052300001B003EB430E96449EF801E0F34505D11F
:1052400009F1010B0BF0FF0901E073E005E003F148
:10525000010B0BF0FF038342E6DD00BF01F1010B00
:105260000BF0FF0659E006EB460B93449BF80170E8
:1052700006EB460B12F80B8006EB460B93449BF8AB
:1052800002C0A6F1010B0BF0FF0425E004EB440B78
:1052900012F80BB004F1010E0EEB4E0E02F80EB038
:1052A00004EB440B93449BF801B004F1010E0EEBA8
:1052B0004E0E96448EF801B004EB440B93449BF8D9
:1052C00002B004F1010E0EEB4E0E96448EF802B0C1
:1052D000A4F1010B0BF0FF048C4206DB04EB440B42
:1052E00093449BF802B0E345D0DB04F1010B0BEBD8
:1052F0004B0B02F80B8004F1010B0BEB4B0B9344AF
:105300008BF8017004F1010B0BEB4B0B93448BF802
:1053100002C006F1010B0BF0FF0601EB090BABF12C
:10532000010BB3459FDA01EB090B0BF0FF01814242
:105330007FF776AFBDE8F08F2DE9F04F02460D46BE
:1053400001234FF0000A0020814601210EE04FF0BA
:10535000000B01EB410E02F80EB001EB410E96443A
:105360008EF801B001F1010B0BF0FF01DFF8B0B6D0
:105370009BF800B08B45EADA012150E0DFF8A0B6D7
:105380001BF801B00BEB8B0BAB449BF802B0BBF1ED
:10539000010F40D1DFF888B61BF801B00BEB8B0B87
:1053A000AB449BF801B0BBF1000F34D0DFF870B60E
:1053B0001BF801B00BEB8B0B15F80BB003EB430E96
:1053C00002F80EB0DFF858B61BF801B00BEB8B0BF0
:1053D000AB449BF801B003EB430E96448EF801B04A
:1053E000DFF83CB61BF801B00BEB8B0BAB449BF822
:1053F00003B003EB430E96448EF802B003F1010BA9
:105400000BF0FF03BAF1000F01D14FF0010A00F1D8
:10541000010B0BF0FF0001F1010B0BF0FF01DFF8B6
:1054200000B69BF800B08B45A8DABAF1010F74D131
:10543000022159E001EB410B93449BF8017001EB11
:10544000410B12F80B8001EB410B93449BF802C017
:10545000A1F1010B0BF0FF0325E003EB430B12F866
:105460000BB003F1010E0EEB4E0E02F80EB003EB83
:10547000430B93449BF801B003F1010E0EEB4E0E6B
:1054800096448EF801B003EB430B93449BF802B0B3
:1054900003F1010E0EEB4E0E96448EF802B0A3F10E
:1054A000010B0BF0FF03012B06DB03EB430B9344D3
:1054B0009BF801B0BB45D0DC03F1010B0BEB4B0BB0
:1054C00002F80B8003F1010B0BEB4B0B93448BF8B1
:1054D000017003F1010B0BEB4B0B93448BF802C0F3
:1054E00001F1010B0BF0FF018142A3DD012186E0F8
:1054F0004FF000090B4616E001EB410B93449BF87B
:1055000001B003EB430E96449EF801E0F34505D14C
:1055100009F1010B0BF0FF0901E073E005E003F175
:10552000010B0BF0FF038342E6DD00BF01F1010B2D
:105530000BF0FF0659E006EB460B93449BF8017015
:1055400006EB460B12F80B8006EB460B93449BF8D8
:1055500002C0A6F1010B0BF0FF0425E004EB440BA5
:1055600012F80BB004F1010E0EEB4E0E02F80EB065
:1055700004EB440B93449BF801B004F1010E0EEBD5
:105580004E0E96448EF801B004EB440B93449BF806
:1055900002B004F1010E0EEB4E0E96448EF802B0EE
:1055A000A4F1010B0BF0FF048C4206DB04EB440B6F
:1055B00093449BF802B0E345D0DB04F1010B0BEB05
:1055C0004B0B02F80B8004F1010B0BEB4B0B9344DC
:1055D0008BF8017004F1010B0BEB4B0B93448BF830
:1055E00002C006F1010B0BF0FF0601EB090BABF15A
:1055F000010BB3459FDA01EB090B0BF0FF01814270
:105600007FF776AFBDE8F08F10B50446E0B2FFF744
:1056100091F910BDFEB505460E462F200021CDE9BB
:105620000010FE494878002302223146FFF726F990
:1056300002AA0421FB48006805F071F804469DF8B1
:1056400008000A2801D10020FEBD0121E079CDE942
:1056500000016379E278A1782846FFF75FFA02211A
:10566000207ACDE90001A3792279A1782846FFF7B5
:105670006DFA0120E8E710B50246002000BF0BE0FC
:1056800052F82030441C634342F8203051F8203057
:10569000634341F82030401CFF28F1DD4FF4807057
:1056A00010E0431CC3F5007352F82040634342F8F6
:1056B0002030431CC3F5007351F82040634341F888
:1056C0002030401CB0F5FF7FEBDD002014E052F8E5
:1056D000204000F5807352F823301C4400F580739D
:1056E00042F8234051F8204051F823301C4400F583
:1056F000807341F82340401CFF28E8DB00200CE0C9
:1057000000F1FF0352F8233042F8203000F1FF038C
:1057100051F8233041F82030401CFF28F0DD10BD47
:1057200000B59FB00020179005201690159000201E
:10573000149013901020FBF799FDBB4908700020CE
:10574000179047E004210846FBF7F3FEA0F5BE6082
:105750000A2190FBF1F0129008F04EFC1C900421FD
:105760000120FBF7E6FEA0F5BE600A2190FBF1F0F8
:10577000129008F041FC1D9004210120FBF7D9FE96
:10578000A0F5BE600A2190FBF1F0129008F034FC05
:105790001D9004210846FBF7CCFEA0F5BE600A214F
:1057A00090FBF1F0129008F027FC1C901D9808F077
:1057B000E7FB01049D4A179842F820101C9808F056
:1057C000DFFB01049A4A179842F820101798401CF2
:1057D00080B217901798B0F5007FB3DB94499348D7
:1057E000FFF749FF4FF400729049924806F026FBFC
:1057F0004FF400728E49904806F020FB8D491698B0
:1058000051F8200000B21490169851F820000014AE
:105810001390149807F0EDFECDE91001139807F0EE
:10582000E8FECDE90E01DDE9102307F0ABFA834A6B
:1058300003C2149808F0E0FB4FF08741119008F084
:10584000F3FB4FF08E41129008F0D8FA1B9013989A
:1058500008F0D2FB4FF08741119008F0E5FB4FF0C4
:105860008E41129008F0CAFA1A901A99084608F068
:10587000DBFB06901B99084608F0D6FB05900699BD
:1058800008F05AFA079008F02BFACDE9080107F062
:10589000E7FB00224FF08143CDE90A0107F0F4FC59
:1058A00000224FF08043CDE90C0107F0EDFC644A83
:1058B000644BCDE90E0107F0E7FCCDE9100107F0DC
:1058C000F5FB19904FF08F41199808F0ADFB0D9042
:1058D00008F006FA5C4A5D4BCDE90E0107F0D4FCF6
:1058E000CDE9100107F0E2FB129008F065FB584982
:1058F00008805149159851F8200000B2149015986D
:1059000051F8200000141390149808F075FB4FF024
:105910008741119008F088FB4FF08E41129008F0FB
:105920006DFA1B90139808F067FB4FF087411190B8
:1059300008F07AFB4FF08E41129008F05FFA1A904F
:105940001A99084608F070FB04901B99084608F065
:105950006BFB0390049908F0EFF9059008F0C0F98B
:10596000CDE9060107F07CFB00224FF08143CDE931
:10597000080107F089FC00224FF08043CDE90A01BD
:1059800007F082FC2E4A2F4BCDE90C0107F07CFC7E
:105990004FF033322F4BCDE90E0107F075FCCDE906
:1059A000100107F083FB18904FF08F41189808F012
:1059B0003BFB129008F000FB27490988484364210B
:1059C000B0FBF1F025490860149807F012FECDE90C
:1059D0001001139807F00DFECDE90E01DDE910234B
:1059E00007F0D0F9154AC2E90201114603C9CDE911
:1059F0000C011146D1E90201CDE90A01DDE90C23D0
:105A000008F084F80022164BCDE90E0107F058FE8D
:105A1000144A154BCDE9100128E000009C09002034
:105A20003E0D0020D400002073000020780D0020DF
:105A30007819002078150020782100207825002092
:105A400039B4C876BE9FF63FCDCCCCCCCCCC25406B
:105A50007800002033330740A80000207C0000209D
:105A6000008076401C2D4454FB21194007F00CFCAB
:105A7000FE4AC2E906011146D1E906010022134699
:105A8000CDE9100107F01AFF09D2F849D1E9060162
:105A90000022F74BCDE9100107F0D6FD13D3F349EF
:105AA000D1E906010022F34BCDE9100107F006FF12
:105AB0000CD2EE49D1E906010022EF4BCDE91001ED
:105AC00007F0C2FD02D20120EC490870E749D1E994
:105AD00006010022E64BCDE9100107F0EFFE09D2E6
